:100000000C9413030C945A030C945A030C945A0343
:100010000C945A030C945A030C945A030C945A03EC
:100020000C945A030C945A030C94F5260C94C8278C
:100030000C942B210C945A030C945A030C945A03DD
:100040000C945A030C945A030C945A030C945A03BC
:100050000C945A030C9493210C945A030C945A0355
:100060000C945A030C945A030C945A030C945A039C
:100070000C945A030C945A030C945A030C945A038C
:100080000C94640B0C945A030C945A030C945A036A
:100090000C945A030C945A030C945A030C945A036C
:1000A0000C945A030C945A030C945A030763423677
:1000B000B79BD8A71A39685618AEBAAB558C1D3CF9
:1000C000B7CC5763BD6DEDFD753EF6177231BF00BD
:1000D0000000803F08000000BE922449123EABAAF7
:1000E000AA2ABECDCCCC4C3E00000080BEABAAAA52
:1000F000AA3E00000000BF000000803F000000009A
:1001000000084178D3BB4387D1133D190E3CC3BDD2
:100110004282AD2B3E68EC8276BED98FE1A93E4C7F
:1001200080EFFFBE01C4FF7F3F00000000006D6F45
:100130006465206A75737420737769746368656495
:1001400020746F2071776572747920616E642074F9
:10015000686973206973206120687567652073740E
:1001600072696E670A002B0014001A00080015005F
:1001700017001C0018000C00120013002A002900B0
:1001800004001600070009000A000B000D000E0015
:100190000F0033003400E1001D001B0006001900B1
:1001A0000500110010003600370038002800DF5C21
:1001B000E000E200E300DD5C2C002C00DE5C50007F
:1001C000510052004F002B0014001A0009001300C8
:1001D0000A000D000F0018001C0033002A0029003F
:1001E000040015001600170007000B00110008009E
:1001F0000C0012003400E1001D001B000600190075
:1002000005000E0010003600370038002800DF5CC3
:10021000E000E200E300DD5C2C002C00DE5C50001E
:10022000510052004F002B003400360037001300FD
:100230001C0009000A00060015000F002A00290012
:1002400004001200080018000C0007000B00170043
:10025000110016003800E100330014000D000E00FC
:100260001B00050010001A0019001D002800DF5CAB
:10027000E000E200E300DD5C2C002C00DE5C5000BE
:10028000510052004F0035021E021F0220022102BF
:100290002202230224022502260227022A004C0001
:1002A0003A003B003C003D003E003F002D022E0284
:1002B0002F023002310201004000410042004300A1
:1002C00044004500320264024A004D000100010072
:1002D0000100010001000100010001000100AB006C
:1002E000AA00A900AE0035001E001F00200021005A
:1002F0002200230024002500260027002A004C00AD
:100300003A003B003C003D003E003F002D002E0027
:100310002F00300031000100400041004200430046
:1003200044004500320064004B004E000100010013
:100330000100010001000100010001000100AB000B
:10034000AA00A900AE001E001E001E001E001E0016
:100350001E001E001E001E001E001E001E000000CB
:1003600014001A000800150017001C0018000C00EB
:10037000120013002F0000000400160007000900FF
:100380000A000B000D000E000F0033003400E05C8B
:10039000000000000600190000000000110010001D
:1003A0000000000000000100005C015C0100010091
:1003B0000100010000000000010001004C000100EC
:1003C0000100205C1A5C1B5C135C0A5CD95CDA5C83
:1003D000DB5CDC5C01000100225C215C1D5C1E5CBE
:1003E000235C245C01000100010001000100010008
:1003F00001000100010001000100010001000100F5
:1004000001000100010044454255473A20656E61F4
:10041000626C65642E0A000A002530313662003AAB
:10042000200025303258000A722F632030313233D9
:100430003435363738394142434445460A00617500
:1004400064696F20706C6179206E6F7465206672CC
:1004500065713D256420766F6C3D2564006175648F
:10046000696F2073746F70206E6F7465206672659B
:10047000713D256400617564696F2073746F70202D
:10048000616C6C206E6F746573000A002530325801
:1004900020006B6579626F6172645F7265706F7264
:1004A000743A20000A0025303258006B6579626F7B
:1004B0006172645F7365745F6C65643A20005B739E
:1004C0005D004B6579626F61726420737461727450
:1004D0002E0A005B575D005B535D005B525D005B65
:1004E000445D005B435D0028035400680065002004
:1004F0000050006C0061006E0063006B0020004B38
:10050000006500790062006F006100720064000005
:10051000000A034F004C004B004200000004030996
:100520000409025B00030100A0FA090400000103B2
:10053000010100092111010001224000070581038A
:1005400008000A090401000103000000092111014B
:1005500000012236000705820308000A0904020090
:1005600002030000000921110100012222000705F9
:10057000830320000107050303200001120110017D
:1005800000000008EDFE6060040001020001063179
:10059000FF0974A1010975150026FF009520750853
:1005A00081020976150026FF00952075089102C08A
:1005B00005010980A10185021601002603001A81A8
:1005C000002A8300751095018100C0050C0901A166
:1005D000018503160100269C021A01002A9C02755F
:1005E0001095018100C005010906A101050719E068
:1005F00029E7150025019508750181029501750807
:1006000081010508190129059505750191029501DA
:10061000750391010507190029FF150026FF0095B4
:100620000675088100C011241FBECFEFDAE0DEBFDF
:10063000CDBF04B603FE27C080918006909181064D
:10064000A0918206B09183068730904BA740B04BB3
:10065000D1F41092800610928106109282061092B8
:10066000830614BE84B7877F84BF0FB6F894A8951D
:1006700080916000886180936000109260000FBEDE
:10068000E0E0F8E3099515E0A0E0B1E0E6E8FDE57B
:1006900002C005900D92AE35B107D9F726E0AEE560
:1006A000B5E001C01D92A038B207E1F70E942024F6
:1006B0000C94C12E0C940000FF93EF93E0915E0523
:1006C000F0915F05309709F00995EF91FF9108953A
:1006D000FC018591803011F0EFDFFBCF0895FF27FB
:1006E000E0E230E247FF0CC0419597FF09C0EDE220
:1006F0006095709580959095611D711D811D911D6E
:1007000027FF02C0219530E350E2AA27660F771F2A
:10071000881F991FAA1FA41710F0A41B63955A9550
:10072000A9F7AA3008F0A95FA05DAF93F395611512
:1007300071058105910541F7ED3211F4EF93F395C1
:10074000F21718F43F93F395FBCF8F91B5DFFA952D
:10075000E1F70895E991F9918591803021F0853292
:1007600019F0AADFF9CF089520E0E89455915532A9
:10077000C1F3503311F4689455915A3348F45053EF
:1007800090F3220F022E220F220F200D250FF4CFFF
:100790000EF4219589919991533619F3533729F124
:1007A000533559F1BC0188279927E8945C3621F428
:1007B0008991999168945591543639F446EF7EF0B9
:1007C00077FF0DC08FEF9FEF0AC055374AE039F031
:1007D000583540E121F0523642E009F00895FF9388
:1007E000EF937DDFEF91FF91B7CFFF93EF93FC0184
:1007F00081918030B9F360DFFBCFFF93EF9368DF27
:10080000F1CFDF93CF93CDB7DEB72596A3DFCF919E
:10081000DF9108956E9A769A0C946C09CF93895D56
:100820009C45C1E08830910510F5FC01E35EFB4F6B
:10083000DB011296CC910C94C62D250430043404AF
:1008400058043A0445044F048204CC2381F08EE21C
:1008500091E00E94680380E00E949404C0E007C019
:10086000CC2329F081E0F8CF82E0C111F5CF8C2FA5
:10087000CF91089583E0CC2351F00E94901E46E072
:1008800064E083E00E94B404E9CF84E0F4CF0E94E6
:10089000B11E46E064E083E00E94B404E8CF85EE38
:1008A000CC2319F00E949516D9CF0E947117DFCF83
:1008B000CC23E9F20E942B0F40E066E070E084E375
:1008C00091E00E94840E84E00E94B11E83E00E94A9
:1008D000B11E86E00E94B11E85E00E94901E0E941B
:1008E0007720811102C00E9458200E948F2090E042
:1008F00090937206809371068068809371060E94BF
:100900009320ACCFCC2309F4B2CF40E066E070E096
:1009100084E091E00E94840E85E00E94B11E9ECF8B
:1009200081E008950C940E04CF93DF93C82F20E844
:10093000829FC001112440E060E170E08C599E4F1D
:100940000E94840E61E070E0CB0102C0880F991F05
:10095000CA95E2F7EC010E948A20BE0190E080E097
:10096000DF91CF910C94301E8F929F92AF92BF92E5
:10097000CF92DF92EF92FF920F931F93C12CD12C55
:100980007601C3949701860104C0000F111F221F36
:10099000331F6A95D2F74601570104C0880C991C91
:1009A000AA1CBB1C8A95D2F7D501C401802B912BC0
:1009B000A22BB32B009140061091410620914206D4
:1009C00030914306082319232A233B2380179107DC
:1009D000A207B30769F4842F1F910F91FF90EF9046
:1009E000DF90CF90BF90AF909F908F900C94901E0F
:1009F000842F1F910F91FF90EF90DF90CF90BF90C9
:100A0000AF909F908F900C94B11E0E94000F0C9499
:100A10000A040E947E130C946E0908950C940D052F
:100A20000C940E050895CF93DF930E944F1A0E94F5
:100A300059130E945D21EC0140E063E070E084E125
:100A400093E00E94840E0E941205CE010E9469214B
:100A50008A3F910530F00E942B0FDF91CF910C94CB
:100A6000B9218FE99FE00197F1F700C00000EDCFB9
:100A70000F931F93CF93DF938C01FC01C081D18131
:100A8000CE010E942C1FBE010E94BB06EC01B801E2
:100A90000E949204882309F45DC0B801CE010E942F
:100AA000E50A882309F456C0B801CE010E94CD138F
:100AB000882309F44FC0B801CE010E941D09882384
:100AC00009F448C0C531FCE5DF0709F430C1B0F4D2
:100AD000C130ECE5DE0709F443C008F057C0C1158A
:100AE000DC4599F181E08093650580936605C80136
:100AF000DF91CF911F910F910C949004C43DECE5D0
:100B0000DE0709F4F1C0A0F4C33DDC4559F7F80154
:100B10008281882309F4D1C0109265050E945D216D
:100B2000909362058093610582E00E94C01712C015
:100B3000C73DECE5DE0711F1C83DDC4599F6F8014B
:100B40008281882339F082E01EC0F8018281811100
:100B50000E94130580E0DF91CF911F910F910895BE
:100B6000F80182818823B1F38091550681608093DA
:100B7000550686E094E00E946803ECCFF80182817C
:100B8000882341F380E00E94BD24E4CFF8018281F4
:100B9000882309F4ACCF0E947720811102C00E9403
:100BA00058200E948F2090E09093720680937106E7
:100BB000FE01E350FC45E231F105B0F4EE51FA4F8D
:100BC0000C94C62DFA05FE05020606060A060E0658
:100BD000120616062A062E06320636063A063E0685
:100BE000420646064A065606809171068160809349
:100BF000710629C0809171068260F9CF80917106DB
:100C00008460F5CF809171068860F1CF8091710684
:100C10008061EDCF809171068062E9CF809171068D
:100C20008064E5CF809171068068E1CF8091710684
:100C3000846088608093710640E064E070E084EE38
:100C400092E00E94840E809171060E9493200E947F
:100C50004F1A80CF809171068E7FC9CF8091710627
:100C60008D7FC5CF809171068B7FC1CF809171063A
:100C7000877FBDCF809171068F7EB9CF809171063D
:100C80008F7DB5CF809171068F7BB1CF809171063A
:100C90008F77ADCF809171068B7F877F80937106B0
:100CA00040E062E070E084E093E0CBCF9091710689
:100CB000892F97FB87F980589ACF8091650581111C
:100CC0000FC080916105909162050E946921883C66
:100CD000910530F486E20E94951686E20E94711713
:100CE00082E00E94C71736CFF8018281882351F035
:100CF000109266050E945D219093640580936305C0
:100D000080E213CF8091660581110FC08091630549
:100D1000909164050E946921883C910530F487E236
:100D20000E94951687E20E94711780E2DACF0E9436
:100D3000F21FF8019281992381F08A7A91E009F4F7
:100D400090E090936005811106C089E20E947B1FAC
:100D50000E94BF1FC7CE85E3F9CF80916005811146
:100D600004C089E20E94821FF3CF85E3FBCF90E0AD
:100D700080E008950895972F70E02CE0929F600D19
:100D8000711D1124FB0190E3899FE00DF11D1124D9
:100D9000EE0FFF1FEA59FE4F859194910895FC01D3
:100DA000EE0FFF1FE95EFB4F859194910895CF935D
:100DB000DF930E94BB060E946F08EC0181159044EE
:100DC00008F094C0C11580E3D80708F005C1C03E03
:100DD000D10508F071C0C03CD10508F0ECC0C83A9C
:100DE000D10580F4C53AD10508F0E9C0C130D1057C
:100DF00009F46EC020F0C430D10508F069C0D0E01D
:100E0000C0E066C0CD3BD105D0F7C83AD10509F4A2
:100E100027C1C93AD10509F426C1CA3AD10509F456
:100E200025C1CB3AD10509F424C1CC3AD10509F446
:100E300023C1CB3BD10509F422C1CC3BD10509F438
:100E400021C1CD3AD10509F420C1C03BD10509F437
:100E50001FC1CE3AD10509F41EC1CF3AD10509F41C
:100E60001DC1C13BD10509F41CC1C23BD10509F428
:100E70001BC1C33BD10509F41AC1C43BD10509F418
:100E800019C1C53BD10509F418C1C63BD10509F408
:100E900017C1C73BD10509F416C1C83BD10509F4F8
:100EA00015C1C93BD10509F414C1CA3BD10509F0EC
:100EB00013C1CAE2D6E40CC0CF3FD10509F060F4FB
:100EC000C03FD10508F086C0C83ED10508F097CFD5
:100ED000CE01DF91CF910895CE019F70C11520E220
:100EE000D207B0F30E94CF06EC01F2CFC11584E522
:100EF000D807A0F5C11523E5D20708F08EC0C115AB
:100F000081E5D80708F5C11520E5D20708F46EC0C1
:100F1000CE0154E0969587955A95E1F783709C2F02
:100F2000937021E030E002C0220F331F9A95E2F760
:100F30003C68382BC695C695C37080E2C89FE00117
:100F40001124C22BD32BC4CFC11582E5D80708F0DA
:100F500050C0DC2FCC27C16FD06ABACFC11526E5AF
:100F6000D20758F49C2F8827C115D54508F469C0CD
:100F7000EC01CC27DF71D062ABCFC11588E5D80773
:100F800008F43DCFC11529E5D20708F45EC0CE01B3
:100F900090568115904208F032CF8D2F8F710E94AC
:100FA000EF08DD27D06290E0982F882788279F716F
:100FB000C82BD92B8DCFCE01805C910993CFC53A38
:100FC000D10509F447C0C63AD10509F446C0C3E8C3
:100FD000D0E47ECFD0657CCFCE019927D3FF03C06C
:100FE000EC01D86C75CFEC01D06C72CFDF70D06A99
:100FF0006FCFCE018370992721E030E002C0220F2D
:10100000331F8A95E2F7C695C69580E2C89FE00136
:101010001124C22BD32BDC685BCFCE0183709927C0
:1010200021E030E002C0220F331F8A95E2F7C69517
:10103000C69580E2C89FE0011124C22BD32BDA6849
:1010400047CFEC01C46FD06A43CFDC2FCC27C06FF1
:10105000D06A3ECFC1E8D0E43BCFC2E8D0E438CF7D
:10106000C2EED4E435CFC9EED4E432CFCAEED4E434
:101070002FCFC5EBD4E42CCFC6EBD4E429CFC3EB00
:10108000D4E426CFC4EBD4E423CFC7EBD4E420CF01
:10109000CCECD4E41DCFCDECD4E41ACFC3E8D5E436
:1010A00017CFCAE8D5E414CFC2E9D5E411CFC4E91B
:1010B000D5E40ECFC1E2D6E40BCFC3E2D6E408CF2D
:1010C000C4E2D6E405CFC5E2D6E402CFC6E2D6E458
:1010D000FFCEC7E2D6E4FCCEC0E0D4E4F9CE82383D
:1010E000910549F1B0F48133910509F45CC048F4ED
:1010F0008932910509F452C08A32910509F458C029
:1011000008958533910509F444C08933910599F018
:101110000895833E910531F138F4803E910591F0B8
:10112000823E9105B1F00895863E910511F1873E0A
:10113000910541F10895209171062370C9F080EE68
:1011400090E008952091710620FF12C089E390E09D
:1011500008952091710622FF0BC024FF2EC090E05D
:1011600080E008952091710622FD2AC024FDF7CF6A
:1011700008952091710623FFFBCF24FDF0CF87EE69
:1011800090E008952091710623FFF0CF86EE90E065
:1011900008952091710625FD16C0089520917106CD
:1011A00025FD14C008952091710626FD12C00895F2
:1011B0002091710626FD10C0089583EE90E00895F9
:1011C00082EE90E0089589E290E0089585E390E052
:1011D00008958AE290E0089581E390E0C9CFCF932B
:1011E000C82F0E948F20282F30E030937206209362
:1011F000710682FF06C09C2F9871983079F4C77FE2
:10120000C46083FF06C09C2F9871983171F4C77E2B
:10121000C46184FDC77E8C2FCF9108959C2F94715B
:10122000943079F7CB7FC860ECCF9C2F94719431C8
:1012300081F7CB7EC861EDCF08950F931F93CF93B5
:101240008C01FB018281811106C0C1E08C2FCF91FE
:101250001F910F910895C0917405C11125C00631E9
:101260001C4599F70E941C0981E0809374050E9437
:101270005D2190937305809372051092670510921B
:1012800069051092680510926B0510926A0510921C
:101290006D0510926C0510926F0510926E051092FC
:1012A000710510927005D2CF8091720590917305EF
:1012B0000E946921883C910540F680916705E82FDE
:1012C000F0E0EE0FFF1FE859FA4F118300838F5FA4
:1012D00080936705C0E0BACF089508950C946D0916
:1012E000CF93DF9385B7806885BF85B7806885BF5A
:1012F000ABEFB4E04FEF54E0C1E0D0E08D91E82FC8
:10130000E295EF70F0E061A18F709E0101C0220FA5
:101310008A95EAF7922F9095962391A382A1822B2A
:1013200082A34A175B0751F7AFEEB4E04BEF54E0EE
:10133000C1E0D0E08D91E82FE295EF70F0E061A17F
:101340008F709E0101C0220F8A95EAF7922F909527
:10135000962391A382A1822B82A34A175B0751F7A0
:1013600010927E0510927D051092760510927505FB
:101370001092800510927F051092780510927705E3
:10138000109282051092810510927A0510927905CB
:10139000109284051092830510927C0510927B05B3
:1013A000DF91CF910C9405054F925F927F928F92BF
:1013B0009F92AF92BF92CF92DF92EF92FF920F93E4
:1013C0001F93CF93DF93C5E7D5E00BEF14E09FEFBA
:1013D000A92E94E0B92EEE24E394F12C9924939451
:1013E000C880D98019821882D8018D918D01E82F8B
:1013F000E295EF70F0E091A18F70970101C0220F8C
:101400008A95EAF7892F822B81A382A1822E80946C
:10141000882182A3B0EABA95F1F78FEE482E84E0D6
:10142000582E90E080E0D2017D912D01472F42950A
:101430004F7050E0DA0190967C90488159817F701E
:10144000D70102C0AA0FBB1F7A95E2F7BD01672141
:1014500009F068C0B701082E02C0660F771F0A9412
:10146000E2F7462B572B5983488301968C30910520
:10147000D1F681A1882281A282A1282B22A3888172
:101480009981C816D90641F0909285050E945D2188
:1014900090938705809386052296A016B10609F0E1
:1014A0009FCF80918505882351F180918605909189
:1014B00087050E946921069710F18091750590912A
:1014C000760590937E0580937D05809177059091B8
:1014D00078059093800580937F05809179059091A0
:1014E0007A05909382058093810580917B05909188
:1014F0007C059093840580938305109285050E9456
:10150000090581E0DF91CF911F910F91FF90EF903E
:10151000DF90CF90BF90AF909F908F907F905F9023
:101520004F90089570E060E09CCFE82FF0E0EE0F60
:10153000FF1FE358FA4F808191810895CF92DF9287
:10154000EF92FF920F931F93CF93DF9387E294E084
:101550000E9468038DE7E82E85E0F82ED0E0C0E019
:1015600092E2C92E94E0D92E09E114E0DF93CF93E3
:10157000DF92CF920E9401048FE194E00E94680301
:10158000F701819191917F010E944B209F938F934E
:101590001F930F930E94010487E194E00E94680367
:1015A00021968DB79EB708960FB6F8949EBF0FBED2
:1015B0008DBFC430D105D1F6DF91CF911F910F912E
:1015C000FF90EF90DF90CF900895FB018A312CE5DA
:1015D000920739F482818823A1F10E949E1080E055
:1015E00008958B312CE5920731F48281882349F1EB
:1015F0000E94AE10F4CF8C312CE5920741F4828129
:101600008823F9F00E949A108111F2CFE6CF81323F
:101610002CE5920769F48281882399F00E94C71013
:1016200040E064E070E08CE293E00E94840ED7CF4B
:1016300082329C4531F48281882319F00E94D010B7
:10164000EFCF81E008958554990BBC01990F880B69
:10165000990B0E94972A20E030E040E451E40E9478
:10166000ED299B01AC0160E070E080E090E40E9415
:101670001B2C20E030E04CED53E40E94AE2B4FE0F9
:1016800050E00C9422108554990BBC01990F880BE3
:10169000990B0E94972A20E030E040E451E40E9438
:1016A000ED299B01AC0160E070E080E090E40E94D5
:1016B0001B2C20E030E04CED53E40E94AE2B0C9448
:1016C000720F0C942B0F08951F920F920FB60F926A
:1016D00011244F925F926F927F928F929F92AF925E
:1016E000BF92CF92DF92EF92FF922F933F934F934F
:1016F0005F936F937F938F939F93AF93BF93EF937A
:10170000FF9380919B05882309F4CAC0E090DD0512
:10171000F090DE051E141F040CF0C2C040908B0533
:1017200050908C0560908D0570908E0520E030E023
:10173000A901C301B2010E94A92B18160CF093C194
:1017400021E0E216F10409F452C08091DB0590918A
:10175000DC05B7010E94B22D6C019093DC058093EB
:10176000DB0580909D0590909E05A0909F05B09010
:10177000A00520E030E040E85FE3C501B4010E942D
:101780007C2960939D0570939E0580939F0590939F
:10179000A005F601EE0FFF1FEE0FFF1FEF54FA4FEB
:1017A000A301920160817181828193810E94ED2960
:1017B00020E030E040E05EE30E94AE2B9B01AC01F4
:1017C000C501B4010E94A92B18168CF4C60101961C
:1017D000B7010E94B22D9093DC058093DB05109237
:1017E0009D0510929E0510929F051092A005E09114
:1017F000DB05F091DC05EE0FFF1FEE0FFF1FEF542E
:10180000FA4F6081718182819381209188053091A6
:1018100089052F3F320731F02F5F3F4F3093890505
:10182000209388050E94D9106B017C0120E034E2EE
:1018300044EF51E40E94E82987FF08C086EFC82ED4
:1018400088E2D82E84EFE82E81E4F82E20E030E004
:1018500040E051E4C701B6010E94AE2B9B01AC01F0
:1018600060E074E284E79BE40E94ED296B017C0157
:101870000E94662A709397006093960020919503CA
:10188000309196034091970350919803C701B60198
:101890000E94AE2B0E94662A709399006093980074
:1018A00080919C05882309F4B4C1C0909705D0901D
:1018B0009805E0909905F0909A0520E030E0A901A4
:1018C000C701B6010E94A92B18160CF091C1809196
:1018D0008805909189058F3F980729F0019690938C
:1018E000890580938805C701B6010E94D91020E0C0
:1018F00030E040E051E40E94AE2B9B01AC0160E07F
:1019000074E284E79BE40E94ED296B017C010E9454
:10191000662A70939700609396002091950330910A
:1019200096034091970350919803C701B6010E9416
:10193000AE2B0E94662A7093990060939800609184
:101940009105709192056F5F7F4F70939205609340
:101950009105E0909600F090970090E080E00E9462
:10196000952A4B015C01409093055090940560903E
:10197000950570909605EF2809F443C18091900574
:1019800081113FC1609196007091970090E080E0D6
:101990000E94952A9B01AC01C301B2010E94ED296E
:1019A00020E03FEF4FE757E40E94AE2B20E030E00D
:1019B00040E85FE30E947B29A50194010E94E82989
:1019C00018160CF426C180918F058F5F80938F05C8
:1019D00020916506309166068217130638F08091D3
:1019E0006C06882309F41EC110928F05E0916706EA
:1019F000F091680690918F0580919005811144C106
:101A000081E080939005915090938F0548E0949FDA
:101A100090011124E20FF31FC080D180E280F38097
:101A20002085318542855385C701B6010E94E8298A
:101A3000811121C110929705109298051092990575
:101A400010929A0580E090E0A0E8BFE380939305B0
:101A500090939405A0939505B093960510929205E6
:101A600010929105D6C0F701EE0FFF1FEE0FFF1F7A
:101A7000E355FA4F80809180A280B38080919403D7
:101A8000882309F4ACC0C090D705D090D805E09069
:101A9000D905F090DA0520E030E0A901C701B601D0
:101AA0000E94E829882309F49AC0A5019401C7017E
:101AB000B6010E94E82987FF5BC0A501940160E0A0
:101AC00070E08CED93EC0E94ED2920E030E040E4E2
:101AD00051E40E94ED2920E030E040E05FE30E9405
:101AE000AE2B9B01AC0160E070E080E090E40E94CE
:101AF0001B2CA50194010E94AE2B9B01AC01C701D8
:101B0000B6010E94E82987FF33C0A701960160E073
:101B100070E08CED93E40E94ED2920E030E040E499
:101B200051E40E94ED2920E030E040E05FE30E94B4
:101B3000AE2B9B01AC0160E070E080E090E40E947D
:101B40001B2C9B01AC01C701B6010E94AE2B609318
:101B5000D7057093D8058093D9059093DA056091E5
:101B6000D7057091D8058091D9059091DA054DCEB1
:101B7000A5019401C701B6010E94A92B18167CF596
:101B8000A501940160E070E08CED93E40E94ED29E2
:101B900020E030E040E451E40E94ED2920E030E014
:101BA00040E05FE30E94AE2B9B01AC0160E070E07F
:101BB00080E090E40E941B2CA50194010E94AE2BB2
:101BC0009B01AC01C701B6010E94A92B18163CF479
:101BD000A701960160E070E08CED93EC9CCF8092C1
:101BE000D7059092D805A092D905B092DA05B7CF63
:101BF00010929700109296001092990010929800FF
:101C00009ECEA3019201C501B4010E94A92B87FFBA
:101C1000DACE8091690680FD11C010929C05109269
:101C20009B050CC0809171008D7F80937100809125
:101C300090008F738093900010929C05FF91EF911C
:101C4000BF91AF919F918F917F916F915F914F91D4
:101C50003F912F91FF90EF90DF90CF90BF90AF908A
:101C60009F908F907F906F905F904F900F900FBEDE
:101C70000F901F901895C0929705D0929805E0920A
:101C80009905F0929A05DECE109290051092890582
:101C90001092880528E0929FC0011124E80FF91FD7
:101CA00080819181A281B38180939705909398055B
:101CB000A0939905B0939A0520E030E040E85EE3F8
:101CC00064817581868197810E94AE2B6B017C01B6
:101CD0006091990370E090E080E00E94952A20E0F6
:101CE00030E048EC52E40E94ED299B01AC01C701B1
:101CF000B6010E94AE2B6093930570939405809378
:101D0000950590939605AACECF92DF92EF92FF921F
:101D1000CF93DF93EC016B01F42E80918A05811142
:101D200002C00E94000F8091690680FF62C080910E
:101D300071008D7F8093710080919B0581110E94BD
:101D40002B0F81E080939C05D0936806C0936706B3
:101D5000D0926606C0926506F0926C0610929D05C0
:101D600010929E0510929F051092A00510928F056B
:101D700088819981AA81BB8180939705909398056A
:101D8000A0939905B0939A0520E030E040E85EE327
:101D90006C817D818E819F810E94AE2B6B017C01C5
:101DA0006091990370E090E080E00E94952A20E025
:101DB00030E048EC52E40E94ED299B01AC01C701E0
:101DC000B6010E94AE2B60939305709394058093A7
:101DD0009505909396051092920510929105809129
:101DE0007100826080937100809190008068809380
:101DF0009000DF91CF91FF90EF90DF90CF9008950A
:101E00000E947720811102C00E9458200E949820D1
:101E10008093690680918A05811111C03E9A259AA6
:101E20002D98809171008D7F8093710082E0809366
:101E300090008AE18093910081E080938A058091EF
:101E4000690680FF07C040E065E070E08CE693E043
:101E50000C94840E08958091550680FF08C085E794
:101E600094E09F938F930E9401040F900F908091B4
:101E70008A05811102C00E94000F1092DE051092A7
:101E8000DD05809171008D7F8093710080919000BD
:101E90008F738093900010929C0510929B05109276
:101EA000D7051092D8051092D9051092DA05109234
:101EB000D3051092D4051092D5051092D605109234
:101EC000D2051092D105E1EBF5E0A1EAB5E011925F
:101ED0001192119211921D921D9285E0E13DF80739
:101EE000B1F70895CF92DF92EF92FF920F931F9375
:101EF000CF93DF936B017C018091550680FF0FC06B
:101F0000C7010E945F2A7F936F938DE594E09F93B2
:101F10008F930E9401040F900F900F900F9080916B
:101F20009B05882309F467C080918A05811102C04E
:101F30000E94000F01EB15E0C7E0D0E0A701960179
:101F4000F801648D758D868D978D0E94E829811129
:101F50006CC0FE01EE0FFF1FEE0FFF1FEF54FA4F94
:101F60001082118212821382CC0FDD1FCF55DA4FFF
:101F70001982188285E0ED3CF80709F045C0809190
:101F8000DD059091DE05019797FD57C09093DE0522
:101F90008093DD058091DD059091DE052091DB05C4
:101FA0003091DC052817390724F01092DC051092D7
:101FB000DB05892B01F5809171008D7F8093710085
:101FC000809190008F73809390001092D7051092AB
:101FD000D8051092D9051092DA051092D305109207
:101FE000D4051092D5051092D6051092D205109204
:101FF000D10510929B05DF91CF911F910F91FF901A
:10200000EF90DF90CF90089584819581A681B7816C
:1020100081939193A193B1931082118212821382C2
:102020008A819B8189939993A3CF219704501109A9
:10203000CF3FDC0709F082CFA2CF1092DE051092CD
:10204000DD05A8CFCF92DF92EF92FF92CF93DF937F
:102050006B017C01D42FC52F8091550680FF13C0E2
:102060005F934F93C7010E945F2A7F936F938EE324
:1020700094E09F938F930E9401040F900F900F9014
:102080000F900F900F9080918A05811102C00E94DD
:10209000000F8091690680FF46C08091DD05909118
:1020A000DE0508970CF03FC0809171008D7F809312
:1020B000710080919C0581110E942B0F81E080931B
:1020C0009B05109289051092880520E030E0A90157
:1020D000C701B6010E94A92B1816DCF48091DD051A
:1020E0009091DE05FC01EE0FFF1FEE0FFF1FEF5476
:1020F000FA4FC082D182E282F382FC01EE0FFF1F11
:10210000EF55FA4FD083C18301969093DE058093FB
:10211000DD05809171008260809371008091900054
:10212000806880939000DF91CF91FF90EF90DF90D7
:10213000CF90089580916906817008958091690615
:102140008160809369060E949C200E94630B40E09E
:1021500062E070E08CE593E00C94840E40E062E075
:1021600070E08CE493E00E94840E2FEF81EE94E007
:10217000215080409040E1F700C000000E942B0FEA
:10218000809169068E7F809369060C949C208091D3
:10219000DF0590E00196877099278093DF05089509
:1021A0008091DF0590E00796877099278093DF057F
:1021B00008958F929F92AF92BF92CF92DF92EF924B
:1021C000FF92CF93DF936B017C01C0918805D09182
:1021D0008905BE0190E080E00E94952A4B015C01D8
:1021E000A701960160E070E08CE594E40E94ED297F
:1021F0009B01AC01C501B4010E94AE2B0E94662A6E
:102200009B01E091DF05E83018F5F0E0E65FFE4E57
:102210000C94C62D121135114E11561228119E1212
:10222000CF120D131092940380E090E0A0E0BFE382
:102230008093950390939603A0939703B09398038C
:1022400010928B0510928C0510928D0510928E05C0
:10225000C701B601DF91CF91FF90EF90DF90CF9053
:10226000BF90AF909F908F9008951092940310921A
:102270008B0510928C0510928D0510928E056A5078
:10228000710980E090E0A0E8BEE36F3B710508F4BF
:1022900060C080E090E0A0E0BEE35BC010929403D9
:1022A00010928B0510928C0510928D0510928E0560
:1022B00020E030E040EA52E4C701B6010E94E8297C
:1022C00087FDC6CF20E030E040E253E4C701B6010D
:1022D0000E94E82987FF46C00E94182E68E270E03D
:1022E0000E94B22DBC01645C7F4F072E000C880B4E
:1022F000990B0E94972A6B017C018091880590912F
:1023000089058B30910508F18531910508F052C09F
:1023100065E170E0681B790B90E080E00E94952AEF
:1023200020E030E040E05FE30E94AE2B20E030E0B0
:1023300040E251E40E94ED29609395037093960367
:10234000809397039093980383CF80E090E0A0E080
:10235000BFE38093950390939603A0939703B09364
:10236000980376CF20E030E040EA53E4C701B6019D
:102370000E94E82987FF27C00E94182E68EE73E0AC
:102380000E94B22DBC0168517C4F072E000C880BB7
:10239000990B0E94972A6B017C018091880590918E
:1023A00089058630910588F265E170E085319105F7
:1023B00008F46BC010929503109296031092970345
:1023C0001092980345CF20E030E040E254E4C7018A
:1023D000B6010E94E82987FF2FC00E94182E60EDE9
:1023E00077E00E94B22DBC016854744F072E000C98
:1023F000880B990B0E94972A6B017C0180918805BC
:10240000909189058031910508F49FCF8531910520
:1024100088F665E170E0681B790B90E080E00E942F
:10242000952A20E030E040E05FE30E94AE2B20E000
:1024300030E040EA50E47ECF20E030E040EA54E46F
:10244000C701B6010E94E82987FF02CF0E94182E1B
:1024500060ED77E00E94B22DBC016854744F072EE6
:10246000000C880B990B0E94972A6B017C018091CC
:102470008805909189058432910508F466CF8333ED
:10248000910508F097CF63E370E0681B790B90E04B
:1024900080E00E94952A20E030E040E05FE30E9467
:1024A000AE2B20E030E040E751E444CF41E04093E0
:1024B000940310928B0510928C0510928D0510924A
:1024C0008E056431710540F46A30710560F120E0D9
:1024D00030E040E05FE32BC0693C710508F06ACF53
:1024E00090E080E00E94952A20E030E040EA51E44C
:1024F0000E947B2920E030E044E353E40E94ED2970
:102500009B01AC010E94AE2B20E030E040E05EE396
:102510000E94AE2B9B01AC0160E070E080E09EE386
:102520000E947B2909CF20E030E040E85EE3C7014C
:10253000B6010E94AE2B6B017C01ABCE21E0209353
:10254000940310928B0510928C0510928D051092B9
:102550008E054AE0469F9001479F300D1124C90126
:1025600068EB7BE00E949E2DBC016C5D754077FF9F
:1025700003C0719561957109072E000C880B990BAA
:102580000E94972A2EE333EC4EE259E30E94AE2BD1
:1025900020E030E040EC5EE30E947C29CDCE81E07B
:1025A0008093940310928B0510928C0510928D05E8
:1025B00010928E05CE0183709927892B09F1BE01F7
:1025C0006170772790E080E00E94952A20E030E05B
:1025D00040E05EE30E94AE2B20E030E040E45FE3A9
:1025E0000E947C29609395037093960380939703D0
:1025F00090939803C770DD27CD2B09F029CEDACE52
:1026000080E090E0A0E0BFE3809395039093960371
:10261000A0939703B0939803EDCF41E040939403C8
:1026200010928B0510928C0510928D0510928E05DC
:10263000812C912CA12C9FE3B92E8092950390922E
:102640009603A0929703B09298032739310508F4B6
:10265000FFCD90E080E00E94952A20E030E047E145
:1026600053E40E947B2920E030E04AE754E40E94D2
:10267000ED2920E030E048E452E40E94AE2B20E057
:1026800030E040EA51E40E94DD2A0E945F2A660F92
:10269000771F660F771F61507B4FFB0120813181CF
:1026A00042815381C701B6010E94AE2B6B017C01B0
:1026B000CFCD0C94610B0E94610B1092F80540E0A5
:1026C00068E070E08AE993E00C94840E0E94610B4C
:1026D0002091F70530E02F5F3F4F23703327209381
:1026E000F70548E2429FC001439F900D112440E04E
:1026F00065E070E0865E9B4F0C94840ECF938091D2
:10270000F4058823F1F08091E0059091E1050097B0
:1027100079F40E945D219093E1058093E00580911A
:10272000E205282F30E0882371F0C90101970FC01E
:102730000E9469212091BA043091BB0428173907FF
:1027400040F3CF9108958091E3058150990B2C516E
:102750003A4FF901C0818C519A4FFC0180810E944F
:10276000430B8C2F0E94230B8091E20590E0019691
:102770006091E30570E00E94B22D8093E205E1CF05
:10278000089581E08093F80540E068E070E08AED0C
:1027900093E00E94840E0C94C013EF92FF921F935B
:1027A000CF93DF93CDB7DEB7A3970FB6F894DEBF14
:1027B0000FBECDBF7C018D313CE5930749F4DB01B1
:1027C00012968C91882339F10E94C11380E0C0C019
:1027D0008E31BCE59B0739F4FB0182818823D9F057
:1027E0000E945B13F3CF8F31FCE59F0751F480917A
:1027F000F805DB0112969C91992369F08111F0CFC5
:10280000E3CF80329C4539F4FB018281882319F0A3
:102810000E946613DBCF8091F805882309F4E0C09D
:10282000DB0112962C91222309F44FC0B0EEEB1677
:10283000F10461F40E94610B81E08093F60510922F
:10284000F5051092F4051092E305C0CFE2EEEE1606
:10285000F10471F40E94610B8091F605882319F050
:1028600081E08093F5051092F6051092F405AECF45
:10287000F3EEEF16F10491F48091F505882329F128
:102880000E94610B1092F60581E08093F40510928E
:10289000E2051092E1051092E00598CF8091BA040C
:1028A0009091BB040A9732E5E316F10449F081E503
:1028B000E816F10451F48091BA049091BB040A9691
:1028C0009093BB048093BA0481CF8091F705109157
:1028D000BE04811112C013508091BC04180FDB019B
:1028E0008C91180F11963C9184E090E0831B910924
:1028F000BCE08B9F100D112413C08130A9F5105E30
:102900008091BC04180FFB018081180F318184E095
:1029100090E0831B9109982F990F990F890F180F39
:10292000812F222309F459C00E94230B8091F605C0
:10293000882351F08091E305E82FF0E0EC51FA4F45
:1029400010838F5F8093E30581E0EF2809F03ECF8D
:10295000A3960FB6F894DEBF0FBECDBFDF91CF9127
:102960001F91FF90EF900895823079F4105E80916E
:10297000BC04180FDB018C91180F11963C9184E078
:1029800090E0831B9109B7E0B4CF833049F683E22E
:10299000ECECF4E0DE01119601900D928A95E1F7DE
:1029A000DB01EC9181E090E08C0F9D1F8E0F911D5B
:1029B000FC018091BC049091BD04E80FF91F1350F5
:1029C0008081180F11963C9184E090E0831B91095F
:1029D000ACE08A9F100D1124A3CF0E94430BB4CF0B
:1029E00081E0B6CF9093FE058093FD050895E091B8
:1029F000FD05F091FE05309721F00190F081E02D6A
:102A0000099480E00895EF92FF920F931F93CF9364
:102A1000DF938C01E091FD05F091FE053097C1F147
:102A20000280F381E02D09958091550682FF30C028
:102A300080FF04C082E994E00E946803D0E0C0E017
:102A40008CE8E82E84E0F82E8091550680FF0EC0B9
:102A5000F801EC0FFD1F80811F928F93FF92EF9280
:102A60000E9401040F900F900F900F902196C83094
:102A7000D10551F78091550680FF0AC08AE894E09D
:102A8000DF91CF911F910F91FF90EF900C9468030D
:102A9000DF91CF911F910F91FF90EF9008952091BA
:102AA000FB053091FC052817390771F09093FC0560
:102AB0008093FB05E091FD05F091FE05309721F034
:102AC0000680F781E02D099408952091F905309151
:102AD000FA052817390771F09093FA058093F905E4
:102AE000E091FD05F091FE05309721F00084F1851D
:102AF000E02D0994089508950C947B1581E00895C4
:102B00000E9454210E9470090C94DB21CF93C82F9E
:102B10008091550682FF1EC080FF04C08BEA94E0BE
:102B20000E9468038091550680FF0CC01F92CF93CE
:102B300086EA94E09F938F930E9401040F900F9078
:102B40000F900F908091550680FF04C084EA94E0B6
:102B50000E9468038C2FCF910C9410055F926F92A6
:102B60007F928F929F92AF92BF92CF92DF92EF921D
:102B7000FF920F931F93CF93DF93CDB7DEB72A97C2
:102B80000FB6F894DEBF0FBECDBF0E94D4090E94DD
:102B90007E15882309F478C090E0A92E96E0B92E1E
:102BA00010E000E088248394912C502E802F0E9406
:102BB000950A7C01F501C190D1905F01C816D90634
:102BC00009F45CC08091550681FD0E949E0A90E048
:102BD00080E0CE24DF243401082E02C0660C771C6E
:102BE0000A94E2F7960126213721232B09F441C0EC
:102BF0008E835F82E620F72081E0EF2809F480E0F1
:102C000088870E945D218160782F9A8789874E810D
:102C10005F8168858A850E946B16000F111FF8017D
:102C2000E050FA4F80819181682679267182608216
:102C30000E94F7149091FF058917B9F10E94F714CB
:102C40008093FF052A960FB6F894DEBF0FBECDBF66
:102C5000DF91CF911F910F91FF90EF90DF90CF9078
:102C6000BF90AF909F908F907F906F905F900C94EB
:102C7000861501968C30910509F0ADCF0F5F1F4F7F
:102C80000430110509F091CF8FEF89838A831B826D
:102C90000E945D218160782F9D838C8349815A81B8
:102CA0006B818D810E946B16C3CF2A960FB6F89464
:102CB000DEBF0FBECDBFDF91CF911F910F91FF906F
:102CC000EF90DF90CF90BF90AF909F908F907F90CC
:102CD0006F905F900895CF93DF93CDB7DEB72B97BA
:102CE0000FB6F894DEBF0FBECDBF4F8358876987FC
:102CF0007A878B871E821D8285E0FE013796DE0172
:102D0000119601900D928A95E1F749815A816B8164
:102D10007C818D819E812B960FB6F894DEBF0FBE0D
:102D2000CDBFDF91CF910C94011D882309F4D8C049
:102D3000823871F40E94F71481FDD2C089E30E94A9
:102D40007B1F0E94BF1F89E30E94821F0C94BF1F3C
:102D5000833859F40E94F71480FDC2C083E50E94B5
:102D60007B1F0E94BF1F83E5EFCF843859F40E9478
:102D7000F71482FDB5C087E40E947B1F0E94BF1F2D
:102D800087E4E2CF9CEF980F913A18F40E947B1FE2
:102D9000DDCF90E2980F983050F4877091E001C039
:102DA000990F8A95EAF7892F0E94F51FCFCF9BE5EF
:102DB000980F933070F4853A31F0863A39F083E811
:102DC00090E00C944F1581E890E0FBCF82E890E012
:102DD000F8CF98E5980F953108F082C0883A09F449
:102DE00040C0893A09F440C08A3A09F440C08B3A9D
:102DF00009F440C08C3A09F440C08B3B09F440C050
:102E00008C3B09F440C08D3A09F440C0803B09F482
:102E100040C08E3A09F440C08F3A09F440C0813B6B
:102E200009F440C0823B09F440C0833B09F440C030
:102E3000843B09F440C0853B09F440C0863B09F45B
:102E400040C0873B09F440C0883B09F440C0893B3F
:102E500009F440C08A3B09F440C090E080E00C9443
:102E6000651582EE90E0FBCF89EE90E0F8CF8AEE18
:102E700090E0F5CF85EB90E0F2CF86EB90E0EFCFDE
:102E800083EB90E0ECCF84EB90E0E9CF87EB90E030
:102E9000E6CF8CEC90E0E3CF8DEC90E0E0CF83E8E0
:102EA00091E0DDCF8AE891E0DACF82E991E0D7CFF7
:102EB00084E991E0D4CF81E292E0D1CF83E292E045
:102EC000CECF84E292E0CBCF85E292E0C8CF86E21B
:102ED00092E0C5CF87E292E0C2CF8AE292E0BFCF14
:102EE0000895882309F44BC0823871F40E94F714C6
:102EF00081FF45C089E30E947B1F0E94BF1F89E3B9
:102F00000E94821F0C94BF1F833859F40E94F7144B
:102F100080FF35C083E50E947B1F0E94BF1F83E5B1
:102F2000EFCF843859F40E94F71482FF28C087E459
:102F30000E947B1F0E94BF1F87E4E2CF9CEF980F87
:102F4000913AF0F290E2980F983050F4877091E047
:102F500001C0990F8A95EAF7892F0E94FB1FD2CFF3
:102F60009BE5980F933020F490E080E00C944F158F
:102F7000885A853120F490E080E00C94651508951E
:102F8000882321F00E94F51F0C94BF1F0895882309
:102F900021F00E94FB1F0C94BF1F08958F929F92F7
:102FA000AF92BF92DF92EF92FF920F931F93CF9356
:102FB000DF937C01D62FC72FFC01058102950F708E
:102FC000128111110E9414200E94B81FD82E88234C
:102FD00071F0112331F180E28D0F883010F182E021
:102FE0000E94A21F0E94B81F91E0D82ED926BC2EA5
:102FF000B2949FE0B922EB2DF0E0EF5FF74E0C9416
:10300000C62D1318131863186318A518AC18AC183C
:10301000AC18CD18AC1868196819F219AC18AC18AE
:10302000FB19D12CE4CF0C2F0F70C07F11F002954B
:10303000007F1123A9F0002359F080E28D0F883022
:1030400010F0D11109C0802F0E94F51F0E94BF1FF0
:103050008D2F0E94951614C0802F0E940620F6CF57
:103060008D2F0E947117002359F080E28D0F883058
:1030700010F0D11124C0802F0E94FB1F0E94BF1F9F
:10308000DD2009F4BFC10E94951F80FDBBC1F7017F
:1030900012820E948F1F0E94901EC7010E940E1A6A
:1030A0000E948F1FDF91CF911F910F91FF90EF90A2
:1030B000DF90BF90AF909F908F900C94B11E802FA7
:1030C0000E940C20DBCFFC2FFF70BF2EC07FC032D0
:1030D00019F0B29480EFB822DD2369F0D13021F1EC
:1030E000112369F1002329F1F701858180FFB0CF19
:1030F0008F7085831EC0112359F08B2D011103C0E1
:103100000E94C017BDCF0130D9F70E942820B8CF48
:10311000011106C00E942B208B2D0E94C717B0CF33
:10312000013009F4ADCFF6CF112329F0063008F0B5
:10313000A7CF8B2DE5CF053008F0A2CFEDCF002330
:1031400059F38D2F0E9471179BCF8C2F86958695F2
:10315000837079F08130B9F098E0B91609F459C05C
:10316000B91608F48DCF86EF8B0D823008F451C06C
:1031700087CF8D2F9C2F9370111102C090E080E0BB
:103180000E944F157DCF8D2F9C2F9370111102C07F
:1031900090E080E00E94651573CF8C2F837009F05A
:1031A0004BC0111136C02D2F229526952770220F66
:1031B000220F6D2F6F70862E912CB12CA12C022E18
:1031C00004C0880C991CAA1CBB1C0A94D2F760E0AE
:1031D00070E0CB01D4FF0FC06FE070E080E090E0C2
:1031E00004C0660F771F881F991F2A95D2F7609534
:1031F000709580959095C695C695C370C23071F054
:10320000A0F4682979298A299B29C13091F00E946C
:10321000441E0E94F7140E94100532CF68297929B4
:103220008A299B290E94561EF4CF0E94441EC50184
:10323000B4010E94321EEDCF8695112311F08C2F20
:103240008170882331F32D2F229526952770220F28
:10325000220F6D2F6F70862E912CB12CA12C022E77
:1032600004C0880C991CAA1CBB1C0A94D2F760E00D
:1032700070E0CB01D4FF0FC06FE070E080E090E021
:1032800004C0660F771F881F991F2A95D2F7609593
:10329000709580959095C695C695C370C23051F0D3
:1032A00080F4682979298A299B29C13071F00E940C
:1032B000071FAFCF682979298A299B290E94191FE6
:1032C000A8CF0E94071FC501B4010E94F51EA1CF1F
:1032D000E0E2ED0FE53108F066C0F0E0EE58F64EA2
:1032E0000C94C62D8719871987198719871987198B
:1032F00087198719871987198719871987198719CE
:10330000871987199819A619AD19B419BE19DF7054
:103310008C2F8F71112331F00E94901E8D2F0E94EF
:10332000C0171ACF0E94B11E8D2F0E94C71714CF4D
:10333000112341F0053008F00FCF8C2F8F710E94C0
:10334000D41E0ACF063008F007CFF7CF8C2F8F712D
:10335000112339F00E94901EFFCE8C2F8F71112304
:10336000C9F30E94B11EF8CE112329F08C2F8F7162
:103370000E947B1EF1CE0E94761EEECE112349F0F4
:10338000CF718C2F0E94901E63E08C2F0E94991F9A
:10339000E3CE81E00E94A21F023008F4DDCE82E07D
:1033A0000E94A21FD9CE112349F0002321F08D2FB6
:1033B0000E949516D1CE8C2F8F71CCCF002379F03F
:1033C000D93349F4FFEF27EE83E0F15020408040ED
:1033D000E1F700C000008D2F0E947117BDCE8C2F29
:1033E0008F71BFCF4C2F4F706D2FC7010E94B70652
:1033F0000E94AA1D45CE4C2F4F706D2FC7010E9411
:10340000BA063ECEDF91CF911F910F91FF90EF90C2
:10341000DF90BF90AF909F908F9008950F931F9370
:10342000CF93DF93EC01988189812B813C81232B01
:1034300039F08F3F19F481E09F3F19F080E001C01F
:1034400081E080FD17C0CE010E943805882391F0ED
:10345000688179818A810E94781F8C010E942B1FCC
:103460000E942F1EB801CE01DF91CF911F910F91C5
:103470000C94CE17DF91CF911F910F9108950E9468
:1034800014200E9425200E94891F0E94BF1F90E0E7
:1034900080E00E944F1590E080E00C9465150E943A
:1034A00003200C943F1A0E946E1FE92FE295EF70E3
:1034B000E250EE30E0F4F0E0E05AF54E0C94C62D08
:1034C0006E1A6E1A771A771A791A771A771A771A84
:1034D0006E1A6E1A7E1A771A771A7E1A803F19F0C2
:1034E00020F4803E20F481E00895843FE1F380E001
:1034F0000895803EC0F3813FD1F7F5CF93FB882735
:1035000080F90895CF93DF9300D000D01F92CDB7FC
:10351000DEB70F900F900F900F900F90DF91CF912B
:103520000895CF93DF9300D000D000D0CDB7DEB7A1
:1035300026960FB6F894DEBF0FBECDBFDF91CF91B8
:1035400008951F93CF93DF93C091080616E08091F2
:1035500009068C1304C0DF91CF911F910895D0E02C
:103560001C9FF0011D9FF00D1124E65FF94F408173
:10357000518162817381848195810E94911A219683
:10358000C770E5CF40913A0650913B0660913C06EA
:1035900070913D0680913E0690913F060C94911AE1
:1035A0001F93CF93DF9380913F06807FD1F480916A
:1035B0003C068823B1F080910806D0910906B091AD
:1035C0003A06C0913B0640913D0650913E06A1E06F
:1035D000BF3F09F0A0E0BA016095709516E0D813DE
:1035E00004C0DF91CF911F91089521E0411551054D
:1035F00021F02A2FCF3F09F020E090E020FD38C0D5
:10360000189FF001199FF00D1124E65FF94F2181F9
:103610002C132EC020812B132BC02281211128C0F6
:10362000238134812417350700F1241B350B283CF6
:103630003105F0F420913F062F70206120933F0662
:1036400026E0289FF001299FF00D1124E15FF94F3A
:1036500080818F70806180838AE396E00E940E1AD9
:10366000DF91CF911F910C94A11A260F371FDFCF46
:1036700001968770B4CFAF92BF92CF92DF92EF9254
:10368000FF920F931F93CF93DF93CDB7DEB7619770
:103690000FB6F894DEBF0FBECDBF8C0185E0F801F8
:1036A000DE011D9601900D928A95E1F7D8014C91AB
:1036B00011965C9111971296EC9030913A066091B8
:1036C0003B0680913D0690913E0621E0009731F047
:1036D0006F3F19F421E03F3F09F020E0B22FB170B5
:1036E000BB2E20FD80C1F801C380D480A0903C0691
:1036F000AA2009F427C1C816D906D0F1D601A81B03
:10370000B90BCD01FF24F394883C910508F0F12C0E
:1037100080913F06982F907FFF2009F4CAC0911135
:1037200087C0FE2C651329C0341327C0E11025C0C3
:103730008F70806180933F060E94C21A8AE396E0F0
:103740000E940E1A80913F06F80185838F2D6196A5
:103750000FB6F894DEBF0FBECDBFDF91CF911F91A2
:103760000F91FF90EF90DF90CF90BF90AF900895B2
:10377000809590958C0D9D1DC5CF81E0CD2831F0B1
:103780005F3F19F481E04F3F09F080E080FD24C0E5
:1037900081E08E25F82FF170DF2E80FF3FC08091F1
:1037A00008062091090636E0821318C04D875E870F
:1037B0008D859E850E946E1F292F22952F702230A5
:1037C00008F1243030F59F7009F1D80115969C91CD
:1037D000907FE1F4FB2CBACF80E0DCCF90E0389F03
:1037E000F001399FF00D1124E65FF94F6181561306
:1037F00006C06081461303C062816E110FC001963E
:103800008770D2CF9F7011F0882321F3805E8830BB
:1038100008F3C8010E940E1ABD2CDCCFEE2009F47B
:1038200095CF80913F06816080933F06F12C8ECF2B
:10383000651312C0341310C0E1100EC0F801858367
:10384000C8010E940E1A86E0F801AAE3B6E00190D2
:103850000D928A95E1F741C04D875E878D859E85E3
:103860000E94531A882309F4C8C0EE2009F4C5C089
:1038700080913F06803270F020913A0630913B06ED
:1038800038872F831986DB86CA868C87CE010796F8
:103890000E940E1A86E0F801AAE3B6E001900D92AC
:1038A0008A95E1F70E94D01A0E94C21AFF24F3946D
:1038B0004DCF911115C07C2DD98AC88A6E2D89896A
:1038C0000E94821A8AE396E00E940E1A86E0EAE3DA
:1038D000F6E0DF011D928A95E9F70E94C21A36CF01
:1038E000651312C0341310C0E1100EC0F8018583B7
:1038F000C8010E940E1AEAE3F6E086E0DF011D929D
:103900008A95E9F7FA2C22CF4D875E878D859E85B3
:103910000E94531A882309F470C0EE2009F46DC088
:1039200080913F06803208F4B5CF20913A0630915D
:103930003B063A8329831B82DD82CC828E83CE01B3
:103940000196A6CFC816D90638F1F601E81BF90B87
:10395000CF01F12C883C910508F03DC0FE2CEE20F3
:1039600009F44BC0651326C0341324C080913F0670
:1039700080FD17C0982F907FA1F0D80115968C93E9
:103980001597903F09F45CCF982F907F905F8F70D0
:10399000892B15968C9354CF809590958C0D9D1DF9
:1039A000D8CF86E0F801AAE3B6E001900D928A959F
:1039B000E1F7CCCE4D875E878D859E850E94531A98
:1039C000811168CF80913F06816080933F06C801D6
:1039D0000E940E1ABBCE7C2DD98AC88A6E2D898989
:1039E0000E94821A73CFEE2041F04D875E878D854D
:1039F0009E850E94531A81114DCFC8010E940E1A54
:103A000055CF1F93CF93DF93CDB7DEB72C970FB66B
:103A1000F894DEBF0FBECDBF4F83588769877A8782
:103A20008B879C87CE0107960E943B1B882309F455
:103A300042C09F8188852A853B85232B39F08F3FA3
:103A400019F481E09F3F19F080E001C081E080FD22
:103A500008C04F81588569857A858B859C850E9431
:103A6000911A16E08091080690910906891709F4C9
:103A700067C0819FC0011124865F994F0E943B1B44
:103A8000882309F45DC0E09108061E9FF00111240F
:103A9000E65FF94F40815181628173818481958114
:103AA0000E94911A8091080690E0019687709927EC
:103AB00080930806D7CF86E0FE013796DE01119687
:103AC00001900D928A95E1F79F8188852A853B8533
:103AD000232B39F08F3F19F481E09F3F19F080E0EC
:103AE00001C081E080FDBDCF2091090630E0C90111
:103AF000019687709927409108064817190699F092
:103B000096E0929FD001939FB00D1124A65FB94F0C
:103B1000FE01319601900D929A95E1F78093090686
:103B20000E94A11A9ECF0E944F1A1092090610926D
:103B3000080686E0EAE3F6E0DF011D928A95E9F7E0
:103B40002C960FB6F894DEBF0FBECDBFDF91CF919C
:103B50001F910895EF92FF920F931F93CF93DF93DE
:103B60008C01892B81F0F12CEE24E394E80121965D
:103B7000F8018491843770F4843008F05FC081309C
:103B8000B1F08230A1F1DF91CF911F910F91FF90A1
:103B9000EF900895853709F44CC008F43DC09CE7C8
:103BA000980F903780F78F770E94711749C00E5F8A
:103BB0001F4FFE01849190E2980F983060F4877057
:103BC000FE2D01C0FF0F8A95EAF78F2F0E94172064
:103BD0000E94BF1F02C00E9495168F2D815030F2A7
:103BE000EFE9FFE03197F1F700C00000F7CF0E5F7B
:103BF0001F4FFE01849190E2980F983050F4877027
:103C0000FE2D01C0FF0F8A95EAF78F2F0E941D201D
:103C1000DFCF0E947117E1CF0E5F1F4FFE01C491ED
:103C2000C150D8F28FE99FE00197F1F700C0000082
:103C3000F7CF0E5F1F4FFE01F490CFCF0E94951675
:103C40008E01CBCF08950E94221E6093440670938C
:103C5000450680934606909347060C943F1A0895B4
:103C60000C94231E0F931F93009144061091450658
:103C70002091460630914706602B712B822B932BA7
:103C80001F910F910C94231E0F931F9300914406D4
:103C90001091450620914606309147066023712316
:103CA000822393231F910F910C94231E0F931F9334
:103CB0000091440610914506209146063091470632
:103CC00060277127822793271F910F910C94231E41
:103CD0000C94221E0E94681E609340067093410659
:103CE00080934206909343060C943F1A60E070E084
:103CF000CB010C946A1E0F931F9341E050E060E0EB
:103D000070E08A019B0104C0000F111F221F331FA6
:103D10008A95D2F7C901B8011F910F910C946A1EC0
:103D20000F931F9341E050E060E070E004C0440F47
:103D3000551F661F771F8A95D2F780914006909194
:103D40004106A0914206B09143068A019B01082BCF
:103D5000192B2A2B3B2BC901B8011F910F910C94F1
:103D60006A1E0F931F9341E050E060E070E004C0D2
:103D7000440F551F661F771F8A95D2F7CB01BA01F2
:103D80006095709580959095009140061091410640
:103D900020914206309143066023712382239323AE
:103DA0001F910F910C946A1E0F931F9341E050E0F6
:103DB00060E070E004C0440F551F661F771F8A95AE
:103DC000D2F78091400690914106A0914206B091B1
:103DD00043068A019B01082719272A273B27C90187
:103DE000B8011F910F910C946A1E0F931F930091BD
:103DF0004006109141062091420630914306602B07
:103E0000712B822B932B1F910F910C946A1E0F9391
:103E10001F93009140061091410620914206309177
:103E2000430660237123822393231F910F910C94E7
:103E30006A1E0F931F930091400610914106209136
:103E400042063091430660277127822793271F91EE
:103E50000F910C946A1E0895BF92CF92DF92EF9259
:103E6000FF920F931F93CF93DF938C01C090400676
:103E7000D0904106E0904206F090430680914406BF
:103E800090914506A0914606B0914706C82AD92AC6
:103E9000EA2AFB2ACFE1D0E0BC2ED701C6010C2EC6
:103EA00004C0B695A795979587950A94D2F780FD9B
:103EB0000EC0219788F7B12C8B2DDF91CF911F91E8
:103EC0000F91FF90EF90DF90CF90BF900895B801D1
:103ED0008C2F0E94D706019761F3EECFCF93DF932B
:103EE000EC010E942C1FBE01DF91CF910C94D706EC
:103EF000CB010C946E1F682F8091BF049091C00479
:103F00000C94D520682F8091BF049091C0040C942C
:103F1000D7208091BF049091C0040C94D920809147
:103F20004806859585958595089580914806877002
:103F3000089598E0899F90011124622B60934806B0
:103F40000C94901E90914806809589238093480692
:103F5000282F277061F4282F082E000C330B92179E
:103F6000130629F08595859585950C94B11E0895C5
:103F700090914806977081E009F480E00895E091FF
:103F8000BF04F091C004809154068083E091BF0487
:103F9000F091C004808190915306892B8083E09139
:103FA000BF04F091C004808190915206892B8083D8
:103FB00090914906992381F0E091BF04F091C004EB
:103FC0008081892B80838091BF049091C0040E94DE
:103FD000A1208111109249068091BF049091C004E4
:103FE0000C94031580915406089590915406892BE2
:103FF000809354060895982F9095809154068923B4
:104000008093540608951092540608959091530693
:10401000892B809353060895982F9095809153068D
:104020008923809353060895109253060895909122
:104030005206892B809352060895982F909580916F
:1040400052068923809352060895109252060895CD
:1040500080934906089510924906089590935F054C
:1040600080935E050895829590E09C01220F331F96
:10407000220F331F2C7C9595879595958795837393
:10408000282B30E0C901880F991F8A7A359527952A
:104090002575822B0895CF93DF93D92F0E9433206B
:1040A000C82F8D2F0E9433209C2FDF91CF91089530
:1040B0006DEE7EEF90E080E00E94482E60E082E0AE
:1040C00090E00E94362E60E083E090E00E94362E61
:1040D00060E084E090E00E94362E60E085E090E0B1
:1040E0000E94362E6FEF87E090E00C94362E90E021
:1040F00080E00E94302E21E08D3E9E4F09F020E0AE
:10410000822F089582E090E00C94282E83E090E0C6
:104110000C94282E682F83E090E00C94362E84E0D7
:1041200090E00C94282E682F84E090E00C94362EBA
:1041300087E090E00C94282E682F87E090E00C94A4
:10414000362EFC0131969C01285F3F4F80E0919113
:1041500091118F5FE217F307D1F708959C01FC01DD
:1041600032969FEF80E04191461751F09F3F19F43E
:10417000411101C0982F8F5F8630A9F79F3F09F446
:104180000895290F311D97FD3A95F901628308952D
:10419000FC01329608962191261303C0DF01119786
:1041A0001C92E817F907B9F708950C94AE200C9407
:1041B000C820FC0111821282138214821582168299
:1041C0001782089580917706843039F1109256064F
:1041D00088E190E020E40FB6F894A8958093600001
:1041E0000FBE2093600080E00E94100583B7817F9E
:1041F000846083BF83B7816083BF7894889583B7D9
:104200008E7F83BF0FB6F894A89580916000886177
:1042100080936000109260000FBE08950895089585
:10422000CF930E940E210E94D4090E940F21C0E06A
:104230008C2F0E94950A892B31F4CF5FC430C1F7CF
:1042400080E0CF91089581E0FCCF0E944F1A0E9438
:10425000F7140C9410051F920F920FB60F921124B1
:104260008F939F93AF93BF9380915606811113C094
:1042700080916D0690916E06A0916F06B0917006C8
:104280004196A11DB11D80936D0690936E06A0937B
:104290006F06B0937006BF91AF919F918F910F9071
:1042A0000FBE0F901F90189582E084BD93E095BDDE
:1042B0009AEF97BD80936E0008952FB7F894809180
:1042C0006D0690916E06A0916F06B09170062FBF9B
:1042D0000895CF92DF92EF92FF920F931F932FB723
:1042E000F89440916D0650916E0660916F06709142
:1042F00070062FBF6A017B01EE24FF248C0130E0A1
:1043000020E0C016D106E206F30650F0481B590B18
:10431000CA011F910F91FF90EF90DF90CF90089509
:1043200041505109F3CF78941F920F920FB60F921C
:1043300011248F939F93AF93BF9380916D069091BB
:104340006E06A0916F06B09170060196A11DB11D79
:1043500080936D0690936E06A0936F06B0937006DF
:10436000BF91AF919F918F910F900FBE0F901F90B3
:1043700018950E947A26F8942FEF87EA91E621504B
:1043800080409040E1F700C0000087E090EBDC0146
:104390008093800690938106A0938206B093830653
:1043A00088E19CE00FB6F894A895809360000FBE5A
:1043B00090936000FFCF0E947720811102C00E947D
:1043C00058200E948220809355060E948F2090E002
:1043D00090937206809371060E948620682F70E089
:1043E00090E080E00C94301E80916206089508955C
:1043F0009FB7F894109259069FBF9091770694301A
:1044000009F049C02091E9002F709091EC0090FDD7
:1044100030C090E0922B23E02093E9002091EB0044
:1044200020FF36C02091EE0027FF32C020915706B2
:10443000222321F02091E80025FF2AC01092570680
:1044400026E03091E80035FF16C08093F10080919E
:10445000E80085FD29C08091E80080FFFCCF8091B5
:10446000E8008E778093E8009F709093E90080E0E9
:10447000089590E8CFCF30917706343049F43091E9
:10448000EB0035FD05C0215041F481E080935706D3
:104490009F709093E9008FEF0895EFE9FFE0319767
:1044A000F1F700C00000CDCF8FB7F89421E0209342
:1044B00059068FBFD9CF0F931F93CF93DF9300D0AF
:1044C0001F92CDB7DEB78C010E94CD24823011F04F
:1044D000843021F583E089831B830A8382E0809303
:1044E000E9008FEF9091E800815095FD06C095EDB1
:1044F0009A95F1F700008111F5CF8091E80085FFD2
:104500000DC050E040E063E070E0CE0101960E94F3
:10451000EA248091E8008E778093E8000F900F9056
:104520000F90DF91CF911F910F910895CF93DF935B
:1045300000D01F92CDB7DEB720917706243029F541
:1045400022E02983805891099B838A832093E90084
:104550008FEF9091E800815095FD06C095ED9A95FA
:10456000F1F700008111F5CF8091E80085FF0DC0C3
:1045700050E040E063E070E0CE0101960E94EA2442
:104580008091E8008E778093E8000F900F900F9055
:10459000DF91CF910895CF93DF93EC010E94CD245A
:1045A000823011F0843039F581E08093E9008FEF9B
:1045B0009091E800815095FD06C095ED9A95F1F730
:1045C00000008111F5CF8091E80085FF14C050E014
:1045D00040E068E070E0CE010E94EA248091E800AB
:1045E0008E778093E80088E0FE01AAE5B6E00190AE
:1045F0000D928A95E1F7DF91CF91089583EE94E0D3
:104600000E94680380917606811109C00E947A2673
:104610000E94D7268091E20084608093E200089592
:104620008FED94E00E9468031092760608958BED5A
:1046300094E00C94680387ED94E00C94680383ED98
:1046400094E00E9468030C942521209158062F5F66
:10465000822F62E30E94922D992319F0209358062D
:10466000089510925806809159068823E9F08091A8
:1046700077068430B9F49091E9009F708091EC0046
:1046800080FD13C080E0892B93E09093E900909126
:10469000EB0090FF04C09091EE0097FD0AC08F7070
:1046A0008093E90010925906089580E8ECCF1092AB
:1046B000F1009091E80095FDFACF9091E80090FF0D
:1046C000EECF9091E8009E779093E800E8CF42E02B
:1046D00061EC81E00E94F82542E061EC82E00E94FA
:1046E000F82542E261EC83E00C94F825809179068C
:1046F000833009F452C030F4813059F1823009F42A
:104700008EC008958A3009F47AC08B3009F460C0F5
:10471000893009F041C0809178068132E9F58091B5
:104720007C0690917D06892BB9F58091E800877F02
:104730008093E8008091E80082FF2AC08091F10018
:10474000809362068091E8008B778093E8000C9458
:104750002C2680917806813AF9F48091E800877FD1
:104760008093E80080917C0690917D06892B61F40E
:1047700068E08AE596E070E00E9439258091E800C3
:104780008B778093E800089560E090E080E0F3CFBD
:10479000809177068111CECF089580917806813A75
:1047A000D9F780917C0690917D06892BA9F780919D
:1047B000E800877F8093E8008091E80080FFFCCFCD
:1047C0008091CB048093F1008091E8008E77BDCF7B
:1047D00080917806813201F780917C0690917D0668
:1047E000892BD1F68091E800877F8093E8000E94B2
:1047F0002C2680917A068093CB040C944F1A8091DA
:104800007806813249F68091E800877F8093E8003E
:104810000E942C2680917B068093630608958091E8
:104820007806813A09F0B8CF8091E800877F8093BD
:10483000E8008091E80080FFFCCF80916306C2CF42
:1048400084B7877F84BF0FB6F894A89580916000E5
:10485000886180936000109260000FBE80E88093B2
:104860006100109261000E947C150E947A260E94CD
:10487000D7268091E20084608093E20088EF91E285
:104880000E942E2078940E945F290E94801581EC5E
:1048900094E00E94F21482EC94E00E9468038091FC
:1048A0007706853019F00E94AE15F9CF8EEB94E0B3
:1048B0000E9468030E94E22080917506882379F3A4
:1048C0000E941021882359F30E94D424E8CF292F75
:1048D00033272330310579F158F421303105F1F0D7
:1048E0002230310519F190E080E030E020E01AC07C
:1048F0002132310599F122323105A9F76330710572
:1049000090F7FB01EE0FFF1FEE5AFA4F2081318125
:10491000615B7A4FFB01808190E004C082E190E00E
:104920002CE735E0FA013183208308958BE590E090
:1049300021E235E0F7CF99278130910561F028F029
:10494000029789F6E7EEF4E002C0EDE1F5E084912C
:1049500090E09F01E7CFE1E1F5E0F9CF6330710529
:1049600008F0C1CF660F771FFB01E85AFA4F20818C
:10497000318189E090E0D6CF0895CF93C82F0E946F
:10498000BC24C0936406CF9108958091770684304B
:1049900011F081E0089582E008958091640681110C
:1049A00002C00C94C524089580E189BD82E189BDCF
:1049B00009B400FEFDCF8091D8008F7D8093D80090
:1049C0008091E00082608093E0008091E00081FDB2
:1049D000FCCF0895AF92BF92CF92DF92FF920F93D8
:1049E0001F93CF93DF936C01EB018A010E944B264A
:1049F000F82E811123C00115110539F0F8018081CD
:104A00009181C81BD90BC80ED91EB12CA12C20979F
:104A1000A9F08091E80085FD22C08091E8008E77A2
:104A20008093E80001151105A1F0F80180819181C2
:104A3000A80EB91EB182A08285E0F82E8F2DDF91DD
:104A4000CF911F910F91FF90DF90CF90BF90AF90CB
:104A500008950E944B268823D1F2F82EEFCFF6015D
:104A600081916F018093F1002197FFEFAF1ABF0A88
:104A7000CECFFC0180917E0690917F068617970726
:104A8000A0F06115710529F49091E8009E7790934C
:104A9000E80090E06115710551F4911108C0809112
:104AA000E80082FF35C080E00895BC01F2CF80911C
:104AB00077068823C9F18530C9F18091E80083FD2C
:104AC00031C08091E80082FDEACF8091E80080FF4C
:104AD000E1CF2091F3008091F200322F282F611551
:104AE000710519F02830310558F091E02830310572
:104AF00009F090E02091E8002E772093E800CACFDB
:104B000081918093F100615071092F5F3F4FE7CF92
:104B100080917706882341F0853041F08091E8004C
:104B200083FFBDCF81E0089582E0089583E008957A
:104B3000FC0180917E0690917F0686179707A0F072
:104B40006115710529F48091E8008E778093E80063
:104B500090E06115710551F4911108C08091E80051
:104B600082FF36C080E00895BC01F2CF80917706C5
:104B70008823D1F18530D1F18091E80083FD32C0E6
:104B80008091E80082FDEACF8091E80080FFE1CFCC
:104B90002091F3008091F200322F282F61157105CA
:104BA00019F02830310558F091E02830310509F02E
:104BB00090E08091E8008E778093E800CACF8491DE
:104BC0008093F1003196615071092F5F3F4FE6CF1E
:104BD00080917706882341F0853041F08091E8008C
:104BE00083FFBCCF81E0089582E0089583E00895BB
:104BF000982F973028F08F708093E90081E0089516
:104C00009093E900242F762F50E0981731F070919F
:104C1000EC002091ED005091F00021FD02C09F5F5B
:104C2000E8CF3091EB003E7F3093EB003091ED0008
:104C30003D7F3093ED003091EB0031603093EB001D
:104C40007093EC002093ED005093F0002091EE0063
:104C500027FDE5CF80E008958091780687FF13C097
:104C60008091E80082FF06C08091E8008B778093F6
:104C7000E80004C0809177068111F2CF08958091F9
:104C800077068823D9F38091E80080FFF8CF8091E0
:104C9000E8008E77ECCF2091E4003091E50085E6C6
:104CA0009091EC0090FF06C09091E80090FF06C044
:104CB00080E008959091E80092FDFACF90917706F8
:104CC000992391F0953091F09091EB0095FD10C0F3
:104CD0004091E4005091E5002417350709F3815015
:104CE0009A01F1F684E0089582E0089583E0089542
:104CF00081E008950E94E8260E94F026E0EEF0E0B0
:104D0000808181608083E8EDF0E080818F7780830F
:104D100019BCA7EDB0E08C918E7F8C9380818F7E43
:104D200080831092760608950F931F93CF93DF939D
:104D30000E94E8260E94F026C8EDD0E088818F7797
:104D4000888388818068888388818F7D888319BC67
:104D500010927706109273061092750610927406E0
:104D600000EE10E0F80180818B7F80838881816074
:104D7000888342E060E080E00E94F825E1EEF0E008
:104D800080818E7F8083E2EEF0E08081816080838D
:104D9000808188608083F80180818E7F8083888114
:104DA00080618883DF91CF911F910F910895E8ED85
:104DB000F0E080818F7E8083E7EDF0E0808181608C
:104DC000808384E082BF81E0809376060C949426F1
:104DD000E8EDF0E080818E7F80831092E2000895FC
:104DE0001092DA001092E10008951F920F920FB610
:104DF0000F9211242F933F934F935F936F937F9361
:104E00008F939F93AF93BF93EF93FF938091E100B4
:104E100082FF0BC08091E20082FF07C08091E10019
:104E20008B7F8093E1000E9425238091DA0080FF30
:104E300019C08091D80080FF15C08091DA008E7F64
:104E40008093DA008091D90080FF94C080E189BD11
:104E500082E189BD09B400FEFDCF81E08093770631
:104E60000E94FE228091E10080FF19C08091E20043
:104E700080FF15C08091E2008E7F8093E2008091D8
:104E8000E20080618093E2008091D800806280938C
:104E9000D80019BC85E0809377060E941B2380917F
:104EA000E10084FF29C08091E20084FF25C080E1F9
:104EB00089BD82E189BD09B400FEFDCF8091D80093
:104EC0008F7D8093D8008091E1008F7E8093E100F8
:104ED0008091E2008F7E8093E2008091E200816009
:104EE0008093E20080917306882309F449C084E02E
:104EF000809377060E941F238091E10083FF29C0E1
:104F00008091E20083FF25C08091E100877F80933C
:104F1000E10082E080937706109273068091E100B1
:104F20008E7F8093E1008091E2008E7F8093E2008B
:104F30008091E20080618093E20042E060E080E0E6
:104F40000E94F8258091F00088608093F0000E9414
:104F50001723FF91EF91BF91AF919F918F917F9117
:104F60006F915F914F913F912F910F900FBE0F90D6
:104F70001F90189519BC109277060E94102372CFCB
:104F80008091E30087FD02C081E0B2CF83E0B0CF23
:104F90001F920F920FB60F9211242F933F934F93AE
:104FA0005F936F937F938F939F93AF93BF93CF93B1
:104FB000EF93FF93C091E900CF708091EC001092C5
:104FC000E9008091F000877F8093F00078940E9440
:104FD00004281092E9008091F00088608093F0002E
:104FE000C093E900FF91EF91CF91BF91AF919F9155
:104FF0008F917F916F915F914F913F912F910F9082
:105000000FBE0F901F9018951F93CF93DF93CDB7CE
:10501000DEB7AA970FB6F894DEBF0FBECDBFE8E7A4
:10502000F6E08091F100819326E0E038F207C9F7BD
:105030000E9476238091E80083FF44C08091780627
:10504000909179069A3008F03DC0E92FF0E0E55DD7
:10505000F74D0C94C62D35285B2862285B28622802
:10506000B928DB28622832293F29803889F0823824
:1050700049F580917C068F70873020F58093E90098
:105080008091EB0085FB882780F91092E90006C02B
:105090008091740690917506911182609091E8005C
:1050A000977F9093E8008093F1001092F100809137
:1050B000E8008E772DC0282F2D7F21F48823D1F092
:1050C000823059F18091E80083FF0AC08091E800A6
:1050D000877F8093E8008091EB0080628093EB00F3
:1050E000AA960FB6F894DEBF0FBECDBFDF91CF9169
:1050F0001F91089580917A06813021F7933009F04D
:1051000080E0809375061092E9008091E800877F27
:105110008093E8000E942C26D5CF80917A068111D9
:10512000F2CF80917C068F702FEF280F263050F63B
:105130008093E9002091EB0020FFE5CF933031F41C
:105140008091EB0080628093EB00DDCF9091EB00CB
:1051500090619093EB0021E030E001C0220F8A952E
:10516000EAF72093EA001092EA008091EB00886051
:10517000EACF8111A7CF10917A061F778091E300C3
:105180008078812B8093E3008091E800877F809373
:10519000E8000E942C268091E80080FFFCCF8091DF
:1051A000E30080688093E30083E0111101C082E096
:1051B0008093770687CF8058823008F083CF809124
:1051C0007A0690917B068C3D23E09207A1F583E05F
:1051D0008A838AE289834FB7F894DE01139620E030
:1051E0003EE051E2E32FF0E050935700E49120FFBE
:1051F00003C0E295EF703F5FEF708E2F90E0EA30D2
:10520000C0F0C7968D939D932F5F243159F74FBF00
:105210008091E800877F8093E8006AE270E0CE0129
:1052200001960E9439258091E8008B778093E800F1
:1052300049CFC096E7CF60917C0670917D06AE01A4
:105240004F5F5F4F0E946724BC01892B09F43ACF5E
:105250009091E800977F9093E80089819A810E945D
:105260009825E1CF803809F02DCF8091E800877F25
:105270008093E800809173068093F10018CF81112C
:1052800021CF90917A06923008F01CCF8091E800EF
:10529000877F8093E800909373060E942C2680916C
:1052A0007306882331F084E0809377060E94672399
:1052B00009CF8091E30087FDF6CF81E0F5CFCF9352
:1052C00080917706882399F0C091E900CF70809192
:1052D000EC0080FD0EC080E0C82B1092E9008091A8
:1052E000E80083FD0E940428CF70C093E900CF91AD
:1052F000089580E8F1CF5058BB27AA270E94932930
:105300000C946F2B0E94612B38F00E94682B20F0C8
:1053100039F49F3F19F426F40C945E2B0EF4E095BB
:10532000E7FB0C944A2BE92F0E94802B58F3BA1705
:10533000620773078407950720F079F4A6F50C94AB
:10534000A22B0EF4E0950B2EBA2FA02D0B01B90164
:1053500090010C01CA01A0011124FF27591B99F0EB
:10536000593F50F4503E68F11A16F040A22F232FF7
:10537000342F4427585FF3CF469537952795A79547
:10538000F0405395C9F77EF41F16BA0B620B730BEE
:10539000840BBAF09150A1F0FF0FBB1F661F771F5F
:1053A000881FC2F70EC0BA0F621F731F841F48F414
:1053B000879577956795B795F7959E3F08F0B0CF9D
:1053C0009395880F08F09927EE0F97958795089584
:1053D0000E94262B08F481E008950E94012A0C9473
:1053E0006F2B0E94682B58F00E94612B40F029F42B
:1053F0005F3F29F00C944A2B51110C94A32B0C9471
:105400005E2B0E94802B68F39923B1F3552391F30F
:10541000951B550BBB27AA2762177307840738F023
:105420009F5F5F4F220F331F441FAA1FA9F335D080
:105430000E2E3AF0E0E832D091505040E695001C34
:10544000CAF72BD0FE2F29D0660F771F881FBB1FEE
:10545000261737074807AB07B0E809F0BB0B802DCC
:10546000BF01FF2793585F4F3AF09E3F510578F0F8
:105470000C944A2B0C94A32B5F3FE4F3983ED4F397
:10548000869577956795B795F7959F5FC9F7880FCC
:10549000911D9695879597F90895E1E0660F771F1E
:1054A000881FBB1F621773078407BA0720F0621BAF
:1054B000730B840BBA0BEE1F88F7E09508950E94DA
:1054C000662A6894B1110C94A32B08950E94882B2E
:1054D00088F09F5798F0B92F9927B751B0F0E1F0B5
:1054E000660F771F881F991F1AF0BA95C9F714C065
:1054F000B13091F00E94A22BB1E008950C94A22B40
:10550000672F782F8827B85F39F0B93FCCF386959D
:1055100077956795B395D9F73EF4909580957095FA
:1055200061957F4F8F4F9F4F0895E89409C097FB77
:105530003EF490958095709561957F4F8F4F9F4F6A
:105540009923A9F0F92F96E9BB279395F6958795AE
:1055500077956795B795F111F8CFFAF4BB0F11F471
:1055600060FF1BC06F5F7F4F8F4F9F4F16C0882318
:1055700011F096E911C0772321F09EE8872F762F4E
:1055800005C0662371F096E8862F70E060E02AF08F
:105590009A95660F771F881FDAF7880F969587957B
:1055A00097F908950E94612B20F019F00E94682B52
:1055B00050F40C945E2B0C94A32BE92F0E94802BAB
:1055C00088F35523B1F3E7FB621773078407950748
:1055D000A8F189F3E92FFF2788232AF03197660F76
:1055E000771F881FDAF7952F5527442332F0915003
:1055F0005040220F331F441FD2F7BB27E91BF50B86
:10560000621B730B840BB109B1F222F4620F731F9A
:10561000841FB11D31972AF0660F771F881FBB1FAB
:10562000EFCF9150504062F041F0882332F0660F86
:10563000771F881F91505040C1F793950C94502BC1
:105640008695779567959F5FD9F7F7CF990F0008F3
:10565000550FAA0BE0E8FEEF16161706E807F90744
:10566000C0F012161306E407F50798F0621B730BDF
:10567000840B950B39F40A2661F0232B242B252B60
:1056800021F408950A2609F4A140A6958FEF811D03
:10569000811D089597F99F6780E870E060E00895A4
:1056A0009F3F31F0915020F4879577956795B79596
:1056B000880F911D9695879597F908959FEF80EC37
:1056C000089500240A941616170618060906089568
:1056D00000240A9412161306140605060895092ECE
:1056E0000394000C11F4882352F0BB0F40F4BF2B3D
:1056F00011F460FF04C06F5F7F4F8F4F9F4F08957D
:1057000057FD9058440F551F59F05F3F71F0479572
:10571000880F97FB991F61F09F3F79F08795089557
:10572000121613061406551FF2CF4695F1DF08C076
:10573000161617061806991FF1CF86957105610593
:1057400008940895E894BB2766277727CB0197F93B
:1057500008950E94262B08F48FEF08950E94C12B14
:105760000C946F2B0E94612B38F00E94682B20F064
:10577000952311F00C944A2B0C945E2B11240C945D
:10578000A32B0E94802B70F3959FC1F3950F50E0DF
:10579000551F629FF001729FBB27F00DB11D639FE3
:1057A000AA27F00DB11DAA1F649F6627B00DA11D89
:1057B000661F829F2227B00DA11D621F739FB00D2F
:1057C000A11D621F839FA00D611D221F749F33279F
:1057D000A00D611D231F849F600D211D822F762F38
:1057E0006A2F11249F5750409AF0F1F088234AF015
:1057F000EE0FFF1FBB1F661F771F881F9150504081
:10580000A9F79E3F510580F00C944A2B0C94A32BD2
:105810005F3FE4F3983ED4F3869577956795B79507
:10582000F795E7959F5FC1F7FE2B880F911D969521
:10583000879597F90895FA01EE0FFF1F309621051D
:105840003105A1F16115710561F48038BFE39B0753
:1058500049F168949038810561F08038BFEF9B076B
:1058600041F099234AF5FF3FE1053105210519F182
:10587000E8940894E795D901AA2329F4AB2FBE2F09
:10588000F85FD0F310C0FF5F70F4A695E0F7F7392A
:1058900050F019F0FF3A38F49F779F930DD00F9096
:1058A00007FC9058089546F00C945E2B60E070E081
:1058B00080E89FE308954FE79F775F934F933F936F
:1058C0002F930E94162D2F913F914F915F910E942F
:1058D000AE2B0C94732C29F416F00C944A2B0C94D8
:1058E000A22B0C945E2B0E94882BA8F39638A0F76D
:1058F00007F80F92E8942BE33AEA48EB5FE70E943F
:10590000C42B0F920F920F924DB75EB70F920E9469
:105910005E2DECEAF0E00E94A52C4F915F91EF9193
:10592000FF91E595EE1FFF1F49F0FE57E068442701
:10593000EE0F441FFA95E1F74195550B0E94D82CC4
:105940000F9007FE0C94CC2C0895DF93CF931F93F8
:105950000F93FF92EF92DF927B018C01689406C057
:10596000DA2EEF010E94C12BFE01E894A59125914A
:10597000359145915591A6F3EF010E949329FE01BF
:105980009701A801DA9469F7DF90EF90FF900F91EB
:105990001F91CF91DF9108959B01AC0160E070E011
:1059A00080E89FE30C94ED290C944A2B0C94502B27
:1059B0000E94882BD8F39923C9F3940F511DA3F3A8
:1059C0009150504094F059F0882332F0660F771FC1
:1059D000881F91505040C1F79E3F51052CF7880F0A
:1059E000911D9695879597F908955F3FACF0983E85
:1059F0009CF0BB27869577956795B79508F4B160BD
:105A00009395C1F7BB0F58F711F460FFE8CF6F5FB4
:105A10007F4F8F4F9F4FE3CF0C94A32B16F00C9426
:105A2000502B0C945E2B68940C944A2B0E94882B6C
:105A3000A8F39923C1F3AEF3DF93CF931F930F9392
:105A4000FF92C92FDD2788232AF02197660F771F41
:105A5000881FDAF720E030E040E85FEB9FE3883909
:105A600020F0803E38F021968F770E947C29E4ED6B
:105A7000F0E004C00E947C29E1E0F1E00E94A52C46
:105A80008B01BE01EC01FB2E6F5771097595771FD5
:105A9000880B990B0E94972A28E132E741E35FE3E4
:105AA0000E94C12BAF2D9801AE01FF900F911F9165
:105AB000CF91DF910E9493290C946F2BFA01DC01A6
:105AC000AA0FBB1F9B01AC01BF5728F42227332725
:105AD0004427507820C0B75190F4AB2F002446954E
