:100000000C94D5030C941C040C941C040C941C0438
:100010000C941C040C941C040C941C040C941C04E0
:100020000C941C040C941C040C94322D0C94052E7E
:100030000C9481240C941C040C941C040C941C043B
:100040000C941C040C941C040C941C040C941C04B0
:100050000C941C040C94E7240C941C040C941C04B5
:100060000C941C040C941C040C941C040C941C0490
:100070000C941C040C941C040C941C040C941C0480
:100080000C946B0C0C941C040C941C040C941C0419
:100090000C941C040C941C040C941C040C941C0460
:1000A0000C941C040C941C040C941C04076342362E
:1000B000B79BD8A71A39685618AEBAAB558C1D3CF9
:1000C000B7CC5763BD6DEDFD753EF6177231BF00BD
:1000D0000000803F08000000BE922449123EABAAF7
:1000E000AA2ABECDCCCC4C3E00000080BEABAAAA52
:1000F000AA3E00000000BF000000803F000000009A
:1001000000084178D3BB4387D1133D190E3CC3BDD2
:100110004282AD2B3E68EC8276BED98FE1A93E4C7F
:1001200080EFFFBE01C4FF7F3F000000000053616D
:1001300072616820482E204D634772617468004DDB
:100140006F64653A205157455254590A002B0014E8
:10015000001A000800150017001C0018000C0012FF
:100160000013002A00296104001600070009000A94
:10017000000B000D000E000F0033003400E1001DE5
:10018000001B0006001900050011001000360037A2
:100190000038002872175CE000E200E300E75C2C06
:1001A000002C00E85C000F0007E600E400010053AB
:1001B00000520000002602270267005F0060006115
:1001C0000062002A000100500051004F000000238F
:1001D0000257005C005D005E00550063000100B244
:1001E000000000000021022202560059005A005B64
:1001F000005400580001000100010001000100014D
:10020000000100010001000100010001000100F4F3
:1002100000F000F500AF00AA00A900B300B500018E
:1002200000F90001000100F200F100F300AC00ABA6
:1002300000BC00BB000100FB00FA00FC000100F75D
:1002400000F600F800AD00AE00A800B100FD00FE11
:1002500000FF000100010001000100010001000198
:100260000001000100010001000100010035021E33
:10027000021F02200221022202230224022502265A
:100280000227024C0001003A003B003C003D003ECA
:10029000003F002D022E022F0230023102010040E9
:1002A00000410042004300440045000100010001FC
:1002B0000001000100010001000100010001000136
:1002C00000010001005000510052004F0035001E97
:1002D000001F00200021002200230024002500260A
:1002E00000270001000100680069006A006B006CD3
:1002F000006D002D002E002F003000310001006E37
:10030000006F0070007100720073000100010001B5
:1003100000010001000100010001000100010001D5
:1003200000010001004A004E004B004D000100009A
:100330005C015C0100010064003200010001004723
:10034000004800490001001E5C1F5C0100460001DE
:1003500000010001000100A5006600B0000100E6F8
:100360005C0153010001000100010002530100A6DD
:1003700000A70001000100010001000100010001CF
:1003800000010001000100BE00BD00010044454223
:1003900055473A20656E61626C65642E0A00000064
:1003A0000000000000002A2B2800000000000000D0
:1003B00000000000000000000029000000002C1ECA
:1003C0003420212224342627252E362D3738271E87
:1003D0001F202122232425263333362E37381F04AD
:1003E00005060708090A0B0C0D0E0F101112131445
:1003F00015161718191A1B1C1D2F3130232D350403
:1004000005060708090A0B0C0D0E0F101112131424
:1004100015161718191A1B1C1D2F3130354C0000EA
:1004200000000000000000000000000000000000CC
:1004300000000000000000000000000000000001BB
:1004400001010101010001010101000000000000A3
:100450000000000000000000010001000101010196
:10046000010101010101010101010101010101017C
:100470000101010101010101010000000101000071
:10048000000000000000000000000000000000006C
:1004900000000000000000000001010101000A004E
:1004A0002530313662003A200025303258000A7279
:1004B0002F632030313233343536373839414243B7
:1004C0004445460A00617564696F20706C6179204B
:1004D0006E6F746520667265713D256420766F6C61
:1004E0003D256400617564696F2073746F70206EC0
:1004F0006F746520667265713D256400617564697D
:100500006F2073746F7020616C6C206E6F746573F4
:10051000000A002530325820006B6579626F6172E5
:10052000645F7265706F72743A20000A0025303281
:1005300058006B6579626F6172645F7365745F6C9C
:1005400065643A200064656C5F6B65795F6269740D
:100550003A2063616E27742064656C3A202530323E
:10056000580A006164645F6B65795F6269743A2060
:1005700063616E2774206164643A20253032580A22
:1005800000290A002575002F002575005D2800252B
:1005900064002000256400200025640020002564FC
:1005A000007C0025303258006D6F7573656B65797E
:1005B000205B62746E7C782079207620685D2872DA
:1005C00065702F61636C293A205B005B735D004BA3
:1005D0006579626F6172642073746172742E0A00AF
:1005E0005B575D005B535D005B525D005B445D00EB
:1005F0005B435D000403300000000E0350006C00FC
:1006000061006E0063006B0000000A034F004C00A5
:100610004B00420000000403090409025B000301CF
:1006200000A0FA09040000010301010009211101E1
:1006300000012240000705810308000A09040100A7
:10064000010300000009211101000122C00007057B
:10065000820320000A0904020002030000000921AD
:100660001101000122220007058303200001070574
:1006700003032000011201100100000008EDFE60DC
:10068000600400010203010631FF0974A10109752C
:10069000150026FF009520750881020976150026B1
:1006A000FF00952075089102C005010902A101858E
:1006B000020901A100050919012905150025019567
:1006C0000575018102950175038101050109300954
:1006D000311581257F950275088106093815812518
:1006E0007F950175088106050C0A38021581257F62
:1006F000950175088106C0C005010980A101850327
:100700001601002603001A81002A83007510950146
:100710008100C0050C0901A1018504160100269C79
:10072000021A01002A9C02751095018100C0050182
:100730000906A1018505050719E029E7150025012E
:1007400095087501810205081901290595057501AE
:1007500091029501750391010507190029EF150014
:10076000250195F075018102C005010906A1010569
:100770000719E029E7150025019508750181029503
:100780000175088101050819012905950575019173
:10079000029501750391010507190029FF1500262F
:1007A000FF00950675088100C00011241FBECFEF21
:1007B000DAE0DEBFCDBF04B603FE27C0809103069A
:1007C00090910406A0910506B09106068730904BE3
:1007D000A740B04BD1F41092030610920406109279
:1007E00005061092060614BE84B7877F84BF0FB635
:1007F000F894A895809160008861809360001092C1
:1008000060000FBEE0E0F8E3099514E0A0E0B1E07D
:10081000E4EBFAE602C005900D92A638B107D9F7CD
:1008200026E0A6E8B4E001C01D92A330B207E1F7CC
:100830000E94552A0C9401350C940000FF93EF930D
:10084000E0918604F0918704309709F00995EF91C3
:10085000FF910895FC018591803011F0EFDFFBCF0F
:100860000895FF27E0E230E247FF0CC0419597FF73
:1008700009C0EDE26095709580959095611D711DA0
:10088000811D911D27FF02C0219530E350E2AA2768
:10089000660F771F881F991FAA1FA41710F0A41BAB
:1008A00063955A95A9F7AA3008F0A95FA05DAF93A8
:1008B000F395611571058105910541F7ED3211F44C
:1008C000EF93F395F21718F43F93F395FBCF8F91C5
:1008D000B5DFFA95E1F70895E991F99185918030B6
:1008E00021F0853219F0AADFF9CF089520E0E894CD
:1008F00055915532C1F3503311F4689455915A33E0
:1009000048F4505390F3220F022E220F220F200D95
:10091000250FF4CF0EF4219589919991533619F34F
:10092000533729F1533559F1BC0188279927E894A9
:100930005C3621F48991999168945591543639F433
:1009400046EF7EF077FF0DC08FEF9FEF0AC055375F
:100950004AE039F0583540E121F0523642E009F0E2
:100960000895FF93EF937DDFEF91FF91B7CFFF9352
:10097000EF93FC0181918030B9F360DFFBCFFF93EF
:10098000EF9368DFF1CFDF93CF93CDB7DEB7259636
:10099000A3DFCF91DF9108956E9A769A0C94810A25
:1009A000CF93FB01873E2CE59207B1F0883E2CE502
:1009B0009207F1F0C1E0863E9C4559F4C281CC23F8
:1009C00041F08FE391E00E942A0480E00E949605A6
:1009D000C0E08C2FCF910895C28183E0CC2359F0E1
:1009E0000E94C32045E064E083E00E940A06F0CF45
:1009F000C28184E0F3CF0E94E42045E064E083E01C
:100A00000E940A06E6CF80912005882379F1809123
:100A10001E0590911F050E94BD24853F914030F135
:100A2000109220050E946016809114059091150582
:100A30004697E1F480911605909117050B97B1F454
:100A40008091180590911905409781F480911A05BD
:100A500090911B0520911C0530911D05822B932B35
:100A6000892B21F48EE291E00C949305089581E0A6
:100A700008950C94D004CF9390E0FC01E256FC4F13
:100A8000C491825E9B4FFC018491882369F081EEC2
:100A90000E9498188C2F0E9498188C2F0E94A119E0
:100AA00081EECF910C94A1198C2F0E9498188C2F55
:100AB000F8CFFF920F931F93CF93DF938C01F62E05
:100AC000F8018491882349F1E8012196813049F4A5
:100AD000FE011491812F0E949818812F0E94A11964
:100AE00006C0823089F4FE0184910E9498188E011C
:100AF0000F5F1F4F8F2D815018F3EFE9FFE0319703
:100B0000F1F700C00000F7CF833019F4FE018491A3
:100B1000E5CF0E943B05E801EACFDF91CF911F911D
:100B20000F91FF90089560E00C945905CF93DF93E7
:100B3000C82F20E8829FC001112440E060E170E0EE
:100B40008C5F9E4F0E948B0F61E070E0CB0102C072
:100B5000880F991FCA95E2F7EC010E941323BE018A
:100B600090E080E0DF91CF910C9461208F929F9272
:100B7000AF92BF92CF92DF92EF92FF920F931F93AB
:100B80006B017C0181E090E0A0E0B0E04C015D01F0
:100B900004C0880C991CAA1CBB1C4A95D2F7B5014D
:100BA000A4014C015D0104C0880C991CAA1CBB1C4B
:100BB0002A95D2F7482959296A297B2904C0880F28
:100BC000991FAA1FBB1F0A95D2F78A019B010C210E
:100BD0001D212E213F21041715072607370789F409
:100BE0008C299D29AE29BF29BC01CD011F910F91F0
:100BF000FF90EF90DF90CF90BF90AF909F908F903D
:100C0000089580959095A095B0958C219D21AE2159
:100C1000BF21EACF0F93382F262F6091870570915F
:100C200088058091890590918A05042F432F0E94A1
:100C3000B6050F910C949D200E940023811102C0E3
:100C40000E947C230E9407100C94CC040E94A614DE
:100C50000C94820A08950C942A060C942B0608958D
:100C6000CF93DF930E949F1C0E9474140E94B124B2
:100C7000EC0140E063E070E084EB91E00E948B0FB8
:100C80000E942F06CE010E94BD248A3F910530F0BC
:100C90000E944A10DF91CF910C940B258FE99FE0C1
:100CA0000197F1F700C00000EDCFFF920F931F9363
:100CB000CF93DF938C01FC01C081D18180913005FD
:100CC000811157C08281882309F44EC0CE010E9451
:100CD000B321F82E682FCE010E945F21BE018F2D17
:100CE0000E941408EC01B8010E943905882309F418
:100CF0009BC0B801CE010E94200C882309F494C047
:100D0000B801CE010E940A15882309F48DC0B801EC
:100D1000CE010E948716882309F486C0C73DFCE5F2
:100D2000DF0709F427C108F041C0C531ECE5DE0753
:100D300028F5C230FCE5DF0708F099C0C1158CE545
:100D4000D80709F46CC0C130DC4509F474C081E0F7
:100D500080938D0480938E04C801DF91CF911F9101
:100D60000F91FF900C943705CE010E948B21F82E35
:100D7000B5CFCE010E94B321BE01B2CFC631DC4552
:100D800031F70E949A22F8019281992309F43EC119
:100D90008A7A91E009F490E090938804811134C13B
:100DA00089E20E9423220E9467223EC0CC3D8CE54E
:100DB000D80709F44EC020F5C83DFCE5DF0709F46B
:100DC00000C1C93DDC4519F6F80182818111FDC0E1
:100DD00080918E04811116C180918B0490918C04B6
:100DE0000E94BD24883C910508F00CC180E20E945D
:100DF000FE1988E20E94981888E20E94A11914C086
:100E0000CD3DECE5DE0769F1CE3DDC4509F09FCF35
:100E1000F8018281882341F00E947C2305C0F801FB
:100E2000828181110E94300680E0DF91CF911F9175
:100E30000F91FF900895F80182818823A9F3809192
:100E4000B40581608093B4058DE893E00E942A0484
:100E5000EBCFF8018281882339F380E00E94FC2ADD
:100E6000E3CFF80182818823F9F282E0F7CFF8011D
:100E70008281882309F470CF0E940023811102C06F
:100E80000E947C230E94182390E09093F5058093A4
:100E9000F405FE01E350FC45E231F10520F4ED5F7D
:100EA000FA4C0C94FA338091F40581608093F40538
:100EB00028C08091F4058260F9CF8091F4058460A8
:100EC000F5CF8091F4058860F1CF8091F4058061C1
:100ED000EDCF8091F4058062E9CF8091F4058064C4
:100EE000E5CF8091F4058068E1CF8091F4058C60B6
:100EF0008093F40540E064E070E084E891E00E94B3
:100F00008B0F8091F4050E941C230E949F1C8CCFA4
:100F10008091F4058E7FCACF8091F4058D7FC6CF76
:100F20008091F4058B7FC2CF8091F405877FBECF7F
:100F30008091F4058F7EBACF8091F4058F7DB6CF76
:100F40008091F4058F7BB2CF8091F4058F77AECF7F
:100F50008091F405837F8093F40540E062E070E0C7
:100F600084EA91E0CCCF9091F405892F97FB87F923
:100F700080589CCFF8018281882361F010928D0403
:100F80000E94B12490938A048093890482E00E9495
:100F9000F7194ACF80918D0481110FC08091890487
:100FA00090918A040E94BD24883C910530F486E229
:100FB0000E94981886E20E94A11982E00E94FE1900
:100FC00033CFF8018281882351F010928E040E9461
:100FD000B12490938C0480938B0480E2D8CF8091CD
:100FE0008E0481110FC080918B0490918C040E941B
:100FF000BD24883C910530F487E20E94981887E26E
:101000000E94A11980E2DACF85E3CBCE80918804DB
:10101000811104C089E20E942A22C5CE85E3FBCF5C
:1010200090E080E008950895972F70E02CE0929F63
:10103000600D711D1124FB0190E3899FE00DF11DEE
:101040001124EE0FFF1FE35BFE4F859194910895ED
:10105000FC01EE0FFF1FE256FB4F8591949108951E
:10106000CF93DF930E9414080E94E309EC018115DD
:1010700020E5920708F042C0811530E4930708F09C
:1010800014C1883E910528F5803E910508F0A0C066
:10109000883A910588F4853A910508F08FC081302F
:1010A000910509F495C0009709F492C0049708F0DF
:1010B0008FC0D0E0C0E08CC08F3B910508F48CC09D
:1010C000805C9109C03CD105A0F30E942808EC0186
:1010D0007FC08115904250F4C11581E0D80708F017
:1010E00077C0C03FD10528F3D06572C0C11590E329
:1010F000D90708F0D0C0CE019F70E7CF811525E554
:10110000920758F5811534E5930708F0FDC0811565
:1011100042E5940750F4C11581E5D80708F4C8C02A
:10112000DC2FCC27C16FD06A53C0982F9695969527
:101130009E0123703327C115D34508F0D6C0C1E006
:10114000D0E002C0CC0FDD1F2A95E2F720E2929F8B
:10115000C0011124C82BD92BC6C0C11589E5D807F9
:10116000A8F4C11598E5D90708F0D3C0C11526E544
:10117000D20708F09ECF8C2F0E945E0AC82FD0E0C5
:10118000DC2FCC27CC27DF71D06222C0CE01C11565
:101190003AE5D30708F4C2C090568115904208F092
:1011A00088CF8D2F8F710E945E0A90E0982F88273C
:1011B00088279F719C012C2BE901E6CF853A910588
:1011C00009F4B6C0863A910509F0B5C0C2E8D0E48A
:1011D000CE01DF91CF910895883A910509F4AEC010
:1011E000893A910509F4ADC08A3A910509F4ACC079
:1011F0008B3A910509F4ABC08C3A910509F4AAC069
:101200008B3B910509F4A9C08C3B910509F4A8C05A
:101210008D3A910509F4A7C0803B910509F4A6C059
:101220008E3A910509F4A5C08F3A910509F4A4C03E
:10123000813B910509F4A3C0823B910509F4A2C04A
:10124000833B910509F4A1C0843B910509F4A0C03A
:10125000853B910509F49FC0863B910509F49EC02A
:10126000873B910509F49DC0883B910509F49CC01A
:10127000893B910509F49BC08D3B910509F49AC007
:101280008E3B910509F499C08A3B910509F498C0F9
:10129000C0E0D4E49DCFCE019927D3FF03C0EC0179
:1012A000D86C96CFEC01D06C93CFDF70D06A90CF22
:1012B000CE01E4E096958795EA95E1F783702C2FAF
:1012C00026952695237090E2299F90011124382BB2
:1012D0008C2F8370C1E0D0E002C0CC0FDD1F8A9557
:1012E000E2F7C22BD32BDC6873CFC1E0D0E002C0A1
:1012F000CC0FDD1F2A95E2F730E2939FC001112445
:10130000C82BD92BDA6864CFD82FCC27C46FD06A0A
:101310005FCFDC2FCC27C06FD06A5ACF34E09695D0
:1013200087953A95E1F78F70CF70C06ED82FBECFFA
:10133000C1E8D0E44DCFC3E8D0E44ACFC2EED4E454
:1013400047CFC9EED4E444CFCAEED4E441CFC5EBD5
:10135000D4E43ECFC6EBD4E43BCFC3EBD4E438CFE8
:10136000C4EBD4E435CFC7EBD4E432CFCCECD4E437
:101370002FCFCDECD4E42CCFC3E8D5E429CFCAE8F5
:10138000D5E426CFC2E9D5E423CFC4E9D5E420CF04
:10139000C1E2D6E41DCFC3E2D6E41ACFC4E2D6E45C
:1013A00017CFC5E2D6E414CFC6E2D6E411CFC7E228
:1013B000D6E40ECFCFE6D4E40BCFC0E7D4E408CF19
:1013C000CAE2D6E405CF8238910549F1B0F4813301
:1013D000910509F462C048F48932910509F456C0B8
:1013E0008A32910509F460C008958533910509F4A6
:1013F00046C08933910599F00895833E910531F1F6
:1014000038F4803E910591F0823E9105B1F0089547
:10141000863E910521F1873E910551F10895209175
:10142000F4052370D9F080EE90E008952091F40542
:1014300020FF14C089E390E008952091F40522FF75
:101440000DC024FD09C083EE90E008952091F405BD
:1014500022FD31C024FF02C090E080E00895209179
:10146000F40523FFFBCF24FDF7CF87EE90E008952E
:101470002091F40523FFEECF86EE90E008952091B1
:10148000F40525FFEBCF89E290E008952091F40563
:1014900025FFE4CF85E390E008952091F40526FF31
:1014A000DDCF8AE290E008952091F40526FFD6CFA3
:1014B00081E390E0089582EE90E008959091F40524
:1014C00092FF06C0282F2871283069F4877F846036
:1014D00093FF06C0282F2871283161F4877E84612C
:1014E00094FD877E0895282F2471243089F78B7FFF
:1014F0008860EECF282F2471243191F78B7E88618C
:10150000EFCF08950C940305CF93DF93A2E2B4E0EC
:1015100026E234E061E070E09D91E92FE295EF7002
:10152000F0E041A19F70EB0102C0CC0FDD1F9A9546
:10153000E2F7CE018095842381A32A173B0761F748
:10154000A6E1B4E042E254E0C1E0D0E08D91E82FA2
:10155000E295EF70F0E061A18F709E0101C0220F53
:101560008A95EAF7922F9095962391A382A1822BD8
:1015700082A34A175B0751F71092980410929704C0
:101580001092900410928F0410929A041092990471
:10159000109292041092910410929C0410929B0459
:1015A000109294041092930410929E0410929D0441
:1015B000109296041092950484E00E94CC0BDF9167
:1015C000CF910C941C064F925F927F928F929F92C4
:1015D000AF92BF92CF92DF92EF92FF920F931F9341
:1015E000CF93DF9397E9492E94E0592E22E2E22E21
:1015F00024E0F22E20E0CC24C394D12CE201899087
:1016000099902E01DE011E921E92F70181917F01B9
:10161000E82FE295EF70F0E091A18F70B60101C064
:10162000660F8A95EAF7892F862B81A382A1362F30
:101630003095832382A380EA8A95F1F786E1A82E6C
:1016400084E0B82E50E040E0E50179905E01872DFE
:1016500082958F7090E0EC0188A10D911C911197FB
:1016600090E0D72DDF7002C095958795DA95E2F767
:1016700080FD3FC0C601042E02C0880F991F0A9446
:10168000E2F7082B192B11961C930E934F5F5F4FB7
:101690004C305105C9F681A1382331A382A1682BB2
:1016A00062A381E04D915C914815590509F480E0F1
:1016B000282BEFE94E16E4E05E0609F09FCF44E0E8
:1016C0006FE874E087E994E00E94CD0B0E94260643
:1016D00081E0DF91CF911F910F91FF90EF90DF900C
:1016E000CF90BF90AF909F908F907F905F904F90E2
:1016F000089590E080E0C5CFE82FF0E0EE0FFF1FE7
:10170000E157FB4F808191810895CF92DF92EF9254
:10171000FF920F931F93CF93DF938EEA94E00E9482
:101720002A048FE8E82E84E0F82ED0E0C0E099EAA1
:10173000C92E94E0D92E00EA14E0DF93CF93DF9214
:10174000CF920E94C30486EA94E00E942A04F70123
:10175000819191917F010E94F3229F938F931F9318
:101760000F930E94C3048EE994E00E942A042196FC
:101770008DB79EB708960FB6F8949EBF0FBE8DBF6B
:10178000C430D105D1F6DF91CF911F910F91FF9019
:10179000EF90DF90CF9008950895FF920F931F93DD
:1017A000CF93DF93F82E092F162FD72FC42F222384
:1017B00049F081E08093A1040E94B1249093A00499
:1017C00080939F048091A104882389F080919F04D5
:1017D0009091A0040E94BD24069748F0EF2DF02FB1
:1017E000A12FBD2F80E08C1308C01092A104DF91BF
:1017F000CF911F910F91FF900895219131912D93D9
:101800003D938F5FF0CF8554990BBC01990F880BE6
:10181000990B0E94CB3020E030E040E451E40E947C
:1018200021309B01AC0160E070E080E090E40E9418
:101830004F3220E030E04CED53E40E94E231089555
:10184000FB018E312CE5920739F482818823A1F1C6
:101850000E94BD1180E008958F312CE5920731F48C
:101860008281882349F10E94CD11F4CF80322CE58A
:10187000920741F482818823F9F00E94B911811105
:10188000F2CFE6CF8B322CE5920769F48281882370
:1018900099F00E94E61140E064E070E08CEC91E089
:1018A0000E948B0FD7CF8C329C4531F482818823E4
:1018B00019F00E94EF11EFCF81E008950E94030C10
:1018C0004FE050E00C9441110E94030C0C949110D5
:1018D0000C944A1008951F920F920FB60F92112484
:1018E0004F925F926F927F928F929F92AF92BF9230
:1018F000CF92DF92EF92FF922F933F934F935F939C
:101900006F937F938F939F93AF93BF93EF93FF93C7
:101910008091B504882309F4CAC0E090F704F090E0
:10192000F8041E141F040CF0C2C04090A50450908F
:10193000A6046090A7047090A80420E030E0A901FC
:10194000C301B2010E94DD3118160CF093C121E0F1
:10195000E216F10409F452C08091F5049091F60466
:10196000B7010E94E6336C019093F6048093F5046E
:101970008090B7049090B804A090B904B090BA04D5
:1019800020E030E040E85FE3C501B4010E94B02FE1
:101990006093B7047093B8048093B9049093BA0429
:1019A000F601EE0FFF1FEE0FFF1FE553FB4FA301E4
:1019B000920160817181828193810E94213020E0B7
:1019C00030E040E05EE30E94E2319B01AC01C501E2
:1019D000B4010E94DD3118168CF4C6010196B701DE
:1019E0000E94E6339093F6048093F5041092B704B6
:1019F0001092B8041092B9041092BA04E091F50460
:101A0000F091F604EE0FFF1FEE0FFF1FE553FB4FA3
:101A100060817181828193812091A2043091A3041D
:101A20002F3F320731F02F5F3F4F3093A3042093B5
:101A3000A2040E94F8116B017C0120E034E244EF23
:101A400051E40E941C3087FF08C086EFC82E88E250
:101A5000D82E84EFE82E81E4F82E20E030E040E03C
:101A600051E4C701B6010E94E2319B01AC0160E084
:101A700074E284E79BE40E9421306B017C010E94A8
:101A80009A307093970060939600209135023091C0
:101A900036024091370250913802C701B6010E94C8
:101AA000E2310E949A30709399006093980080917F
:101AB000B604882309F4B4C1C090B104D090B20434
:101AC000E090B304F090B40420E030E0A901C70135
:101AD000B6010E94DD3118160CF091C18091A2046C
:101AE0009091A3048F3F980729F001969093A30447
:101AF0008093A204C701B6010E94F81120E030E0F3
:101B000040E051E40E94E2319B01AC0160E074E2EC
:101B100084E79BE40E9421306B017C010E949A3093
:101B200070939700609396002091350230913602B1
:101B30004091370250913802C701B6010E94E2314C
:101B40000E949A3070939900609398006091AB0462
:101B50007091AC046F5F7F4F7093AC046093AB04E3
:101B6000E0909600F090970090E080E00E94C930ED
:101B70004B015C014090AD045090AE046090AF0406
:101B80007090B004EF2809F443C18091AA04811138
:101B90003FC1609196007091970090E080E00E94B4
:101BA000C9309B01AC01C301B2010E94213020E089
:101BB0003FEF4FE757E40E94E23120E030E040E899
:101BC0005FE30E94AF2FA50194010E941C301816FC
:101BD0000CF426C18091A9048F5F8093A904209101
:101BE000E6053091E7058217130638F08091ED0580
:101BF000882309F41EC11092A904E091E805F09130
:101C0000E9059091A9048091AA04811144C181E061
:101C10008093AA0491509093A90448E0949F900166
:101C20001124E20FF31FC080D180E280F380208571
:101C3000318542855385C701B6010E941C30811150
:101C400021C11092B1041092B2041092B304109208
:101C5000B40480E090E0A0E8BFE38093AD049093EB
:101C6000AE04A093AF04B093B0041092AC041092F1
:101C7000AB04D6C0F701EE0FFF1FEE0FFF1FE953B5
:101C8000FB4F80809180A280B380809134028823B2
:101C900009F4ACC0C090F104D090F204E090F304D9
:101CA000F090F40420E030E0A901C701B6010E94E1
:101CB0001C30882309F49AC0A5019401C701B6011C
:101CC0000E941C3087FF5BC0A501940160E070E0BA
:101CD0008CED93EC0E94213020E030E040E451E4B0
:101CE0000E94213020E030E040E05FE30E94E231DA
:101CF0009B01AC0160E070E080E090E40E944F3214
:101D0000A50194010E94E2319B01AC01C701B6011B
:101D10000E941C3087FF33C0A701960160E070E08D
:101D20008CED93E40E94213020E030E040E451E467
:101D30000E94213020E030E040E05FE30E94E23189
:101D40009B01AC0160E070E080E090E40E944F32C3
:101D50009B01AC01C701B6010E94E2316093F1041E
:101D60007093F2048093F3049093F4046091F1046F
:101D70007091F2048091F3049091F4044DCEA5018A
:101D80009401C701B6010E94DD3118167CF5A5014A
:101D9000940160E070E08CED93E40E94213020E03B
:101DA00030E040E451E40E94213020E030E040E0A7
:101DB0005FE30E94E2319B01AC0160E070E080E0F3
:101DC00090E40E944F32A50194010E94E2319B01F0
:101DD000AC01C701B6010E94DD3118163CF4A70121
:101DE000960160E070E08CED93EC9CCF8092F10462
:101DF0009092F204A092F304B092F404B7CF109240
:101E000097001092960010929900109298009ECE22
:101E1000A3019201C501B4010E94DD3187FFDACE32
:101E20008091EA0580FD11C01092B6041092B504AD
:101E30000CC0809171008D7F809371008091900023
:101E40008F73809390001092B604FF91EF91BF9131
:101E5000AF919F918F917F916F915F914F913F9142
:101E60002F91FF90EF90DF90CF90BF90AF909F9019
:101E70008F907F906F905F904F900F900FBE0F905C
:101E80001F901895C092B104D092B204E092B304AE
:101E9000F092B404DECE1092AA041092A304109221
:101EA000A20428E0929FC0011124E80FF91F80814D
:101EB0009181A281B3818093B1049093B204A093E5
:101EC000B304B093B40420E030E040E85EE3648102
:101ED0007581868197810E94E2316B017C0160915E
:101EE000390270E090E080E00E94C93020E030E0EC
:101EF00048EC52E40E9421309B01AC01C701B601BD
:101F00000E94E2316093AD047093AE048093AF04FD
:101F10009093B004AACECF92DF92EF92FF92CF932C
:101F2000DF93EC016B01F42E8091A404811102C0B7
:101F30000E9407108091EA0580FF62C080917100C5
:101F40008D7F809371008091B50481110E944A10A9
:101F500081E08093B604D093E905C093E805D09260
:101F6000E705C092E605F092ED051092B7041092D5
:101F7000B8041092B9041092BA041092A90488818E
:101F80009981AA81BB818093B1049093B204A093FC
:101F9000B304B093B40420E030E040E85EE36C8129
:101FA0007D818E819F810E94E2316B017C01609175
:101FB000390270E090E080E00E94C93020E030E01B
:101FC00048EC52E40E9421309B01AC01C701B601EC
:101FD0000E94E2316093AD047093AE048093AF042D
:101FE0009093B0041092AC041092AB0480917100F5
:101FF000826080937100809190008068809390004F
:10200000DF91CF91FF90EF90DF90CF9008950E94E5
:102010000023811102C00E947C230E94212380930F
:10202000EA058091A404811129C03E9A8091710033
:102030008D7F8093710082E0809390008AE180938D
:10204000910081EC91E1909397008093960023EAB0
:102050003BE04EE855E46091350270913602809184
:102060003702909138020E94E2310E949A307093B8
:1020700099006093980081E08093A4048091EA0520
:1020800080FF07C040E065E070E08CE092E00C94D7
:102090008B0F08958091B40580FF08C08CEF94E009
:1020A0009F938F930E94C3040F900F908091A4047C
:1020B000811102C00E9407101092F8041092F704D8
:1020C000809171008D7F80937100809190008F735B
:1020D000809390001092B6041092B5041092F1040F
:1020E0001092F2041092F3041092F4041092ED0492
:1020F0001092EE041092EF041092F0041092EC048F
:102100001092EB04EBECF4E0ABEBB4E01192119223
:10211000119211921D921D9284E0EB3EF807B1F7E7
:102120000895CF92DF92EF92FF920F931F93CF9378
:10213000DF936B017C018091B40580FF0FC0C70164
:102140000E9493307F936F9384EE94E09F938F93DC
:102150000E94C3040F900F900F900F908091B504D0
:10216000882309F467C08091A404811102C00E94F1
:1021700007100BEC14E0C7E0D0E0A7019601F801CE
:10218000648D758D868D978D0E941C3081116CC079
:10219000FE01EE0FFF1FEE0FFF1FE553FB4F1082F6
:1021A000118212821382CC0FDD1FC554DB4F1982BE
:1021B000188284E0E73EF80709F045C08091F704F3
:1021C0009091F804019797FD57C09093F80480937D
:1021D000F7048091F7049091F8042091F504309170
:1021E000F6042817390724F01092F6041092F5042B
:1021F000892B01F5809171008D7F80937100809112
:1022000090008F73809390001092F1041092F2046A
:102210001092F3041092F4041092ED041092EE0464
:102220001092EF041092F0041092EC041092EB0460
:102230001092B504DF91CF911F910F91FF90EF9015
:10224000DF90CF90089584819581A681B781819395
:102250009193A193B19310821182128213828A8189
:102260009B8189939993A3CF219704501109CF3F64
:10227000DC0709F082CFA2CF1092F8041092F70485
:10228000A8CFCF92DF92EF92FF92CF93DF936B01B3
:102290007C01D42FC52F8091B40580FF13C05F93BC
:1022A0004F93C7010E9493307F936F9385EC94E026
:1022B0009F938F930E94C3040F900F900F900F90E5
:1022C0000F900F908091A404811102C00E9407100A
:1022D0008091EA0580FF46C08091F7049091F80450
:1022E00008970CF03FC0809171008D7F8093710042
:1022F0008091B60481110E944A1081E08093B50458
:102300001092A3041092A20420E030E0A901C701BA
:10231000B6010E94DD311816DCF48091F70490912B
:10232000F804FC01EE0FFF1FEE0FFF1FE553FB4FFC
:10233000C082D182E282F382FC01EE0FFF1FE554DE
:10234000FB4FD083C18301969093F8048093F704E8
:10235000809171008260809371008091900080680C
:1023600080939000DF91CF91FF90EF90DF90CF901E
:1023700008958091EA05817008958091EA05816051
:102380008093EA050E9425230E946A0C40E062E0E7
:1023900070E08CEF91E00C948B0F40E062E070E015
:1023A0008CEE91E00E948B0F2FEF81EE94E0215094
:1023B00080409040E1F700C000000E944A108091E8
:1023C000EA058E7F8093EA050C9425238091F90419
:1023D00090E00196877099278093F9040895809181
:1023E000F90490E00796877099278093F90408957F
:1023F0008F929F92AF92BF92CF92DF92EF92FF9215
:10240000CF93DF936B017C01C091A204D091A30410
:10241000BE0190E080E00E94C9304B015C01A70141
:10242000960160E070E08CE594E40E9421309B010D
:10243000AC01C501B4010E94E2310E949A309B01B7
:10244000E091F904E830D8F4F0E0EB5EFA4C0C943B
:10245000FA331092340280E090E0A0E0BFE3809372
:10246000350290933602A0933702B093380210924F
:10247000A5041092A6041092A7041092A804C70104
:10248000B601DF91CF91FF90EF90DF90CF90BF909A
:10249000AF909F908F900895109234021092A504EF
:1024A0001092A6041092A7041092A804643171053A
:1024B00080F46A30710580F080E090E0A0E8BEE32F
:1024C0008093350290933602A0933702B09338027E
:1024D000D6CF693C710580F380E090E0A0E0BEE3D8
:1024E000EFCF109234021092A5041092A60410921D
:1024F000A7041092A80420E030E040EA52E4C701AB
:10250000B6010E941C3087FDBACF20E030E040E2E7
:1025100053E4C701B6010E941C3087FF3EC00E94F1
:102520004C3468E270E00E94E633BC01645C7F4F8B
:10253000072E000C880B990B0E94CB306B017C019D
:102540008091A2049091A3048B30910508F185310C
:10255000910508F04AC065E170E0681B790B90E0D6
:1025600080E00E94C93020E030E040E05FE30E945C
:10257000E23120E030E040E251E40E9421306093FB
:10258000350270933602809337029093380277CFEA
:1025900080E090E0A0E0BFE393CF20E030E040EAAD
:1025A00053E4C701B6010E941C3087FF27C00E9478
:1025B0004C3468EE73E00E94E633BC0168517C4FF6
:1025C000072E000C880B990B0E94CB306B017C010D
:1025D0008091A2049091A30486309105C8F265E130
:1025E00070E08531910508F46BC0109235021092AD
:1025F0003602109237021092380241CF20E030E0CC
:1026000040E254E4C701B6010E941C3087FF2FC08E
:102610000E944C3460ED77E00E94E633BC016854C0
:10262000744F072E000C880B990B0E94CB306B0166
:102630007C018091A2049091A3048031910508F45B
:10264000A7CF8531910588F665E170E0681B790BAD
:1026500090E080E00E94C93020E030E040E05FE39D
:102660000E94E23120E030E040EA50E486CF20E0F2
:1026700030E040EA54E4C701B6010E941C3087FFF5
:10268000FECE0E944C3460ED77E00E94E633BC0140
:102690006854744F072E000C880B990B0E94CB30A6
:1026A0006B017C018091A2049091A3048432910576
:1026B00008F46ECF8333910508F097CF63E370E0A1
:1026C000681B790B90E080E00E94C93020E030E088
:1026D00040E05FE30E94E23120E030E040E751E477
:1026E0004CCF41E0409334021092A5041092A6040E
:1026F0001092A7041092A8046431710540F46A3066
:10270000710560F120E030E040E05FE32BC0693C00
:10271000710508F06ACF90E080E00E94C93020E0A7
:1027200030E040EA51E40E94AF2F20E030E044E383
:1027300053E40E9421309B01AC010E94E23120E071
:1027400030E040E05EE30E94E2319B01AC0160E0DA
:1027500070E080E09EE30E94AF2F11CF20E030E0D8
:1027600040E85EE3C701B6010E94E2316B017C01E3
:10277000B3CE21E0209334021092A5041092A60457
:102780001092A7041092A8044AE0469F9001479F28
:10279000300D1124C90168EB7BE00E94D233BC01EB
:1027A0006C5D754077FF03C0719561957109072EC7
:1027B000000C880B990B0E94CB302EE333EC4EE2D9
:1027C00059E30E94E23120E030E040EC5EE30E94F9
:1027D000B02FD5CE81E0809334021092A5041092E0
:1027E000A6041092A7041092A804CE018370992722
:1027F000892B09F1BE016170772790E080E00E948B
:10280000C93020E030E040E05EE30E94E23120E0A9
:1028100030E040E45FE30E94B02F60933502709394
:1028200036028093370290933802C770DD27CD2B94
:1028300009F025CEDACE80E090E0A0E0BFE38093FF
:10284000350290933602A0933702B0933802EDCF51
:1028500041E0409334021092A5041092A604109215
:10286000A7041092A804812C912CA12C9FE3B92ECF
:102870008092350290923602A0923702B0923802CE
:102880002739310508F4FBCD90E080E00E94C93083
:1028900020E030E047E153E40E94AF2F20E030E039
:1028A0004AE754E40E94213020E030E048E452E45A
:1028B0000E94E23120E030E040EA51E40E94113110
:1028C0000E949330660F771F660F771F6A5D7B4FFC
:1028D000FB012081318142815381C701B6010E94F1
:1028E000E2316B017C01CBCD8091120581110C94FA
:1028F000680C08950E9474141092120540E068E07C
:1029000070E08AEB92E00C948B0F1092110540E07E
:1029100068E070E08AE392E00C948B0F0E947414DC
:102920002091DC0330E02F5F3F4F2370332720934B
:10293000DC0348E2429FC001439F900D112440E018
:1029400065E070E0865C9C4F0C948B0FCF93809178
:102950000E05882309F442C08091FA049091FB048B
:10296000009799F50E94B1249093FB048093FA0498
:10297000E091FC048091FD048150990BEE2321F03D
:102980002E2F2150330BC90120911205222389F0EB
:10299000F0E0E250FB4FC08182509B4FFC018081F0
:1029A0000E94640C80911205882319F08C2F0E94DC
:1029B0005E0C8091FC0490E001966091FD0470E053
:1029C0000E94E6338093FC0409C00E94BD2420913C
:1029D000DA033091DB032817390720F2CF910895ED
:1029E000089581E08093120540E068E070E08AEF8E
:1029F00092E00E948B0F0C94F014089581E0809374
:102A0000110540E068E070E08AE792E00E948B0FD9
:102A10000C94FD14EF92FF921F93CF93DF93CDB7E9
:102A2000DEB7A3970FB6F894DEBF0FBECDBF7C0113
:102A300087324CE5940751F4DB0112968C91882380
:102A400009F44DC00E94F11480E0ECC08832BCE56E
:102A50009B0741F4FB018281882309F440C00E9456
:102A60007A14F2CF8932FCE59F0751F48091120568
:102A7000DB0112969C91992391F18111F0CFE2CF65
:102A80008D32BCE59B0739F4FB018281882339F143
:102A90000E94FE14D9CF8E32FCE59F0741F4DB0182
:102AA00012968C918823D9F00E948514CDCF8F3255
:102AB000BCE59B0749F4FB018281882381F080916A
:102AC00011058111F1CFE4CF8A329C4541F4DB013D
:102AD00012968C91882319F00E948E14B5CF209104
:102AE0001205211105C080911105882309F4E5C064
:102AF000FB013281332309F450C0F0EEEF16F104EC
:102B000061F40E94741481E08093100510920F0507
:102B100010920E051092FD0497CF42EEE416F104D8
:102B200071F40E94741480911005882319F081E0DB
:102B300080930F051092100510920E0585CF83EE3D
:102B4000E816F10491F480910F05882331F10E9479
:102B500074141092100581E080930E051092FC040D
:102B60001092FB041092FA046FCF92E5E916F1047B
:102B700051F48091DA039091DB030A979093DB0381
:102B80008093DA0361CFA1E5EA16F10431F4809174
:102B9000DA039091DB030A96F1CF8091DC03109168
:102BA000DF03811111C013508091DD03180FFB0169
:102BB0008081180F418184E090E0841B9109FCE042
:102BC0008F9F100D112414C08130C1F5105E8091CB
:102BD000DD03180FDB018C91180F11964C9184E0E6
:102BE00090E0841B9109982F990F990F890F180F66
:102BF000332309F45BC0222319F0812F0E945E0C5D
:102C000080911005882351F08091FD04E82FF0E0B9
:102C1000E250FB4F10838F5F8093FD0481E0EF282B
:102C200009F012CFA3960FB6F894DEBF0FBECDBF4A
:102C3000DF91CF911F91FF90EF900895823071F452
:102C4000105E8091DD03180FFB018081180F418118
:102C500084E090E0841B9109F7E0B2CF833041F625
:102C600083E2E3EFF3E0DE01119601900D928A9585
:102C7000E1F7DB01EC9181E090E08C0F9D1F8E0F5E
:102C8000911DFC018091DD039091DE03E80FF91F97
:102C900013508081180F11964C9184E090E0841BB2
:102CA0009109ACE08A9F100D1124A2CF222309F4D0
:102CB000B5CF812F0E94640CB1CF81E0B3CF0895CE
:102CC000089580912005811121C00E945F1681E046
:102CD000809320050E94B12490931F0580931E05C8
:102CE00010921305109215051092140510921705F5
:102CF00010921605109219051092180510921B05D6
:102D000010921A0510921D0510921C0508951F932C
:102D1000CF93DF93EC01FB011281111106C011E08A
:102D2000812FDF91CF911F910895809120058823F5
:102D300049F180911E0590911F050E94BD24843F9A
:102D4000914068F7CE019056811520E2920720F05D
:102D5000905E8115904108F4DD2780911305E82FDE
:102D6000F0E0EE0FFF1FEC5EFA4FD183C0838F5F60
:102D7000809313050E94B12490931F0580931E0534
:102D800010E0CECFC731DC4551F60E946116C8CFA6
:102D900090932605809325050895E0912505F091EF
:102DA0002605309721F00190F081E02D099480E014
:102DB0000895EF92FF920F931F93CF93DF93EC014F
:102DC000E0912505F0912605309709F446C08091E1
:102DD000F203882341F08091F40587FF04C08881C5
:102DE000898385E088830280F381E02DCE010995F7
:102DF0008091B40582FF31C080FF04C089E195E075
:102E00000E942A0410E000E083E1E82E85E0F82E1D
:102E10008091B40580FF0EC0FE01E00FF11F80819C
:102E20001F928F93FF92EF920E94C3040F900F9016
:102E30000F900F900F5F1F4F0830110549F78091D9
:102E4000B40580FF0AC081E195E0DF91CF911F9129
:102E50000F91FF90EF900C942A04DF91CF911F9176
:102E60000F91FF90EF900895E0912505F0912605D0
:102E7000309739F022E0DC012C930480F581E02DBD
:102E800009940895209123053091240528173907C6
:102E900071F09093240580932305E0912505F0912E
:102EA0002605309721F00680F781E02D09940895DA
:102EB00020912105309122052817390771F0909350
:102EC000220580932105E0912505F0912605309794
:102ED00021F00084F185E02D0994089585B780687C
:102EE00085BF85B7806885BF089508950E946E17D5
:102EF0000C94751781E008950E94A8240E94840A0A
:102F00000C942F25CF93C82F8091B40582FF1EC04B
:102F100080FF1CC082E395E00E942A048091B405E2
:102F200080FF14C01F92CF938DE295E09F938F9303
:102F30000E94C3048091B4050F900F900F900F90E2
:102F400080FF04C08BE295E00E942A048C2FCF9171
:102F50000C942D065F926F927F928F929F92AF9208
:102F6000BF92CF92DF92EF92FF920F931F93CF9376
:102F7000DF93CDB7DEB72A970FB6F894DEBF0FBE4A
:102F8000CDBF0E94E30A0E947A17882309F47AC011
:102F900098E2A92E95E0B92E10E000E088248394F1
:102FA000912C502E802F0E947C0B7C01F501C1904A
:102FB000D1905F01C816D90609F45EC08091B405AE
:102FC00081FD0E94850B90E080E0CE24DF24340157
:102FD000082E02C0660C771C0A94E2F7960126219F
:102FE0003721232B09F443C08E835F82E620F7202C
:102FF00081E0EF2809F480E088870E94B124816095
:10300000782F9A8789874E815F8168858A850E949B
:103010006918000F111FF801E85DFA4F8081918156
:1030200068267926718260820E943F270E94CD1611
:10303000909127058917B9F10E94CD168093270535
:103040002A960FB6F894DEBF0FBECDBFDF91CF91A9
:103050001F910F91FF90EF90DF90CF90BF90AF90B6
:103060009F908F907F906F905F900C948217019645
:103070008C30910509F0ABCF0F5F1F4F0430110565
:1030800009F08FCF8FEF89838A831B820E94B1243E
:103090008160782F9D838C8349815A816B818D81DA
:1030A0000E946918C1CF2A960FB6F894DEBF0FBEF2
:1030B000CDBFDF91CF911F910F91FF90EF90DF90E7
:1030C000CF90BF90AF909F908F907F906F905F90C8
:1030D0000895CF93DF93CDB7DEB72B970FB6F89453
:1030E000DEBF0FBECDBF4F83588769877A878B8736
:1030F0001E821D8285E0FE013796DE011196019049
:103100000D928A95E1F749815A816B817C818D818D
:103110009E812B960FB6F894DEBF0FBECDBFDF9118
:10312000CF910C943F1FFC01808191810C94F5217B
:10313000882309F405C18238B9F40E94CD1681FDB7
:10314000FFC089E30E9423220E9467222FEF81EEB5
:1031500094E0215080409040E1F700C0000089E3F6
:103160000E942A220C9467228338A1F40E94CD1673
:1031700080FDE6C083E50E9423220E9467222FEF94
:1031800081EE94E0215080409040E1F700C00000C3
:1031900083E5E6CF8438A1F40E94CD1682FDD0C02D
:1031A00087E40E9423220E9467222FEF81EE94E0A1
:1031B000215080409040E1F700C0000087E4D0CF6C
:1031C0009CEF980F913A18F40E942322CBCF90E203
:1031D000980F983050F4877091E001C0990F8A954C
:1031E000EAF7892F0E949D22BDCF9BE5980F93306F
:1031F00070F4853A31F0863A39F083E890E00C9427
:10320000421781E890E0FBCF82E890E0F8CF98E5A4
:10321000980F973108F08EC0883A09F446C0893A71
:1032200009F446C08A3A09F446C08B3A09F446C00C
:103230008C3A09F446C08B3B09F446C08C3B09F438
:1032400046C08D3A09F446C0803B09F446C08E3A28
:1032500009F446C08F3A09F446C0813B09F446C0E0
:10326000823B09F446C0833B09F446C0843B09F421
:1032700046C0853B09F446C0863B09F446C0873BFF
:1032800009F446C0883B09F446C0893B09F446C0AE
:103290008D3B09F446C08E3B09F446C08A3B09F4D5
:1032A00046C090E080E00C94581782EE90E0FBCF8F
:1032B00089EE90E0F8CF8AEE90E0F5CF85EB90E0D4
:1032C000F2CF86EB90E0EFCF83EB90E0ECCF84EB96
:1032D00090E0E9CF87EB90E0E6CF8CEC90E0E3CF95
:1032E0008DEC90E0E0CF83E891E0DDCF8AE891E0DB
:1032F000DACF82E991E0D7CF84E991E0D4CF81E2BF
:1033000092E0D1CF83E292E0CECF84E292E0CBCFC5
:1033100085E292E0C8CF86E292E0C5CF87E292E0F4
:10332000C2CF8FE690E0BFCF80E790E0BCCF8AE2CB
:1033300092E0B9CF803F20F00E94CB250C94B226BA
:103340000895882309F452C0823871F40E94CD1682
:1033500081FF4CC089E30E9423220E94672289E3F7
:103360000E942A220C946722833859F40E94CD16B9
:1033700080FF3CC083E50E9423220E94672283E5F0
:10338000EFCF843859F40E94CD1682FF2FC087E416
:103390000E9423220E94672287E4E2CF9CEF980FCD
:1033A000913AF0F290E2980F983050F4877091E0E3
:1033B00001C0990F8A95EAF7892F0E94A322D2CFE4
:1033C0009BE5980F933020F490E080E00C94421736
:1033D00098E5980F973120F490E080E00C9458170E
:1033E000803F20F00E9433260C94B2260895882353
:1033F00021F00E949D220C9467220895882321F0D9
:103400000E94A3220C94672208958F929F92AF92FC
:10341000BF92CF92DF92EF92FF920F931F93CF93C1
:10342000DF937C01D62FC72FFC01058102950F7019
:10343000128111110E94BA220E946022C82E882394
:1034400071F01123B1F080E28D0F883090F082E0AE
:103450000E944A220E94602291E0C82EC926DC2EDA
:10346000D2949FE0D922ED2DF0E0E35EFA4C0C946B
:10347000FA33C12CF4CF0C2F0F70C07F11F00295DE
:10348000007F1123A9F0002359F080E28D0F8830CE
:1034900010F0D11109C0802F0E949D220E94672246
:1034A0008D2F0E94981814C0802F0E94AD22F6CF55
:1034B0008D2F0E94A119002359F080E28D0F8830D2
:1034C00010F0D11133C0802F0E94A3220E946722E6
:1034D00098E0D91639F0D91648F086EF8D0D8F7027
:1034E000823020F40E94CD160E942D06CC2009F4D3
:1034F000D9C10E943D2280FDD5C1F70112820E94F0
:1035000037220E94C320C7010E945F1C0E943722FD
:10351000DF91CF911F910F91FF90EF90DF90CF90AF
:10352000BF90AF909F908F900C94E420802F0E94CA
:10353000B322CCCFFC2FFF70BF2EC07FC03219F05A
:10354000B29480EFB822DD2369F0D13049F1112324
:1035500091F1002351F1F701858180FFA1CF8F7098
:10356000858323C0112381F0011106C00E94D3225C
:103570008B290E94F719ACCF0130C1F70E94D322EA
:103580008B290E94CD22A4CF011106C00E94D02217
:103590008B2D0E94FE199CCF013009F499CFF6CFF4
:1035A000112329F0063008F093CF8B2DE2CF0530A0
:1035B00008F08ECFEDCF002359F38D2F0E94A11973
:1035C00087CF8C2F86958695837069F0813009F0BE
:1035D0007FCF8D2F9C2F9370111102C090E080E05F
:1035E0000E94581775CF8D2F9C2F9370111102C018
:1035F00090E080E00E9442176BCF112309F1D53F84
:1036000099F0D63FB9F0D43F49F48091EE059091FE
:10361000EF0581609093EF058093EE058D2F0E945A
:10362000CB250E94B22654CF8091EE059091EF05F4
:103630008260F0CF8091EE059091EF058460EACF33
:10364000D53F89F0D63FA9F0D43F49F48091EE05EB
:103650009091EF058E7F9093EF058093EE058D2F6F
:103660000E943326DECF8091EE059091EF058D7F8D
:10367000F2CF8091EE059091EF058B7FECCF8C2FF0
:10368000837009F047C0111123CF2D2F2295269565
:103690002770220F220F6D2F6F70862E912CB12C68
:1036A000A12C022E04C0880C991CAA1CBB1C0A94D5
:1036B000D2F760E070E0CB01D4FF0FC06FE070E0A4
:1036C00080E090E004C0660F771F881F991F2A953D
:1036D000D2F76095709580959095C695C695C37004
:1036E000C23051F080F4682979298A299B29C13098
:1036F00071F00E947520ECCE682979298A299B29CE
:103700000E948720E5CE0E947520C501B4010E9469
:103710006320DECE8695112311F08C2F81708823D3
:1037200009F4D6CE2D2F229526952770220F220F31
:103730006D2F6F70862E912CB12CA12C022E04C0FF
:10374000880C991CAA1CBB1C0A94D2F760E070E09C
:10375000CB01D4FF0FC06FE070E080E090E004C0C8
:10376000660F771F881F991F2A95D2F7609570956D
:1037700080959095C695C695C370C23051F080F47F
:10378000682979298A299B29C13071F00E943A2140
:103790009FCE682979298A299B290E944C2198CE9D
:1037A0000E943A21C501B4010E94282191CEE0E295
:1037B000ED0FE53108F04DC0F0E0E35DFA4C0C94FC
:1037C000FA33DF708C2F8F71112321F00E94C320F8
:1037D0008D2FCFCE0E94E4208D2FDBCE112341F020
:1037E000053008F075CE8C2F8F710E94072170CEA6
:1037F000063008F06DCEF7CF8C2F8F71112339F082
:103800000E94C32065CE8C2F8F711123C9F30E94B3
:10381000E4205ECE112329F08C2F8F710E94AE2000
:1038200057CE0E94A92054CE112349F0CF718C2F7E
:103830000E94C32063E08C2F0E94412249CE81E088
:103840000E944A22023008F443CE82E00E944A22BB
:103850003FCE112329F0011123CE8C2F8F71D0CFB1
:10386000002369F0D93309F0A8CEFFEF27EE83E0FB
:10387000F15020408040E1F700C000009ECE8C2F28
:103880008F71C5CF4C2F4F706D2FC7010E9410084C
:103890000E94D91F1DCE4C2F4F706D2FC7010E9463
:1038A000130816CEDF91CF911F910F91FF90EF90EB
:1038B000DF90CF90BF90AF909F908F9008950F931F
:1038C0001F93CF93DF93EC018B819C81892B29F08F
:1038D0008881998189238F3F29F4DF91CF911F91AE
:1038E0000F910895CE010E9455068823B1F3688197
:1038F00079818A810E94FF218C010E945E210E94B1
:103900006020B801CE01DF91CF911F910F910C94EF
:10391000051A0E94BA220E94CA220E9467220E94AF
:10392000D2270E94B22690E080E00E94421790E0E9
:1039300080E00C9458170E9431220C94891C0E943C
:10394000AA220C949B1CE92FE295EF70E250EE3016
:1039500070F4F0E0EE5BFA4C0C94FA33803F19F00F
:1039600020F4803E20F481E00895843FE1F380E07C
:103970000895803EC0F3813FD1F7F5CF93FB8827B0
:1039800080F908950E94F5210C94A31CCF93DF9336
:1039900000D000D00F92CDB7DEB70F900F900F90F0
:1039A0000F900F90DF91CF910895CF93DF9300D0C8
:1039B00000D000D0CDB7DEB726960FB6F894DEBFA4
:1039C0000FBECDBFDF91CF9108951F93CF93DF93AB
:1039D000C091310516E0809132058C1304C0DF914F
:1039E000CF911F910895D0E01C9FF0011D9FF00D15
:1039F0001124ED5CFA4F4081518162817381848191
:103A000095810E94D51C2196C770E5CF4091630532
:103A10005091640560916505709166058091670518
:103A2000909168050C94D51C1F93CF93DF938091E0
:103A30006805807FC1F4809165058823A1F080919D
:103A40003105C09132056091630570916405409124
:103A5000660550916705D62FD723DA01A095B0955A
:103A600016E0C81304C0DF91CF911F91089590E034
:103A70004115510511F0DF3F31F401968770F1CF08
:103A80002A0F3B1F17C0189FF001199FF00D11243A
:103A9000ED5CFA4F21812713F0CF20812613EDCF63
:103AA00022812111EACF238134812417350740F385
:103AB000241B350B283C310500F7209168052F7039
:103AC00020612093680526E0289FF001299FF00DD2
:103AD0001124E85CFA4F80818F708061808383E6D7
:103AE00095E00E945F1CDF91CF911F910C94E51C23
:103AF000BF92CF92DF92EF92FF920F931F93CF93DB
:103B0000DF93CDB7DEB761970FB6F894DEBF0FBE77
:103B1000CDBF8C0185E0F801DE011D9601900D926C
:103B20008A95E1F7D8014C9111965C911197129604
:103B3000EC9012978091660590916705009709F4C3
:103B40007FC12091630530916405622F63236F3F2D
:103B500009F476C11396CD90DC90B0906505BB203A
:103B600009F411C1C816D906D0F1F601E81BF90B0A
:103B7000CF01FF24F394883C910508F0F12C80914B
:103B80006805982F907FFF2009F4B8C091117FC07D
:103B9000FE2C351329C0241327C0E11025C08F70D7
:103BA0008061809368050E94061D83E695E00E946F
:103BB0005F1C80916805D80115968C938F2D6196B6
:103BC0000FB6F894DEBF0FBECDBFDF91CF911F912E
:103BD0000F91FF90EF90DF90CF90BF900895809568
:103BE00090958C0D9D1DC5CFCD2829F0852F842360
:103BF0008F3F09F041C180E0B82FB170DB2E80FF0C
:103C00003CC0809131052091320536E0821315C009
:103C10004D875E878D859E850E94F521292F2295EF
:103C20002F702230F0F0243018F59F70F1F0F80179
:103C30009581907FD1F4D12C1EC090E0389FF00187
:103C4000399FF00D1124ED5CFA4F6181651306C0B8
:103C50006081641303C06281E6120FC00196877011
:103C6000D5CF9F7011F0882331F3805E883018F330
:103C7000C8010E945F1CFD2CA1CFEE2009F49ECF4D
:103C800080916805816080936805F12C97CF35138A
:103C900006C0241304C0D801EE2009F49AC04D8751
:103CA0005E878D859E850E94C21C882319F1EE20B7
:103CB00009F180916805803270F0209163053091A0
:103CC000640538872F831986DB86CA868C87CE01E8
:103CD00007960E945F1C86E0F801A3E6B5E001901C
:103CE0000D928A95E1F70E94141D0E94061DFF2483
:103CF000F39464CFC8010E945F1CF9CF911113C0E7
:103D00007C2DD98AC88A6E2D89890E94C61C83E6BB
:103D100095E00E945F1C86E0E3E6F5E0DF011D927E
:103D20008A95E9F763C0351312C0241310C0E1105F
:103D30000EC0F8018583C8010E945F1CE3E6F5E030
:103D400086E0DF011D928A95E9F7FB2C37CF4D877E
:103D50005E878D859E850E94C21C882359F2EE20C5
:103D600049F280916805803208F4B5CF209163054F
:103D7000309164053A8329831B82DD82CC828E8355
:103D8000CE010196A6CFC816D90698F1F601E81B18
:103D9000F90BCF01F12C883C910508F049C0FE2CAD
:103DA000EE2009F4A7CF351332C0241330C0809120
:103DB000680580FD23C0982F907F01F1D8011596EA
:103DC0008C931597903F39F0982F907F905F8F706C
:103DD000892B15968C93C8010E945F1C86E0F80120
:103DE000A3E6B5E001900D928A95E1F70E94061DC9
:103DF000E5CE809590958C0D9D1DCCCF86E0F80189
:103E0000A3E6B5E001900D928A95E1F7D7CE4D87F4
:103E10005E878D859E850E94C21C81115CCF80913A
:103E20006805816080936805C8010E945F1CC6CE4A
:103E30007C2DD98AC88A6E2D89890E94C61C6BCFB9
:103E4000EE2009F457CF4D875E878D859E850E94B1
:103E5000C21CF82E882309F44DCF86E0F801A3E6B2
:103E6000B5E001900D928A95E1F783E695E00E9416
:103E700093180E94141DBACF81E08E25BDCE1F93EA
:103E8000CF93DF93CDB7DEB72C970FB6F894DEBF94
:103E90000FBECDBF4F83588769877A878B879C87F2
:103EA000CE0107960E94781D882369F08A859B853C
:103EB000892B39F04F815885842F85238F3F09F056
:103EC00071C016E05FC086E0FE013796DE011196F4
:103ED00001900D928A95E1F78A859B85892B89F35C
:103EE00088859F8189238F3F61F32091320530E0DF
:103EF000C901019687709927409131054817190625
:103F000071F40E949F1C109232051092310586E0D8
:103F1000E3E6F5E0DF011D928A95E9F7D2CF96E05E
:103F2000929FD001939FB00D1124AD5CBA4FFE015A
:103F3000319601900D929A95E1F7809332050E9497
:103F4000E51CBFCF819FC00111248D5C9A4F0E9458
:103F5000781D8823E9F0E09131051E9FF0011124BE
:103F6000ED5CFA4F4081518162817381848195813A
:103F70000E94D51C8091310590E0019687709927A9
:103F80008093310580913105909132058913DACF04
:103F90002C960FB6F894DEBF0FBECDBFDF91CF9148
:103FA0001F91089569857A858B859C850E94D51C13
:103FB00088CFEF92FF920F931F93CF93DF938C01E3
:103FC000892B81F0F12CEE24E394E8012196F8018D
:103FD0008491843770F4843008F05FC08130B1F090
:103FE0008230A1F1DF91CF911F910F91FF90EF905F
:103FF0000895853709F44CC008F43DC09CE7980F3C
:10400000903780F78F770E94A11949C00E5F1F4F2C
:10401000FE01849190E2980F983060F48770FE2D35
:1040200001C0FF0F8A95EAF78F2F0E94BD220E94E0
:10403000672202C00E9498188F2D815030F2EFE95C
:10404000FFE03197F1F700C00000F7CF0E5F1F4F80
:10405000FE01849190E2980F983050F48770FE2D05
:1040600001C0FF0F8A95EAF78F2F0E94C322DFCF8E
:104070000E94A119E1CF0E5F1F4FFE01C491C150F4
:10408000D8F28FE99FE00197F1F700C00000F7CF69
:104090000E5F1F4FFE01F490CFCF0E9498188E0143
:1040A000CBCF08950C9451200E94522060938B0531
:1040B00070938C0580938D0590938E050C94891CCC
:1040C00008950C9454200F931F9300918B05109129
:1040D0008C0520918D0530918E05602B712B822BE4
:1040E000932B1F910F910C9454200F931F930091C9
:1040F0008B0510918C0520918D0530918E056023E4
:104100007123822393231F910F910C9454200F93BA
:104110001F9300918B0510918C0520918D05309196
:104120008E0560277127822793271F910F910C948A
:1041300054200C9451200C9499200E949B20609351
:104140008705709388058093890590938A050C9460
:10415000891C60E070E0CB010C949D200F931F93AD
:1041600041E050E060E070E08A019B0104C0000F74
:10417000111F221F331F8A95D2F7C901B8011F9161
:104180000F910C949D200F931F9341E050E060E04D
:1041900070E004C0440F551F661F771F8A95D2F741
:1041A0008091870590918805A0918905B0918A0535
:1041B0008A019B01082B192B2A2B3B2BC901B80123
:1041C0001F910F910C949D200F931F9341E050E09D
:1041D00060E070E004C0440F551F661F771F8A958A
:1041E000D2F7CB01BA0160957095809590950091BA
:1041F0008705109188052091890530918A056023F3
:104200007123822393231F910F910C949D200F9370
:104210001F9341E050E060E070E004C0440F551F80
:10422000661F771F8A95D2F7809187059091880540
:10423000A0918905B0918A058A019B010827192759
:104240002A273B27C901B8011F910F910C949D208B
:104250000F931F9300918705109188052091890580
:1042600030918A05602B712B822B932B1F910F911C
:104270000C949D200F931F93009187051091880542
:104280002091890530918A0560237123822393232D
:104290001F910F910C949D200F931F930091870500
:1042A000109188052091890530918A056027712732
:1042B000822793271F910F910C949D2008952CE045
:1042C000929F800D1124982F977041E001C0440FF8
:1042D0009A95EAF786958695869595E0899FF001EF
:1042E0001124E759FA4F90E080E070E05191DF012E
:1042F00011979B01082E02C0369527950A94E2F784
:10430000217021952527242325272C93019685307C
:10431000910561F708952CE0929F800D1124982F4C
:10432000977086958695869525E0829FF0011124E9
:10433000E759FA4F50E040E080E0219130E0092E4B
:1043400002C0369527950A94E2F721703327042E90
:1043500001C0220F0A94EAF7822B4F5F5F4F45306E
:10436000510559F70895BF92CF92DF92EF92FF92D5
:104370000F931F93CF93DF938C01C0908705D0904C
:104380008805E0908905F0908A0580918B059091D1
:104390008C05A0918D05B0918E05C82AD92AEA2AEC
:1043A000FB2ACFE1D0E0BC2ED701C6010C2E04C001
:1043B000B695A795979587950A94D2F780FD0EC07C
:1043C000219788F7B12C8B2DDF91CF911F910F9101
:1043D000FF90EF90DF90CF90BF900895B8018C2FA1
:1043E0000E943008019761F3EECFCF93DF93EC0189
:1043F0000E94B321BE01DF91CF910C9430081F932E
:10440000CF93DF93EB0190913005992331F0CB01ED
:10441000DF91CF911F910C94F521882379F0CB0186
:104420000E94B321182F682FCE010E945F21BE0188
:10443000812FDF91CF911F910C943008CB010E9406
:104440008B21182FF4CF682F8091E0039091E10326
:104450000C940424682F8091E0039091E1030C9464
:104460000F248091E0039091E1030C941A24809131
:104470008F05859585958595089580918F05877021
:10448000089598E0899F90011124622B60938F0515
:104490000C94C32090918F058095892380938F057C
:1044A000282F277061F4282F082E000C330B921749
:1044B000130629F08595859585950C94E42008953B
:1044C00090918F05977081E009F480E00895E09164
:1044D000E003F091E1038091B3058083E091E00374
:1044E000F091E10380819091B205892B8083E09166
:1044F000E003F091E10380819091B105892B8083E5
:1045000090919005992381F0E091E003F091E1030F
:104510008081892B80838091E0039091E1030E9448
:104520007E238111109290058091E0039091E10328
:104530000C94D9168091B30508959091B305892BF9
:104540008093B305089580959091B3059823909337
:10455000B30508951092B30508959091B205892B83
:104560008093B205089580959091B2059823909319
:10457000B20508951092B20508959091B105892B66
:104580008093B105089580959091B10598239093FB
:10459000B10508951092B10508958093900508958E
:1045A0001092900508958091900508959093870446
:1045B000809386040895829590E09C01220F331F1A
:1045C000220F331F2C7C959587959595879583733E
:1045D000282B30E0C901880F991F8A7A35952795D5
:1045E0002575822B0895CF93DF93D92F0E94DB226C
:1045F000C82F8D2F0E94DB229C2FDF91CF91089531
:1046000090E080E00E94643421E08D3E9E4F09F0EE
:1046100020E0822F089582E090E00C945C3483E0E7
:1046200090E00C945C34682F83E090E00C946A3442
:1046300084E090E00C945C34682F84E090E00C946B
:104640006A3487E090E00C945C34682F87E090E057
:104650000C946A34AB01BC018FE090E00C947C3484
:10466000AB01BC0183E190E00C947C3460E070E02D
:10467000CB010C94302360E070E0CB010E942A2330
:104680000C9436236DEE7EEF90E080E00E9488343B
:1046900060E082E090E00E946A3460E083E090E0B5
:1046A0000E946A3410928B0510928C0510928D0531
:1046B00010928E0560E084E090E00E946A3460E031
:1046C00085E090E00E946A3460E086E090E00E941D
:1046D0006A346FEF87E090E00E946A3440E050E077
:1046E000BA0188E090E00E947C3460E08DE090E0C8
:1046F0000E946A340C943B230C944223FC013296B2
:104700008091F203882321F08091F4059EE187FFD8
:1047100096E080E0915008F4089521912223D1F38E
:104720008F5FF8CF9C01FC0132969FEF80E04191B2
:10473000461751F09F3F19F4411101C0982F8F5F28
:104740008630A9F79F3F09F40895290F311D97FD81
:104750003A95F90162830895FC01329608962191F9
:10476000261303C0DF0111971C92E817F907B9F768
:104770000895E62FE695E695E695EE3170F4E80F9C
:10478000F92FF11D677021E030E001C0220F6A951A
:10479000EAF78281822B828308958091B40580FF9D
:1047A0000CC01F926F9383E695E09F938F930E94B6
:1047B000C3040F900F900F900F900895E62FE69589
:1047C000E695E695EE3178F4E80FF92FF11D677064
:1047D00021E030E001C0220F6A95EAF7209582813E
:1047E0002823228308958091B40580FF0CC01F9276
:1047F0006F9385E495E09F938F930E94C3040F907D
:104800000F900F900F9008952091F203222329F02A
:104810002091F40527FD0C94B9230C949223209148
:10482000F203222329F02091F40527FD0C94DE23C6
:104830000C94AC23FC0132968091F203882351F052
:104840008091F40587FF06C08EE1DF011D928A95F5
:10485000E9F7089586E0F9CF089508950C942D2482
:104860000E942E248091FA05843049F11092B505FA
:1048700088E190E020E40FB6F894A895809360005A
:104880000FBE2093600080E00E942D060E942E241F
:1048900083B7817F846083BF83B7816083BF78944F
:1048A000889583B78E7F83BF0FB6F894A8958091C3
:1048B0006000886180936000109260000FBE0895D0
:1048C0000895CF930E942C240E94E30A0E94602442
:1048D000C0E08C2F0E947C0B892B31F4CF5FC43059
:1048E000C1F780E0CF91089581E0FCCF08950C944A
:1048F00076240E949F1C0E94CD160E942D060C94C7
:1049000077241F921FB61F9211248F939F93AF930A
:10491000BF938091B505811113C08091F0059091EE
:10492000F105A091F205B091F3054196A11DB11DCD
:104930008093F0059093F105A093F205B093F305F1
:10494000BF91AF919F918F911F901FBE1F9018959F
:1049500082E084BD93E095BD9AEF97BD80936E0091
:1049600008952FB7F8948091F0059091F105A091EA
:10497000F205B091F3052FBF0895CF92DF92EF9229
:10498000FF920F931F932FB7F8944091F005509129
:10499000F1056091F2057091F3052FBF6A017B016B
:1049A000EE24FF248C0130E020E0C016D106E206A0
:1049B000F30650F0481B590BCA011F910F91FF904D
:1049C000EF90DF90CF90089541505109F3CF789444
:1049D0001F921FB61F9211248F939F93AF93BF9383
:1049E0008091F0059091F105A091F205B091F30549
:1049F0000196A11DB11D8093F0059093F105A09340
:104A0000F205B093F305BF91AF919F918F911F90E5
:104A10001FBE1F90189581E08093E00080E2809394
:104A2000D8001092C9008FE19EE40197F1F700C011
:104A3000000087E090EBDC0180930306909304066E
:104A4000A0930506B093060688E19CE00FB6F894A3
:104A5000A895809360000FBE90936000FFCF0E94E6
:104A60000023811102C00E947C230E940B238093AB
:104A7000B4050E94182390E09093F5058093F40507
:104A80000E940F23682F70E090E080E00C9461207A
:104A90008091B80580FF12C06091E50385E0689FB2
:104AA000B001112475956795759567956038710506
:104AB000A8F561157105A1F1862F089581FF09C040
:104AC0006091E50385E0689FB001112475956795B5
:104AD000EDCF6091E50382FD0AC08091B90588237E
:104AE000D1F09091E4036091E503891728F085E007
:104AF000689FB0011124DACF869FB001112485E0B0
:104B0000869F9001879F300D1124692F70E0C901A5
:104B10000E94E633CBCF65E070E0CECF8FE70895FB
:104B200081E008958091B80580FF0CC06091E30397
:104B300070E075956795759567956115710549F1F3
:104B4000862F089581FF06C06091E30370E075959C
:104B50006795F3CF6091E30382FD0BC09091B90597
:104B60009923A1F06091E2038091E303961738F056
:104B7000682F70E06038710500F38FE70895899F12
:104B8000C001112470E00E94E633F4CF61E070E0D0
:104B9000D7CF81E00895803F31F40E944825819568
:104BA0008093BD050895813F19F40E944825F8CFF0
:104BB000823F31F40E94482581958093BC05089579
:104BC000833F19F40E944825F8CF893F29F40E94B9
:104BD00092258093BE0508958A3F21F40E94922574
:104BE0008195F7CF8B3F31F40E9492258195809378
:104BF000BF0508958C3F19F40E949225F8CF843F99
:104C000031F48091BB0581608093BB050895853F99
:104C100021F48091BB058260F7CF863F21F480911B
:104C2000BB058460F1CF873F21F48091BB0588608C
:104C3000EBCF883F21F48091BB058061E5CF8D3FAC
:104C400031F48091B80581608093B80508958E3F56
:104C500021F48091B8058260F7CF8F3FB9F780913A
:104C6000B8058460F1CF9091BC05803F41F48091FC
:104C7000BD0587FD1092BD05992371F00895813F10
:104C800029F48091BD051816ACF3F6CF823F81F46C
:104C900097FFF2CF1092BC058091BD059091BE05A3
:104CA000892B9091BF05892B49F71092B90508957A
:104CB000833F19F4191674F3DFCF893F39F48091DB
:104CC000BE051816CCF61092BE05D6CF8A3F29F441
:104CD0008091BE0587FFD0CFF6CF8B3F39F480910E
:104CE000BF0587FFC9CF1092BF05C6CF8C3F29F4FF
:104CF0008091BF051816BCF3BFCF843F31F480917B
:104D0000BB058E7F8093BB05B7CF853F21F4809193
:104D1000BB058D7FF7CF863F21F48091BB058B7F4C
:104D2000F1CF873F21F48091BB05877FEBCF883F90
:104D300021F48091BB058F7EE5CF8D3F31F48091CA
:104D4000B8058E7F8093B80597CF8E3F21F4809170
:104D5000B8058D7FF7CF8F3F09F08ECF8091B805D2
:104D60008B7FF0CF8091B40583FF7EC088EA95E009
:104D70000E942A048091BB051F928F9383EA95E0DD
:104D80009F938F930E94C30481EA95E00E942A04B6
:104D90008091BC05282F082E000C330B3F938F9376
:104DA0008EE995E09F938F930E94C3048CE995E070
:104DB0000E942A048091BD05282F082E000C330B79
:104DC0003F938F9389E995E09F938F930E94C3044B
:104DD00087E995E00E942A048091BE05282F082EBD
:104DE000000C330B3F938F9384E995E09F938F934F
:104DF0000E94C30482E995E00E942A048091BF05C5
:104E0000282F082E000C330B3F938F938FE895E0EB
:104E10009F938F930E94C3048CE895E00E942A041C
:104E20008091B9051F928F9389E895E09F938F93A6
:104E30000E94C30487E895E00E942A048091B80587
:104E40001F928F9384E895E09F938F930E94C304F1
:104E500081E895E00E942A048DB79EB74C960FB664
:104E6000F8949EBF0FBE8DBF8AEB95E00E94341769
:104E70000E94B1249093B7058093B60508951F93BF
:104E8000CF93DF938091B6059091B7050E94BD2422
:104E9000AC019091B9052091E60330E0911106C074
:104EA0002091E7038AE0289F9001112442175307BD
:104EB00078F02091BC05D091BD051091BE05C09140
:104EC000BF05211109C08D2F812B8C2B09F066C0E5
:104ED000DF91CF911F9108959F3F19F09F5F9093AD
:104EE000B905121624F40E9448258093BC058091D0
:104EF000BC0587FF05C00E94482581958093BC05AD
:104F00001D1624F40E9448258093BD058091BD059F
:104F100087FF05C00E94482581958093BD0530918B
:104F2000BC053323C1F02091BD052223A1F045EB40
:104F30003403C0011124892F911101C081E08093B5
:104F4000BC0545EB240390011124832F311101C0CE
:104F500081E08093BD05111624F40E949225809370
:104F6000BE058091BE0587FF05C00E9492258195F0
:104F70008093BE051C1624F40E9492258093BF05E1
:104F80008091BF0587FF05C00E949225819580937F
:104F9000BF05DF91CF911F910C94B2269F3F09F07E
:104FA0009DCFAECF86E0EAEBF5E0DF011D928A955A
:104FB000E9F71092B9051092B80508958091E305BC
:104FC00008959FB7F8941092C2059FBF9091FA057B
:104FD000943009F049C02091E9002F709091EC00C5
:104FE00090FD30C090E0922B23E02093E9002091C7
:104FF000EB0020FF36C02091EE0027FF32C0209149
:10500000C005222321F02091E80025FF2AC010923C
:10501000C00526E03091E80035FF16C08093F1000E
:105020008091E80085FD29C08091E80080FFFCCFD9
:105030008091E8008E778093E8009F709093E9005C
:1050400080E0089590E8CFCF3091FA05343049F4EC
:105050003091EB0035FD05C0215041F481E0809393
:10506000C0059F709093E9008FEF0895EFE9FFE08E
:105070003197F1F700C00000CDCF8FB7F89421E051
:105080002093C2058FBFD9CF0F931F93CF93DF9388
:1050900000D00F92CDB7DEB78C010E940C2B82306E
:1050A00011F0843021F584E089831B830A8382E038
:1050B0008093E9008FEF9091E800815095FD06C044
:1050C00095ED9A95F1F700008111F5CF8091E800F8
:1050D00085FF0DC050E040E063E070E0CE01019636
:1050E0000E94292B8091E8008E778093E8000F9032
:1050F0000F900F90DF91CF911F910F910895CF9353
:10510000DF9300D00F92CDB7DEB72091FA0524309F
:1051100031F523E02983805891099B838A8382E0BB
:105120008093E9008FEF9091E800815095FD06C0D3
:1051300095ED9A95F1F700008111F5CF8091E80087
:1051400085FF0DC050E040E063E070E0CE010196C5
:105150000E94292B8091E8008E778093E8000F90C1
:105160000F900F90DF91CF910895CF93DF93EC01D3
:105170000E940C2B823011F08430F9F482E080938D
:10518000E9008FEF9091E800815095FD06C095ED04
:105190009A95F1F700008111F5CF8091E80085FF25
:1051A0000CC050E040E066E070E0CE010E94292B88
:1051B0008091E8008E778093E800DF91CF91089589
:1051C000CF93DF93EC010E940C2B823011F08430DE
:1051D000B9F58091F2038823B1F18091F40587FF3E
:1051E00032C060E282E08093E9008FEF9091E800A6
:1051F000815095FD06C095ED9A95F1F7000081115B
:10520000F5CF8091E80085FF1BC08091F20370E02C
:1052100050E040E0811104C050E040E068E070E000
:10522000CE010E94292B8091E8008E778093E800C0
:1052300080E2FE01A3ECB5E001900D928A95E1F7C2
:10524000DF91CF91089568E081E0CDCF80EF95E0C8
:105250000E942A048091F905811109C00E94B72C8F
:105260000E94142D8091E20084608093E2000895F2
:105270008CEE95E00E942A041092F905089588EEBC
:1052800095E00C942A0484EE95E00C942A0480EEB8
:1052900095E00E942A040C9479242091C1052F5F87
:1052A000822F62E30E94C633992319F02093C1052F
:1052B00008951092C1058091C2058823E9F080917C
:1052C000FA058430B9F49091E9009F708091EC0068
:1052D00080FD13C080E0892B93E09093E9009091CA
:1052E000EB0090FF04C09091EE0097FD0AC08F7014
:1052F0008093E9001092C205089580E8ECCF1092E7
:10530000F1009091E80095FDFACF9091E80090FFB0
:10531000EECF9091E8009E779093E800E8CF42E0CE
:1053200061EC81E00E94352C42E261EC82E00E9457
:10533000352C42E261EC83E00C94352C8091FC0525
:10534000833009F45FC030F48130C1F1823009F458
:105350009BC008958A3009F487C08B3009F46DC072
:10536000893009F04EC08091FB05813209F049C0B7
:105370008091FF0590910006029708F042C080914D
:10538000E800877F8093E8008091E80082FF35C0C5
:105390009091F3008091F200029729F48091F1003E
:1053A0008B7F813021F48091F1008093E30580911F
:1053B000E8008B778093E8000C94692C8091FB05C2
:1053C000813AF9F48091E800877F8093E80080912A
:1053D000FF0590910006892B61F460E283EC95E073
:1053E00070E00E94782B8091E8008B778093E80032
:1053F000089560E090E080E0F3CF8091FA0581119C
:10540000C3CF08958091FB05813AD9F78091FF05BC
:1054100090910006892BA9F78091E800877F8093FF
:10542000E8008091E80080FFFCCF8091F203809338
:10543000F1008091E8008E77BDCF8091FB0581322D
:1054400001F78091FF0590910006892BD1F680919C
:10545000E800877F8093E8000E94692C8091FD0519
:105460008093F2030C949F1C8091FB05813249F6D6
:105470008091E800877F8093E8000E94692C8091EA
:10548000FE058093E40508958091FB05813A09F0BB
:10549000B8CF8091E800877F8093E8008091E80092
:1054A00080FFFCCF8091E405C2CF84B7877F84BFA3
:1054B0000FB6F894A8958091600088618093600091
:1054C000109260000FBE80E880936100109261002E
:1054D0000E9476170E94B72C0E94142D8091E20042
:1054E00084608093E20081EE97E20E94D622789455
:1054F0000E94932F0E947C1788EE93E00E94C816AA
:105500008FEC95E00E942A048091FA05853019F00D
:105510000E94AA17F9CF8BEC95E00E942A040E9402
:1055200030248091F805882379F30E946124882330
:1055300059F30E94132BE8CF0C949E2A292F33276E
:105540002330310521F168F42130310509F449C0D7
:105550002230310509F44AC090E080E030E020E0DC
:1055600029C02132310581F122323105A9F763309A
:10557000710590F7FB01EE0FFF1FE758FB4F2081ED
:1055800031816A587B4FFB01808190E013C09927DD
:105590008130910599F0009741F08230910589F0B2
:1055A0000397D1F6E4EFF5E002C0E6E1F6E084917E
:1055B00090E09F01FA01318320830895EAE0F6E04C
:1055C000F6CFEAEFF5E0F3CF6330710528F6660F0A
:1055D000771FFB01E158FB4F2081318189E090E08A
:1055E000E9CF82E190E025E736E0E4CF8BE590E07B
:1055F0002AE136E0DFCF0895CF93C82F0E94FB2A1F
:10560000C093E505CF9108958091FA05843011F497
:1056100082E0089581E008958091E505811102C03E
:105620000C94042B089580E189BD82E189BD09B401
:1056300000FEFDCF8091D8008F7D8093D8008091AF
:10564000E00082608093E0008091E00081FDFCCF6B
:105650000895AF92BF92CF92DF92FF920F931F9364
:10566000CF93DF936C01EB018A010E94882CF82E06
:10567000811123C00115110539F0F8018081918154
:10568000C81BD90BC80ED91EB12CA12C2097A9F08C
:105690008091E80085FD22C08091E8008E7780939C
:1056A000E80001151105A1F0F80180819181A80E93
:1056B000B91EB182A08285E0F82E8F2DDF91CF91A7
:1056C0001F910F91FF90DF90CF90BF90AF90089502
:1056D0000E94882C8823D1F2F82EEFCFF601819119
:1056E0006F018093F1002197FFEFAF1ABF0ACECF71
:1056F000FC01809101069091020686179707A0F0A1
:105700006115710529F49091E8009E779093E80067
:1057100090E06115710551F4911108C08091E80085
:1057200082FF34C080E00895BC01F2CF8091FA0579
:105730008823C1F18530C1F18091E80083FD30C03C
:105740008091E80082FDEACF8091E80080FFE1CF00
:105750008091F3002091F200382F6115710519F046
:105760002830310558F091E02830310509F090E0FB
:105770002091E8002E772093E800CBCF8191809391
:10578000F100615071092F5F3F4FE7CF8091FA051B
:10579000882341F0853041F08091E80083FFBECF3F
:1057A00081E0089582E0089583E00895FC018091EE
:1057B00001069091020686179707A0F06115710502
:1057C00029F48091E8008E778093E80090E06115DD
:1057D000710551F4911108C08091E80082FF35C035
:1057E00080E00895BC01F2CF8091FA058823C9F1C9
:1057F0008530C9F18091E80083FD31C08091E800D7
:1058000082FDEACF8091E80080FFE1CF8091F30034
:105810002091F200382F6115710519F028303105FB
:1058200058F091E02830310509F090E08091E800CF
:105830008E778093E800CBCF84918093F1003196EE
:10584000615071092F5F3F4FE6CF8091FA058823A1
:1058500041F0853041F08091E80083FFBDCF81E0C9
:10586000089582E0089583E00895982F973028F0F6
:105870008F708093E90081E008959093E900242FD0
:10588000762F50E0981731F07091EC002091ED00E8
:105890005091F00021FD02C09F5FE8CF3091EB00F6
:1058A0003E7F3093EB003091ED003D7F3093ED0073
:1058B0003091EB0031603093EB007093EC0020935B
:1058C000ED005093F0002091EE0027FDE5CF80E041
:1058D00008958091FB0587FF13C08091E80082FF47
:1058E00006C08091E8008B778093E80004C0809127
:1058F000FA058111F2CF08958091FA058823D9F332
:105900008091E80080FFF8CF8091E8008E77ECCF9F
:105910002091E4003091E50085E6A9019091EC002A
:1059200090FF06C09091E80090FF06C080E00895C7
:105930009091E80092FDFACF9091FA05992389F0B1
:10594000953089F09091EB0095FD0FC02091E40017
:105950003091E5004217530709F38150F1F684E0D6
:10596000089582E0089583E0089581E008950E94FB
:10597000252D0E942D2DE0EEF0E080818160808356
:10598000E8EDF0E080818F77808319BCA7EDB0E06F
:105990008C918E7F8C9380818F7E80831092F9050D
:1059A00008950F931F93CF93DF930E94252D0E949C
:1059B0002D2DC8EDD0E088818F778883888180681D
:1059C000888388818F7D888319BC1092FA05109294
:1059D000F6051092F8051092F70500EE10E0F801B8
:1059E00080818B7F808388818160888342E060E052
:1059F00080E00E94352CE1EEF0E080818E7F808394
:105A0000E2EEF0E080818160808380818860808325
:105A1000F80180818E7F8083888180618883DF9117
:105A2000CF911F910F910895E8EDF0E080818F7E76
:105A30008083E7EDF0E080818160808384E082BF35
:105A400081E08093F9050C94D12CE8EDF0E08081A1
:105A50008E7F80831092E20008951092DA001092F7
:105A6000E10008951F920F920FB60F9211242F9309
:105A70003F934F935F936F937F938F939F93AF93D6
:105A8000BF93EF93FF938091E10082FF0BC0809161
:105A9000E20082FF07C08091E1008B7F8093E100EC
:105AA0000E944D298091DA0080FF19C08091D800B2
:105AB00080FF15C08091DA008E7F8093DA0080919C
:105AC000D90080FF94C080E189BD82E189BD09B41D
:105AD00000FEFDCF81E08093FA050E942629809187
