:100000000C9443020C948A020C948A020C948A0287
:100010000C948A020C948A020C948A020C948A0230
:100020000C948A020C948A020C9460270C94332856
:100030000C94D1200C948A020C948A020C948A02AB
:100040000C948A020C948A020C948A020C948A0200
:100050000C948A020C9439210C948A020C948A0222
:100060000C948A020C948A020C948A020C948A02E0
:100070000C948A020C948A020C948A020C948A02D0
:100080000C94CE090C948A020C948A020C948A0275
:100090000C948A020C948A020C948A020C948A02B0
:1000A0000C948A020C948A020C948A0207634236EA
:1000B000B79BD8A71A39685618AEBAAB558C1D3CF9
:1000C000B7CC5763BD6DEDFD753EF6177231BF00BD
:1000D0000000803F08000000BE922449123EABAAF7
:1000E000AA2ABECDCCCC4C3E00000080BEABAAAA52
:1000F000AA3E00000000BF000000803F000000009A
:1001000000084178D3BB4387D1133D190E3CC3BDD2
:100110004282AD2B3E68EC8276BED98FE1A93E4C7F
:1001200080EFFFBE01C4FF7F3F00000000002B00F6
:1001300014001A000800150017001C0018000C001D
:10014000120013002A0029610400160007000900AC
:100150000A000B000D000E000F0033003400E10018
:100160001D001B00060019000500110010003600DC
:10017000370038002872165CE000E200E300D45C2F
:100180002C002C00D55C5000510052004F0035026D
:100190001E021F0220022102220223022402250243
:1001A000260227024C0001003A003B003C003D00C3
:1001B0003E003F002D022E022F02300231020100CC
:1001C0004000410042004300440045003202640206
:1001D0004A004D0001000100010001000100010082
:1001E000010001000100AB00AA00A900AE0035002B
:1001F0001E001F00200021002200230024002500F3
:10020000260027004C000100680069006A006B00AE
:100210006C006D002D002E002F0030003100010019
:100220006E006F0070007100720073003200640095
:100230004B004E000100010001000100010001001F
:10024000010001000100AB00AA00A900AE00015AA4
:10025000025A035A045A055A065A235A245A255A4E
:10026000265A275A285A005A075A095A0B5A0D5A21
:10027000115A165A1A5A1C5A1E5A205A225A00004B
:10028000085A0A5A0C5A0E5A125A175A1B5A1D5A11
:100290001F5A215A295AD65C000000000F5A105AE2
:1002A00000000000185A195A155A135A145A01001E
:1002B000005C015C0100010001000100D35C010051
:1002C000010001004C0001000100235C1D5C1E5C6C
:1002D000135C0A5CD25C0100010001000100010016
:1002E000255C245C205C215C265C275C000000000F
:1002F00001000100010001000100010001000100F6
:1003000001000100010001000100010001000403DF
:10031000300000000E0350006C0061006E006300AE
:100320006B0000000A034F004C004B00420000002D
:100330000403090409029100050100A0FA09040060
:100340000001030101000921110100012240000701
:1003500005810308000A09040100010300000009E7
:1003600021110100012236000705820308000A0955
:1003700004020001030000000921110100012239DB
:100380000007058303200001080B0302020201009D
:1003900009040300010202010005240010010424E5
:1003A00002020524060304070584030800FF09046C
:1003B0000400020A000000070506021000050705F8
:1003C000850210000512011001EF020108EDFE6028
:1003D0006004000102030105010906A101050719D6
:1003E000E029E71500250195087501810205081926
:1003F0000129059505750191029501750391010586
:1004000007190029F71500250195F875018102C02B
:1004100005010980A10185021601002603001A8149
:10042000002A8300751095018100C0050C0901A107
:10043000018503160100269C021A01002A9C027500
:100440001095018100C005010906A101050719E009
:1004500029E71500250195087501810295017508A8
:10046000810105081901290595057501910295017C
:10047000750391010507190029FF150026FF009556
:100480000675088100C011241FBECFEFDAE0DEBF81
:10049000CDBF04B603FE27C08091B8069091B9067F
:1004A000A091BA06B091BB068730904BA740B04BE5
:1004B000D1F41092B8061092B9061092BA061092B2
:1004C000BB0614BE84B7877F84BF0FB6F894A89587
:1004D00080916000886180936000109260000FBE80
:1004E000E0E0F8E3099515E0A0E0B1E0ECEAF1E620
:1004F00002C005900D92A234B107D9F726E0A2E41C
:10050000B5E001C01D92A83BB207E1F70E94872425
:100510000C94D4300C9400006E9A769A0C941C08BB
:10052000CF93FB01843D2CE5920739F148F4823DDD
:100530002CE59207D1F0833D9C45C1F1C1E033C069
:10054000853D2CE5920729F1863D9C45B9F7C2818E
:10055000CC2349F140E066E070E084E091E00E9445
:10056000EE0C83E00E94C71D06C0C281CC23D9F0E7
:1005700080E00E940503C0E016C0C28181E0CC2368
:1005800059F00E94A61D44E062E081E00E9425032C
:10059000F2CFC28182E0F3CF0E94C71D44E062E047
:1005A00081E00E9425038C2FCF910895C281CC2336
:1005B000D1F30E94930D40E066E070E084E391E0A7
:1005C0000E94EE0C82E00E94C71D81E00E94C71DC0
:1005D00084E00E94C71D83E00E94A61D0E94E31FC5
:1005E000811102C00E94BF1F0E94FB1F90E09093E8
:1005F000AA068093A90680688093A9060E94FF1F1F
:10060000BACF81E008950C949002CF93DF93C82F66
:1006100020E8829FC001112440E060E170E08C5925
:100620009E4F0E94EE0C61E070E0CB0102C0880F8B
:10063000991FCA95E2F7EC010E94F61FBE0190E0F7
:1006400080E0DF91CF910C94441D8F929F92AF92E6
:10065000BF92CF92DF92EF92FF920F931F93C12C24
:10066000D12C7601C3949701860104C0000F111F9D
:10067000221F331F6A95D2F74601570104C0880C28
:10068000991CAA1CBB1C8A95D2F7D501C401802BEA
:10069000912BA22BB32B0091490610914A06209171
:1006A0004B0630914C06082319232A233B2380173D
:1006B0009107A207B30769F4842F1F910F91FF9050
:1006C000EF90DF90CF90BF90AF909F908F900C9461
:1006D000A61D842F1F910F91FF90EF90DF90CF9078
:1006E000BF90AF909F908F900C94C71D0E946A0D91
:1006F0000C948C020E94BC110C941E0808950C945A
:100700007E030C947F030895CF93DF930E946319B7
:100710000E948A110E940321EC0140E063E070E036
:1007200084E192E00E94EE0C0E948303CE010E94BD
:100730000F218A3F910530F00E94930DDF91CF91F8
:100740000C945F218FE99FE00197F1F700C0000052
:10075000EDCFFF920F931F93CF93DF938C01FC019A
:10076000C081D1818091F205811156C08281882398
:1007700009F44DC0CE010E949C1EF82E682FCE01B8
:100780000E94421EBE018F2D0E946B05EC01B80134
:100790000E940303882309F473C0B801CE010E94AC
:1007A0004F09882309F46CC0B801CE010E94F113EF
:1007B000882309F465C0B801CE010E942012882365
:1007C00009F45EC0B801CE010E94CD07882309F468
:1007D00057C0C531FCE5DF0709F459C110F5C13038
:1007E000ECE5DE0709F453C008F063C0C115DC4531
:1007F00009F441C081E08093470580934805C80112
:10080000DF91CF911F910F91FF900C940103CE01C6
:100810000E94711EF82EB6CFCE010E949C1EBE0112
:10082000B3CFCD3CECE5DE0709F416C1B8F4CB3C00
:100830008CE5D80709F4D4C0CC3CDC45D9F6F801E6
:100840008281882309F4F3C0109248050E94032195
:10085000909346058093450580E2CFC0C03DFCE5FE
:10086000DF07F9F0C13DDC4529F6F80182818823D4
:1008700039F082E01BC0F801828181110E9484035B
:1008800080E0DF91CF911F910F91FF900895F801C3
:1008900082818823A9F38091760681608093760611
:1008A000EFCFF8018281882359F380E00E94282548
:1008B000E7CFF8018281882309F4A1CF0E94E31FCA
:1008C000811102C00E94BF1F0E94FB1F90E0909305
:1008D000AA068093A906FE01E350FC45E231F1052A
:1008E000B0F4EB58FB4F0C94D92F8D049104950470
:1008F00099049D04A104A504A904BD04C104C50470
:10090000C904CD04D104D504D904DD04E9048091DF
:10091000A90681608093A90629C08091A9068260FA
:10092000F9CF8091A9068460F5CF8091A9068860EF
:10093000F1CF8091A9068061EDCF8091A9068062F8
:10094000E9CF8091A9068064E5CF8091A9068068EF
:10095000E1CF8091A906846088608093A90640E079
:1009600064E070E084EE91E00E94EE0C8091A906B4
:100970000E94FF1F0E94631983CF8091A9068E7F7A
:10098000C9CF8091A9068D7FC5CF8091A9068B7FA5
:10099000C1CF8091A906877FBDCF8091A9068F7EA8
:1009A000B9CF8091A9068F7DB5CF8091A9068F7BA5
:1009B000B1CF8091A9068F77ADCF8091A9068B7FAB
:1009C000877F8093A90640E062E070E084E092E0D7
:1009D000CBCF9091A906892F97FB87F980589ACFA2
:1009E000F8018281882361F0109247050E9403215B
:1009F000909344058093430582E00E94D41640CF33
:100A00008091470581110FC0809143059091440565
:100A10000E940F21883C910530F486E20E94AA15BD
:100A200086E20E94851682E00E94DB1629CF809123
:100A3000480581110FC080914505909146050E949F
:100A40000F21883C910530F487E20E94AA1587E2C5
:100A50000E94851680E2E8CFF80182818111F4CEF0
:100A6000809148058111F6CF80914505909146050A
:100A70000E940F21883C910568F780E20E94DB16F6
:100A800088E20E94AA1588E20E948516F9CE0E948B
:100A9000831FF8019281992381F08A7A91E009F409
:100AA00090E090934205811106C089E20E940C1FDC
:100AB0000E94501FE5CE85E3F9CF80914205811158
:100AC00004C089E20E94131FF3CF85E3FBCF90E0BF
:100AD00080E008950895972F70E02CE0929F600DBC
:100AE000711D1124FB0190E3899FE00DF11D11247C
:100AF000EE0FFF1FE25DFE4F859194910895FC017A
:100B0000EE0FFF1FE25FFC4F859194910895CF9304
:100B1000DF930E946B050E941F07EC018115904432
:100B200008F094C0C11580E3D80708F005C1C03EA5
:100B3000D10508F071C0C03CD10508F0ECC0C83A3E
:100B4000D10580F4C53AD10508F0E9C0C130D1051E
:100B500009F46EC020F0C430D10508F069C0D0E0BF
:100B6000C0E066C0CD3BD105D0F7C83AD10509F445
:100B700027C1C93AD10509F426C1CA3AD10509F4F9
:100B800025C1CB3AD10509F424C1CC3AD10509F4E9
:100B900023C1CB3BD10509F422C1CC3BD10509F4DB
:100BA00021C1CD3AD10509F420C1C03BD10509F4DA
:100BB0001FC1CE3AD10509F41EC1CF3AD10509F4BF
:100BC0001DC1C13BD10509F41CC1C23BD10509F4CB
:100BD0001BC1C33BD10509F41AC1C43BD10509F4BB
:100BE00019C1C53BD10509F418C1C63BD10509F4AB
:100BF00017C1C73BD10509F416C1C83BD10509F49B
:100C000015C1C93BD10509F414C1CA3BD10509F08E
:100C100013C1CAE2D6E40CC0CF3FD10509F060F49D
:100C2000C03FD10508F086C0C83ED10508F097CF77
:100C3000CE01DF91CF910895CE019F70C11520E2C2
:100C4000D207B0F30E947F05EC01F2CFC11584E515
:100C5000D807A0F5C11523E5D20708F08EC0C1154D
:100C600081E5D80708F5C11520E5D20708F46EC064
:100C7000CE0154E0969587955A95E1F783709C2FA5
:100C8000937021E030E002C0220F331F9A95E2F703
:100C90003C68382BC695C695C37080E2C89FE001BA
:100CA0001124C22BD32BC4CFC11582E5D80708F07D
:100CB00050C0DC2FCC27C16FD06ABACFC11526E552
:100CC000D20758F49C2F8827C115D54508F469C070
:100CD000EC01CC27DF71D062ABCFC11588E5D80716
:100CE00008F43DCFC11529E5D20708F45EC0CE0156
:100CF00090568115904208F032CF8D2F8F710E944F
:100D00009F07DD27D06290E0982F882788279F7162
:100D1000C82BD92B8DCFCE01805C910993CFC53ADA
:100D2000D10509F447C0C63AD10509F446C0C3E865
:100D3000D0E47ECFD0657CCFCE019927D3FF03C00E
:100D4000EC01D86C75CFEC01D06C72CFDF70D06A3B
:100D50006FCFCE018370992721E030E002C0220FCF
:100D6000331F8A95E2F7C695C69580E2C89FE001D9
:100D70001124C22BD32BDC685BCFCE018370992763
:100D800021E030E002C0220F331F8A95E2F7C695BA
:100D9000C69580E2C89FE0011124C22BD32BDA68EC
:100DA00047CFEC01C46FD06A43CFDC2FCC27C06F94
:100DB000D06A3ECFC1E8D0E43BCFC2E8D0E438CF20
:100DC000C2EED4E435CFC9EED4E432CFCAEED4E4D7
:100DD0002FCFC5EBD4E42CCFC6EBD4E429CFC3EBA3
:100DE000D4E426CFC4EBD4E423CFC7EBD4E420CFA4
:100DF000CCECD4E41DCFCDECD4E41ACFC3E8D5E4D9
:100E000017CFCAE8D5E414CFC2E9D5E411CFC4E9BD
:100E1000D5E40ECFC1E2D6E40BCFC3E2D6E408CFCF
:100E2000C4E2D6E405CFC5E2D6E402CFC6E2D6E4FA
:100E3000FFCEC7E2D6E4FCCEC0E0D4E4F9CE8238DF
:100E4000910549F1B0F48133910509F45CC048F48F
:100E50008932910509F452C08A32910509F458C0CB
:100E600008958533910509F444C08933910599F0BB
:100E70000895833E910531F138F4803E910591F05B
:100E8000823E9105B1F00895863E910511F1873EAD
:100E9000910541F108952091A9062370C9F080EED3
:100EA00090E008952091A90620FF12C089E390E008
:100EB00008952091A90622FF0BC024FF2EC090E0C8
:100EC00080E008952091A90622FD2AC024FDF7CFD5
:100ED00008952091A90623FFFBCF24FDF0CF87EED4
:100EE00090E008952091A90623FFF0CF86EE90E0D0
:100EF00008952091A90625FD16C008952091A90600
:100F000025FD14C008952091A90626FD12C008955C
:100F10002091A90626FD10C0089583EE90E0089563
:100F200082EE90E0089589E290E0089585E390E0F4
:100F300008958AE290E0089581E390E0C9CFCF93CD
:100F4000C82F0E94FB1F282F30E03093AA06209361
:100F5000A90682FF06C09C2F9871983079F4C77F4C
:100F6000C46083FF06C09C2F9871983171F4C77ECE
:100F7000C46184FDC77E8C2FCF9108959C2F9471FE
:100F8000943079F7CB7FC860ECCF9C2F947194316B
:100F900081F7CB7EC861EDCF08950F931F93CF9358
:100FA0008C01FB018281811106C0C1E08C2FCF91A1
:100FB0001F910F910895C0915605C11125C00631AA
:100FC0001C4599F70E94CC0781E0809356050E944A
:100FD0000321909355058093540510924905109272
:100FE0004B0510924A0510924D0510924C05109237
:100FF0004F0510924E051092510510925005109217
:10100000530510925205D2CF809154059091550509
:101010000E940F21883C910540F680914905E82FF8
:10102000F0E0EE0FFF1FE65BFA4F118300838F5F46
:1010300080934905C0E0BACF089508950C941D0827
:10104000CF93DF9385B7806885BF85B7806885BFFC
:10105000AEEDB4E042EE54E0C1E0D0E08D91E82F77
:10106000E295EF70F0E061A18F709E0101C0220F48
:101070008A95EAF7922F9095962391A382A1822BCD
:1010800082A34A175B0751F7A2EDB4E04EED54E09E
:10109000C1E0D0E08D91E82FE295EF70F0E061A122
:1010A0008F709E0101C0220F8A95EAF7922F9095CA
:1010B000962391A382A1822B82A34A175B0751F743
:1010C0001092600510925F05109258051092570516
:1010D000109262051092610510925A0510925905FE
:1010E000109264051092630510925C0510925B05E6
:1010F000109266051092650510925E0510925D05CE
:10110000DF91CF910C9476034F925F927F928F92F2
:101110009F92AF92BF92CF92DF92EF92FF920F9386
:101120001F93CF93DF93C7E5D5E00EED14E092EE69
:10113000A92E94E0B92EEE24E394F12C99249394F3
:10114000C880D98019821882D8018D918D01E82F2D
:10115000E295EF70F0E091A18F70970101C0220F2E
:101160008A95EAF7892F822B81A382A1822E80940F
:10117000882182A3B0EABA95F1F782ED482E84E087
:10118000582E90E080E0D2017D912D01472F4295AD
:101190004F7050E0DA0190967C90488159817F70C1
:1011A000D70102C0AA0FBB1F7A95E2F7BD016721E4
:1011B00009F068C0B701082E02C0660F771F0A94B5
:1011C000E2F7462B572B5983488301968C309105C3
:1011D000D1F681A1882281A282A1282B22A3888115
:1011E0009981C816D90641F0909267050E940321A3
:1011F00090936905809368052296A016B10609F0C0
:101200009FCF80916705882351F180916805909167
:1012100069050E940F21069710F180915705909162
:1012200058059093600580935F05809159059091D2
:101230005A05909362058093610580915B059091BA
:101240005C05909364058093630580915D059091A2
:101250005E059093660580936505109267050E9470
:101260007A0381E0DF91CF911F910F91FF90EF9072
:10127000DF90CF90BF90AF909F908F907F905F90C6
:101280004F90089570E060E09CCFE82FF0E0EE0F03
:10129000FF1FE15AFA4F8081918108950895FB0163
:1012A0008D312CE5920739F482818823A1F10E94C7
:1012B000CF0E80E008958E312CE5920731F48281C3
:1012C000882349F10E94DF0EF4CF8F312CE592077D
:1012D00041F482818823F9F00E94CB0E8111F2CF74
:1012E000E6CF84322CE5920769F48281882399F055
:1012F0000E94F80E40E064E070E08CE292E00E9410
:10130000EE0CD7CF85329C4531F48281882319F0C9
:101310000E94010FEFCF81E008958554990BBC0125
:10132000990F880B990B0E94AA2C20E030E040E432
:1013300051E40E94002C9B01AC0160E070E080E071
:1013400090E40E942E2E20E030E04CED53E40E9409
:10135000C12D4FE050E00C946B0E8554990BBC01ED
:10136000990F880B990B0E94AA2C20E030E040E4F2
:1013700051E40E94002C9B01AC0160E070E080E031
:1013800090E40E942E2E20E030E04CED53E40E94C9
:10139000C12D0C94CE0D0C94930D08951F920F92B5
:1013A0000FB60F9211244F925F926F927F928F929D
:1013B0009F92AF92BF92CF92DF92EF92FF922F93C4
:1013C0003F934F935F936F937F938F939F93AF93CD
:1013D000BF93EF93FF9380917D05882309F4CAC0E2
:1013E000E090BF05F090C0051E141F040CF0C2C0B1
:1013F00040906D0550906E0560906F05709070057F
:1014000020E030E0A901C301B2010E94BC2D1816F2
:101410000CF093C121E0E216F10409F452C080916E
:10142000BD059091BE05B7010E94C52F6C01909338
:10143000BE058093BD0580907F0590908005A090AB
:101440008105B090820520E030E040E85FE3C5010F
:10145000B4010E948F2B60937F0570938005809369
:10146000810590938205F601EE0FFF1FEE0FFF1F1F
:10147000ED56FA4FA30192016081718182819381BF
:101480000E94002C20E030E040E05EE30E94C12D8D
:101490009B01AC01C501B4010E94BC2D18168CF44F
:1014A000C6010196B7010E94C52F9093BE05809397
:1014B000BD0510927F051092800510928105109253
:1014C0008205E091BD05F091BE05EE0FFF1FEE0F06
:1014D000FF1FED56FA4F60817181828193812091C7
:1014E0006A0530916B052F3F320731F02F5F3F4F78
:1014F00030936B0520936A050E940A0F6B017C01F3
:1015000020E034E244EF51E40E94FB2B87FF08C047
:1015100086EFC82E88E2D82E84EFE82E81E4F82EDC
:1015200020E030E040E051E4C701B6010E94C12D47
:101530009B01AC0160E074E284E79BE40E94002C14
:101540006B017C010E94792C709397006093960048
:101550002091950230919602409197025091980205
:10156000C701B6010E94C12D0E94792C7093990089
:101570006093980080917E05882309F4B4C1C090DF
:101580007905D0907A05E0907B05F0907C0520E00D
:1015900030E0A901C701B6010E94BC2D18160CF05D
:1015A00091C180916A0590916B058F3F980729F052
:1015B000019690936B0580936A05C701B6010E945E
:1015C0000A0F20E030E040E051E40E94C12D9B0171
:1015D000AC0160E074E284E79BE40E94002C6B01A4
:1015E0007C010E94792C7093970060939600209163
:1015F0009502309196024091970250919802C7014E
:10160000B6010E94C12D0E94792C709399006093BD
:10161000980060917305709174056F5F7F4F7093B0
:10162000740560937305E0909600F090970090E049
:1016300080E00E94A82C4B015C0140907505509001
:1016400076056090770570907805EF2809F443C11E
:101650008091720581113FC1609196007091970051
:1016600090E080E00E94A82C9B01AC01C301B20174
:101670000E94002C20E03FEF4FE757E40E94C12D6D
:1016800020E030E040E85FE30E948E2BA50194014A
:101690000E94FB2B18160CF426C1809171058F5FF8
:1016A0008093710520919C0630919D068217130648
:1016B00038F08091A306882309F41EC110927105A9
:1016C000E0919E06F0919F069091710580917205C0
:1016D000811144C181E0809372059150909371050E
:1016E00048E0949F90011124E20FF31FC080D18045
:1016F000E280F3802085318542855385C701B6019C
:101700000E94FB2B811121C11092790510927A055C
:1017100010927B0510927C0580E090E0A0E8BFE38A
:101720008093750590937605A0937705B09378051F
:101730001092740510927305D6C0F701EE0FFF1FCB
:10174000EE0FFF1FE157FA4F80809180A280B38097
:1017500080919402882309F4ACC0C090B905D09060
:10176000BA05E090BB05F090BC0520E030E0A9018F
:10177000C701B6010E94FB2B882309F49AC0A5017A
:101780009401C701B6010E94FB2B87FF5BC0A50136
:10179000940160E070E08CED93EC0E94002C20E05E
:1017A00030E040E451E40E94002C20E030E040E0D2
:1017B0005FE30E94C12D9B01AC0160E070E080E01E
:1017C00090E40E942E2EA50194010E94C12D9B0140
:1017D000AC01C701B6010E94FB2B87FF33C0A701F4
:1017E000960160E070E08CED93E40E94002C20E014
:1017F00030E040E451E40E94002C20E030E040E082
:101800005FE30E94C12D9B01AC0160E070E080E0CD
:1018100090E40E942E2E9B01AC01C701B6010E94EC
:10182000C12D6093B9057093BA058093BB05909361
:10183000BC056091B9057091BA058091BB05909186
:10184000BC054DCEA5019401C701B6010E94BC2D77
:1018500018167CF5A501940160E070E08CED93E42E
:101860000E94002C20E030E040E451E40E94002C73
:1018700020E030E040E05FE30E94C12D9B01AC011D
:1018800060E070E080E090E40E942E2EA5019401BB
:101890000E94C12D9B01AC01C701B6010E94BC2D65
:1018A00018163CF4A701960160E070E08CED93EC13
:1018B0009CCF8092B9059092BA05A092BB05B092D8
:1018C000BC05B7CF10929700109296001092990025
:1018D000109298009ECEA3019201C501B4010E940E
:1018E000BC2D87FFDACE8091A00680FD11C010923A
:1018F0007E0510927D050CC0809171008D7F8093D4
:101900007100809190008F738093900010927E05FB
:10191000FF91EF91BF91AF919F918F917F916F91C7
:101920005F914F913F912F91FF90EF90DF90CF907B
:10193000BF90AF909F908F907F906F905F904F90EF
:101940000F900FBE0F901F901895C0927905D092FE
:101950007A05E0927B05F0927C05DECE109272054E
:1019600010926B0510926A0528E0929FC001112425
:10197000E80FF91F80819181A281B381809379055D
:1019800090937A05A0937B05B0937C0520E030E02E
:1019900040E85EE364817581868197810E94C12D54
:1019A0006B017C016091990270E090E080E00E9400
:1019B000A82C20E030E048EC52E40E94002C9B016F
:1019C000AC01C701B6010E94C12D609375057093EB
:1019D00076058093770590937805AACECF92DF9213
:1019E000EF92FF92CF93DF93EC016B01F42E809185
:1019F0006C05811102C00E946A0D8091A00680FFD3
:101A000062C0809171008D7F8093710080917D050F
:101A100081110E94930D81E080937E05D0939F06F3
:101A2000C0939E06D0929D06C0929C06F092A3069B
:101A300010927F0510928005109281051092820508
:101A40001092710588819981AA81BB818093790563
:101A500090937A05A0937B05B0937C0520E030E05D
:101A600040E85EE36C817D818E819F810E94C12D63
:101A70006B017C016091990270E090E080E00E942F
:101A8000A82C20E030E048EC52E40E94002C9B019E
:101A9000AC01C701B6010E94C12D6093750570931A
:101AA00076058093770590937805109274051092CF
:101AB0007305809171008260809371008091900025
:101AC000806880939000DF91CF91FF90EF90DF903E
:101AD000CF9008950E94E31F811102C00E94BF1F92
:101AE0000E9404208093A00680916C0581110FC094
:101AF0003E9A809171008D7F8093710082E0809387
:101B000090008AE18093910081E080936C05809140
:101B1000A00680FF07C040E065E070E08CE692E040
:101B20000C94EE0C089580916C05811102C00E9406
:101B30006A0D1092C0051092BF05809171008D7FD3
:101B400080937100809190008F7380939000109229
:101B50007E0510927D051092B9051092BA0510927B
:101B6000BB051092BC051092B5051092B6051092F7
:101B7000B7051092B8051092B4051092B305E3E9C9
:101B8000F5E0A3E8B5E011921192119211921D9225
:101B90001D9285E0E33BF807B1F70895CF92DF92FD
:101BA000EF92FF920F931F93CF93DF936B017C0112
:101BB00080917D05882309F467C080916C058111AF
:101BC00002C00E946A0D03E915E0C7E0D0E0A7015A
:101BD0009601F801648D758D868D978D0E94FB2B83
:101BE00081116CC0FE01EE0FFF1FEE0FFF1FED56BF
:101BF000FA4F1082118212821382CC0FDD1FCD5753
:101C0000DA4F1982188285E0EF3AF80709F045C0EB
:101C10008091BF059091C005019797FD57C09093A3
:101C2000C0058093BF058091BF059091C0052091AC
:101C3000BD053091BE052817390724F01092BE0566
:101C40001092BD05892B01F5809171008D7F8093E5
:101C50007100809190008F73809390001092B9056D
:101C60001092BA051092BB051092BC051092B505F2
:101C70001092B6051092B7051092B8051092B405EF
:101C80001092B30510927D05DF91CF911F910F91B6
:101C9000FF90EF90DF90CF90089584819581A68189
:101CA000B78181939193A193B19310821182128293
:101CB00013828A819B8189939993A3CF21970450A2
:101CC0001109CF3FDC0709F082CFA2CF1092C005E7
:101CD0001092BF05A8CFCF92DF92EF92FF92CF93E1
:101CE000DF936B017C01EA0180916C05811102C0D8
:101CF0000E946A0D8091A00680FF46C08091BF05BA
:101D00009091C00508970CF03FC0809171008D7FC5
:101D10008093710080917E0581110E94930D81E076
:101D200080937D0510926B0510926A0520E030E0EB
:101D3000A901C701B6010E94BC2D1816DCF48091E0
:101D4000BF059091C005FC01EE0FFF1FEE0FFF1FB6
:101D5000ED56FA4FC082D182E282F382FC01EE0F8F
:101D6000FF1FED57FA4FD183C08301969093C005B2
:101D70008093BF0580917100826080937100809193
:101D80009000806880939000DF91CF91FF90EF905A
:101D9000DF90CF9008958091A00681700895809182
:101DA000A00681608093A0060E9408200E94CD09B1
:101DB00040E062E070E08CE592E00C94EE0C40E0D4
:101DC00062E070E08CE492E00E94EE0C2FEF81EE76
:101DD00094E0215080409040E1F700C000000E9454
:101DE000930D8091A0068E7F8093A0060C9408200E
:101DF0008091C10590E00196877099278093C10575
:101E000008958091C10590E0079687709927809387
:101E1000C10508958F929F92AF92BF92CF92DF92A9
:101E2000EF92FF92CF93DF936B017C01C0916A0523
:101E3000D0916B05BE0190E080E00E94A82C4B0180
:101E40005C01A701960160E070E08CE594E40E94DB
:101E5000002C9B01AC01C501B4010E94C12D0E9460
:101E6000792C9B01E091C105E83018F5F0E0E55CC4
:101E7000F04F0C94D92F430F660F7F0F8710590F27
:101E8000CF1000113E111092940280E090E0A0E08B
:101E9000BFE38093950290939602A0939702B0932C
:101EA000980210926D0510926E0510926F051092B7
:101EB0007005C701B601DF91CF91FF90EF90DF90E1
:101EC000CF90BF90AF909F908F9008951092940202
:101ED00010926D0510926E0510926F0510927005AC
:101EE0006A50710980E090E0A0E8BEE36F3B7105A5
:101EF00008F460C080E090E0A0E0BEE35BC0109218
:101F0000940210926D0510926E0510926F0510925A
:101F1000700520E030E040EA52E4C701B6010E94BB
:101F2000FB2B87FDC6CF20E030E040E253E4C70141
:101F3000B6010E94FB2B87FF46C00E942B3068E24F
:101F400070E00E94C52FBC01645C7F4F072E000C1F
:101F5000880B990B0E94AA2C6B017C0180916A0569
:101F600090916B058B30910508F18531910508F052
:101F700052C065E170E0681B790B90E080E00E9440
:101F8000A82C20E030E040E05FE30E94C12D20E07B
:101F900030E040E251E40E94002C6093950270937F
:101FA0009602809397029093980283CF80E090E00E
:101FB000A0E0BFE38093950290939602A0939702CE
:101FC000B093980276CF20E030E040EA53E4C701B6
:101FD000B6010E94FB2B87FF27C00E942B3068EEC2
:101FE00073E00E94C52FBC0168517C4F072E000C86
:101FF000880B990B0E94AA2C6B017C0180916A05C9
:1020000090916B058630910588F265E170E085312D
:10201000910508F46BC010929502109296021092EE
:1020200097021092980245CF20E030E040E254E45D
:10203000C701B6010E94FB2B87FF2FC00E942B30E7
:1020400060ED77E00E94C52FBC016854744F072EE5
:10205000000C880B990B0E94AA2C6B017C018091CB
:102060006A0590916B058031910508F49FCF853109
:10207000910588F665E170E0681B790B90E080E0DF
:102080000E94A82C20E030E040E05FE30E94C12DD8
:1020900020E030E040EA50E47ECF20E030E040EA4B
:1020A00054E4C701B6010E94FB2B87FF02CF0E94B8
:1020B0002B3060ED77E00E94C52FBC016854744F4F
:1020C000072E000C880B990B0E94AA2C6B017C0137
:1020D00080916A0590916B058432910508F466CF72
:1020E0008333910508F097CF63E370E0681B790BA9
:1020F00090E080E00E94A82C20E030E040E05FE328
:102100000E94C12D20E030E040E751E444CF41E09F
:102110004093940210926D0510926E0510926F0517
:10212000109270056431710540F46A30710560F1F8
:1021300020E030E040E05FE32BC0693C710508F02F
:102140006ACF90E080E00E94A82C20E030E040EAD6
:1021500051E40E948E2B20E030E044E353E40E94DF
:10216000002C9B01AC010E94C12D20E030E040E03A
:102170005EE30E94C12D9B01AC0160E070E080E055
:102180009EE30E948E2B09CF20E030E040E85EE322
:10219000C701B6010E94C12D6B017C01ABCE21E0CD
:1021A0002093940210926D0510926E0510926F05A7
:1021B000109270054AE0469F9001479F300D112410
:1021C000C90168EB7BE00E94B12FBC016C5D7540DA
:1021D00077FF03C0719561957109072E000C880B7C
:1021E000990B0E94AA2C2EE333EC4EE259E30E9495
:1021F000C12D20E030E040EC5EE30E948F2BCDCE7D
:1022000081E08093940210926D0510926E051092F9
:102210006F0510927005CE0183709927892B09F103
:10222000BE016170772790E080E00E94A82C20E03A
:1022300030E040E05EE30E94C12D20E030E040E469
:102240005FE30E948F2B60939502709396028093B8
:10225000970290939802C770DD27CD2B09F029CE05
:10226000DACE80E090E0A0E0BFE380939502909307
:102270009602A0939702B0939802EDCF41E040936D
:10228000940210926D0510926E0510926F051092D7
:102290007005812C912CA12C9FE3B92E8092950280
:1022A00090929602A0929702B09298022739310537
:1022B00008F4FFCD90E080E00E94A82C20E030E000
:1022C00047E153E40E948E2B20E030E04AE754E4DB
:1022D0000E94002C20E030E048E452E40E94C12D2E
:1022E00020E030E040EA51E40E94F02C0E94722C81
:1022F000660F771F660F771F6E517B4FFB012081A2
:10230000318142815381C701B6010E94C12D6B0109
:102310007C01CFCD8091DB0581110C94CB09089510
:102320000E948A111092DB0540E068E070E08AE1CB
:1023300093E00C94EE0C1092DA0540E068E070E057
:102340008AE992E00C94EE0C0E948A112091D90542
:1023500030E02F5F3F4F237033272093D90548E2A9
:10236000429FC001439F900D112440E065E070E062
:1023700086569C4F0C94EE0CCF938091D605882303
:10238000F1F08091C2059091C305009779F40E9405
:1023900003219093C3058093C2058091C405282F23
:1023A00030E0882371F0C90101970FC00E940F210E
:1023B00020913A0430913B042817390740F3CF911C
:1023C00008958091C5058150990B2A533A4FF90120
:1023D000C0812091DB05222331F08A539A4FFC0102
:1023E00080810E94AD098091DB05882319F08C2F34
:1023F0000E948D098091C40590E001966091C50509
:1024000070E00E94C52F8093C405D9CF089581E064
:102410008093DB0540E068E070E08AE593E00E948D
:10242000EE0C0C940612089581E08093DA0540E0EA
:1024300068E070E08AED92E00E94EE0C0C941312BA
:10244000EF92FF921F93CF93DF93CDB7DEB7A397A1
:102450000FB6F894DEBF0FBECDBF7C0180324CE5D5
:10246000940751F4DB0112968C91882309F44DC036
:102470000E94071280E0ECC08132BCE59B0741F46A
:10248000FB018281882309F440C00E949011F2CFA1
:102490008232FCE59F0751F48091DB05DB01129647
:1024A0009C91992391F18111F0CFE2CF8632BCE566
:1024B0009B0739F4FB018281882339F10E941412B1
:1024C000D9CF8732FCE59F0741F4DB0112968C914E
:1024D0008823D9F00E949B11CDCF8832BCE59B07A1
:1024E00049F4FB018281882381F08091DA05811112
:1024F000F1CFE4CF83329C4541F4DB0112968C91FD
:10250000882319F00E94A411B5CF2091DB05211179
:1025100005C08091DA05882309F4E5C0FB0132810A
:10252000332309F450C0F0EEEF16F10461F40E9479
:102530008A1181E08093D8051092D7051092D605B4
:102540001092C50597CF42EEE416F10471F40E9493
:102550008A118091D805882319F081E08093D705EE
:102560001092D8051092D60585CF83EEE816F104B7
:1025700091F48091D705882331F10E948A1110923D
:10258000D80581E08093D6051092C4051092C3054A
:102590001092C2056FCF92E5E916F10451F48091D3
:1025A0003A0490913B040A9790933B0480933A0439
:1025B00061CFA1E5EA16F10431F480913A049091DB
:1025C0003B040A96F1CF8091D90510913E04811108
:1025D00011C0135080913C04180FFB018081180F2B
:1025E000418184E090E0841B9109FCE08F9F100DF5
:1025F000112414C08130C1F5105E80913C04180F85
:10260000DB018C91180F11964C9184E090E0841BB3
:102610009109982F990F990F890F180F332309F4F7
:102620005BC0222319F0812F0E948D098091D8056B
:10263000882351F08091C505E82FF0E0EA53FA4F66
:1026400010838F5F8093C50581E0EF2809F012CFDA
:10265000A3960FB6F894DEBF0FBECDBFDF91CF912A
:102660001F91FF90EF900895823071F4105E809179
:102670003C04180FFB018081180F418184E090E039
:10268000841B9109F7E0B2CF833041F683E2E7EA99
:10269000F4E0DE01119601900D928A95E1F7DB01DD
:1026A000EC9181E090E08C0F9D1F8E0F911DFC013D
:1026B00080913C0490913D04E80FF91F13508081F4
:1026C000180F11964C9184E090E0841B9109ACE0C6
:1026D0008A9F100D1124A2CF222309F4B5CF812F98
:1026E0000E94AD09B1CF81E0B3CFEDEDF5E086E01A
:1026F000DF011D928A95E9F708950E94E31F811179
:1027000002C00E94BF1F8DE090E00E943B3080938A
:10271000A4060895CF93C82F0E947513C093A406F2
:102720006C2F8DE090E0CF910C944930FF920F9385
:102730001F93CF93DF93D82FF62E0DED15E0C0E059
:10274000CD1307C0DF91CF911F910F91FF900C9493
:102750007513F80181918F01811101C0F1100E9460
:102760004924CF5FEDCFE82FF0E0E15CFB4F908193
:10277000E92FE295E695E695E370F0E0E352FA4F33
:102780008081892B808380E0089560E084E00E944E
:10279000961380E00E94492480E0089567E00E943B
:1027A000A52FE82FF0E0E352FA4F26E030E0291B96
:1027B000310981E090E0AC0102C0440F551F2A9519
:1027C000E2F78081842B808380E00895EDEDF5E0D1
:1027D00080818068808361E086E00E94961380E0BB
:1027E00008959C01FB0120338AE53807C1F030F4DD
:1027F000C9019A558A97D0F181E0089521333A456D
:10280000D9F790818181228143815481452B19F12F
:102810008F3F19F481E09F3FF9F080E01DC0908167
:102820008181228143815481452B39F08F3F19F4F6
:1028300081E09F3F19F080E001C081E080FD09C088
:10284000822F817020FFD9CF80E00E948A1380E020
:10285000089520E0F5CF81E080FD06C0822F8170D1
:1028600020FFCBCF81E0F1CF20E0F8CF4081818104
:10287000928163817481672B39F08F3F19F481E075
:102880004F3F19F080E001C081E080FD11C0892F29
:102890009091DC0580FF11C09F5F9093DC058091D3
:1028A000A406882339F0813091F6822F0C94CE1340
:1028B00080E0EECF822F0C94B3138FEF890F8093BB
:1028C000DC05811199CF8091A406882329F08130FD
:1028D00009F0BDCF0C94E6130C94C5139093E80552
:1028E0008093E7050895E091E705F091E8053097BA
:1028F00021F00190F081E02D099480E00895E091AD
:10290000E705F091E805309721F00280F381E02D92
:10291000099408952091E5053091E60528173907B7
:1029200071F09093E6058093E505E091E705F0915D
:10293000E805309721F00680F781E02D099408958D
:102940002091E3053091E4052817390771F0909341
:10295000E4058093E305E091E705F091E805309701
:1029600021F00084F185E02D0994089508950C94D8
:10297000B61481E008950E94FA200E9420080E9467
:1029800083210C947D135F926F927F928F929F921E
:10299000AF92BF92CF92DF92EF92FF920F931F936D
:1029A000CF93DF93CDB7DEB72A970FB6F894DEBF8B
:1029B0000FBECDBF0E9484080E94B914882309F479
:1029C00078C09AEEA92E95E0B92E10E000E0882498
:1029D0008394912C502E802F0E9445097C01F50193
:1029E000C190D1905F01C816D90609F45CC08091EE
:1029F000760681FD0E944E0990E080E0CE24DF241F
:102A00003401082E02C0660C771C0A94E2F7960186
:102A100026213721232B09F441C08E835F82E620D3
:102A2000F72081E0EF2809F480E088870E940321E5
:102A30008160782F9A8789874E815F8168858A8532
:102A40000E948015000F111FF801E651FA4F808196
:102A5000918168267926718260820E947314909118
:102A6000E9058917B9F10E9473148093E9052A9644
:102A70000FB6F894DEBF0FBECDBFDF91CF911F918F
:102A80000F91FF90EF90DF90CF90BF90AF909F900D
:102A90008F907F906F905F900C94810301968C30A3
:102AA000910509F0ADCF0F5F1F4F0430110509F0FC
:102AB00091CF8FEF89838A831B820E9403218160DB
:102AC000782F9D838C8349815A816B818D810E94EF
:102AD0008015C3CF2A960FB6F894DEBF0FBECDBFC8
:102AE000DF91CF911F910F91FF90EF90DF90CF90EA
:102AF000BF90AF909F908F907F906F905F90089560
:102B0000CF93DF93CDB7DEB72B970FB6F894DEBF28
:102B10000FBECDBF4F83588769877A878B871E8208
:102B20001D8285E0FE013796DE01119601900D921F
:102B30008A95E1F749815A816B817C818D819E81E3
:102B40002B960FB6F894DEBF0FBECDBFDF91CF91AD
:102B50000C94151CCF93C82F882309F4D4C0823855
:102B6000C1F40E94731481FDCEC089E30E940C1F42
:102B70000E94501F2FEF81EE94E021508040904042
:102B8000E1F700C0000089E30E94131FCF910C946D
:102B9000501F8338A1F40E94731480FDB4C083E5F4
:102BA0000E940C1F0E94501F2FEF81EE94E02150D5
:102BB00080409040E1F700C0000083E5E5CF843815
:102BC000A1F40E94731482FD9EC087E40E940C1F32
:102BD0000E94501F2FEF81EE94E0215080409040E2
:102BE000E1F700C0000087E4CFCF8CEF8C0F813A73
:102BF00048F48C2F0E944522811185C08C2F0E94A1
:102C00000C1FC4CF80E28C0F883048F4C77081E07D
:102C100001C0880FCA95EAF70E94861FB7CF8BE5DF
:102C20008C0F833068F481E890E0C53A31F083E896
:102C300090E0C63A11F482E890E0CF910C948A14A7
:102C400088E58C0F853108F05EC082EE90E0C83ACE
:102C500009F456C089EE90E0C93A09F451C08AEEF1
:102C600090E0CA3A09F44CC085EB90E0CB3A09F405
:102C700047C086EB90E0CC3A09F442C083EB90E089
:102C8000CB3BF1F184EB90E0CC3BD1F187EB90E0D2
:102C9000CD3AB1F18CEC90E0C03B91F18DEC90E03D
:102CA000CE3A71F183E891E0CF3A51F18AE891E0B0
:102CB000C13B31F182E991E0C23B11F184E991E03D
:102CC000C33BF1F081E292E0C43BD1F083E292E0B9
:102CD000C53BB1F084E292E0C63B91F085E292E020
:102CE000C73B71F086E292E0C83B51F087E292E088
:102CF000C93B31F090E080E0CA3B11F48AE292E0F7
:102D0000CF910C94A014CF910895882309F44BC05F
:102D1000823871F40E94731481FF45C089E30E94D8
:102D20000C1F0E94501F89E30E94131F0C94501F18
:102D3000833859F40E94731480FF35C083E50E94E4
:102D40000C1F0E94501F83E5EFCF843859F40E9476
:102D5000731482FF28C087E40E940C1F0E94501F3A
:102D600087E4E2CF9CEF980F913AF0F290E2980F4F
:102D7000983050F4877091E001C0990F8A95EAF776
:102D8000892F0E948C1FD2CF9BE5980F933020F49F
:102D900090E080E00C948A14885A853120F490E009
:102DA00080E00C94A0140895882321F00E94861FCF
:102DB0000C94501F0895882321F00E948C1F0C94BE
:102DC000501F08958F929F92AF92BF92DF92EF9221
:102DD000FF920F931F93CF93DF937C01D62FC72FC2
:102DE000FC01058102950F70128111110E94A51F2F
:102DF0000E94491FD82E882371F0112331F180E2FF
:102E00008D0F883010F182E00E94331F0E94491F0D
:102E100091E0D82ED926BC2EB2949FE0B922EB2D9A
:102E2000F0E0EB5EF84E0C94D92F27172717771791
:102E30007717B917C017C017C017E117C0177C184C
:102E40007C180619C017C0170F19D12CE4CF0C2F0E
:102E50000F70C07F11F00295007F1123A9F00023AD
:102E600059F080E28D0F883010F0D11109C0802F09
:102E70000E94861F0E94501F8D2F0E94AA1514C009
:102E8000802F0E94971FF6CF8D2F0E94851600235A
:102E900059F080E28D0F883010F0D11124C0802FBE
:102EA0000E948C1F0E94501FDD2009F4BFC10E94A8
:102EB000261F80FDBBC1F70112820E94201F0E94C5
:102EC000A61DC7010E9422190E94201FDF91CF91E9
:102ED0001F910F91FF90EF90DF90BF90AF909F9068
:102EE0008F900C94C71D802F0E949D1FDBCFFC2F5D
:102EF000FF70BF2EC07FC03219F0B29480EFB822AD
:102F0000DD2369F0D13021F1112369F1002329F18A
:102F1000F701858180FFB0CF8F7085831EC011239C
:102F200059F08B2D011103C00E94D416BDCF013082
:102F3000D9F70E94B91FB8CF011106C00E94BC1F6B
:102F40008B2D0E94DB16B0CF013009F4ADCFF6CF48
:102F5000112329F0063008F0A7CF8B2DE5CF0530DF
:102F600008F0A2CFEDCF002359F38D2F0E948516D4
:102F70009BCF8C2F86958695837079F08130B9F040
:102F800098E0B91609F459C0B91608F48DCF86EF48
:102F90008B0D823008F451C087CF8D2F9C2F9370FA
:102FA000111102C090E080E00E948A147DCF8D2F25
:102FB0009C2F9370111102C090E080E00E94A01439
:102FC00073CF8C2F837009F04BC0111136C02D2F99
:102FD000229526952770220F220F6D2F6F70862E57
:102FE000912CB12CA12C022E04C0880C991CAA1C77
:102FF000BB1C0A94D2F760E070E0CB01D4FF0FC095
:103000006FE070E080E090E004C0660F771F881FDB
:10301000991F2A95D2F76095709580959095C695E1
:10302000C695C370C23071F0A0F4682979298A2945
:103030009B29C13091F00E94581D0E9473140E9478
:10304000810332CF682979298A299B290E946A1D28
:10305000F4CF0E94581DC501B4010E94461DEDCF5A
:103060008695112311F08C2F8170882331F32D2F39
:10307000229526952770220F220F6D2F6F70862EB6
:10308000912CB12CA12C022E04C0880C991CAA1CD6
:10309000BB1C0A94D2F760E070E0CB01D4FF0FC0F4
:1030A0006FE070E080E090E004C0660F771F881F3B
:1030B000991F2A95D2F76095709580959095C69541
:1030C000C695C370C23051F080F4682979298A29E5
:1030D0009B29C13071F00E941D1EAFCF682979294C
:1030E0008A299B290E942F1EA8CF0E941D1EC50160
:1030F000B4010E940B1EA1CFE0E2ED0FE53108F014
:1031000066C0F0E0EA57F74E0C94D92F9B189B1835
:103110009B189B189B189B189B189B189B189B1817
:103120009B189B189B189B189B189B18AC18BA18D7
:10313000C118C818D218DF708C2F8F71112331F08D
:103140000E94A61D8D2F0E94D4161ACF0E94C71D63
:103150008D2F0E94DB1614CF112341F0053008F0AB
:103160000FCF8C2F8F710E94EA1D0ACF063008F016
:1031700007CFF7CF8C2F8F71112339F00E94A61D36
:10318000FFCE8C2F8F711123C9F30E94C71DF8CE7B
:10319000112329F08C2F8F710E94911DF1CE0E9476
:1031A0008C1DEECE112349F0CF718C2F0E94A61DED
:1031B00063E08C2F0E942A1FE3CE81E00E94331F20
:1031C000023008F4DDCE82E00E94331FD9CE1123F5
:1031D00049F0002321F08D2F0E94AA15D1CE8C2F0B
:1031E0008F71CCCF002379F0D93349F4FFEF27EE6C
:1031F00083E0F15020408040E1F700C000008D2FB7
:103200000E948516BDCE8C2F8F71BFCF4C2F4F7073
:103210006D2FC7010E9467050E94BE1C45CE4C2F32
:103220004F706D2FC7010E946A053ECEDF91CF918E
:103230001F910F91FF90EF90DF90BF90AF909F9004
:103240008F9008950F931F93CF93DF93EC01988194
:1032500089812B813C81232B39F08F3F19F481E048
:103260009F3F19F080E001C081E080FD17C0CE01D2
:103270000E94A903882391F0688179818A810E9444
:10328000E81E8C010E94411E0E94431DB801CE0120
:10329000DF91CF911F910F910C94E216DF91CF91A6
:1032A0001F910F9108950E94A51F0E94B61F0E94B2
:1032B0001A1F0E94501F90E080E00E948A1490E044
:1032C00080E00C94A0140E94941F0C9453190E9447
:1032D000DE1EE92FE295EF70E250EE30E0F4F0E010
:1032E000EC58F64E0C94D92F821982198B198B1930
:1032F0008D198B198B198B198219821992198B19B7
:103300008B199219803F19F020F4803E20F481E05F
:103310000895843FE1F380E00895803EC0F3813F4B
:10332000D1F7F5CF93FB882780F90895CF93DF93EA
:1033300000D000D01F92CDB7DEB70F900F900F9046
:103340000F900F90DF91CF910895CF93DF9300D02E
:1033500000D000D0CDB7DEB726960FB6F894DEBF0A
:103360000FBECDBFDF91CF9108951F93CF93DF9311
:10337000C091F30516E08091F4058C1304C0DF9131
:10338000CF911F910895D0E01C9FF0011D9FF00D7B
:103390001124EB50FA4F4081518162817381848105
:1033A00095810E94A5192196C770E5CF4091250609
:1033B0005091260660912706709128068091290673
:1033C00090912A060C94A5191F93CF93DF938091B7
:1033D0002A06807FD1F4809127068823B1F080915E
:1033E000F305D091F405B0912506C09126064091D1
:1033F000280650912906A1E0BF3F09F0A0E0BA01DC
:103400006095709516E0D81304C0DF91CF911F919D
:10341000089521E04115510521F02A2FCF3F09F0F1
:1034200020E090E020FD38C0189FF001199FF00DBA
:103430001124EB50FA4F21812C132EC020812B1325
:103440002BC02281211128C0238134812417350704
:1034500000F1241B350B283C3105F0F420912A069D
:103460002F70206120932A0626E0289FF001299FD3
:10347000F00D1124E650FA4F80818F7080618083B7
:1034800085E296E00E942219DF91CF911F910C9462
:10349000B519260F371FDFCF01968770B4CFAF92D3
:1034A000BF92CF92DF92EF92FF920F931F93CF9331
:1034B000DF93CDB7DEB761970FB6F894DEBF0FBECE
:1034C000CDBF8C0185E0F801DE011D9601900D92C3
:1034D0008A95E1F7D8014C9111965C91119712965B
:1034E000EC903091250660912606809128069091F7
:1034F000290621E0009731F06F3F19F421E03F3FAA
:1035000009F020E0B22FB170BB2E20FD80C1F80180
:10351000C380D480A0902706AA2009F427C1C8162A
:10352000D906D0F1D601A81BB90BCD01FF24F39425
:10353000883C910508F0F12C80912A06982F907F05
:10354000FF2009F4CAC0911187C0FE2C651329C061
:10355000341327C0E11025C08F70806180932A0644
:103560000E94D61985E296E00E94221980912A06CF
:10357000F80185838F2D61960FB6F894DEBF0FBEDC
:10358000CDBFDF91CF911F910F91FF90EF90DF9012
:10359000CF90BF90AF900895809590958C0D9D1D14
:1035A000C5CF81E0CD2831F05F3F19F481E04F3F76
:1035B00009F080E080FD24C081E08E25F82FF170B5
:1035C000DF2E80FF3FC08091F3052091F40536E0A7
:1035D000821318C04D875E878D859E850E94DE1EF2
:1035E000292F22952F70223008F1243030F59F705A
:1035F00009F1D80115969C91907FE1F4FB2CBACF8C
:1036000080E0DCCF90E0389FF001399FF00D11246D
:10361000EB50FA4F6181561306C06081461303C018
:1036200062816E110FC001968770D2CF9F7011F02A
:10363000882321F3805E883008F3C8010E94221994
:10364000BD2CDCCFEE2009F495CF80912A06816055
:1036500080932A06F12C8ECF651312C0341310C04C
:10366000E1100EC0F8018583C8010E94221986E08E
:10367000F801A5E2B6E001900D928A95E1F741C00C
:103680004D875E878D859E850E946719882309F482
:10369000C8C0EE2009F4C5C080912A06803270F0BF
:1036A000209125063091260638872F831986DB86E0
:1036B000CA868C87CE0107960E94221986E0F801FF
:1036C000A5E2B6E001900D928A95E1F70E94E41917
:1036D0000E94D619FF24F3944DCF911115C07C2D73
:1036E000D98AC88A6E2D89890E94961985E296E04A
:1036F0000E94221986E0E5E2F6E0DF011D928A953C
:10370000E9F70E94D61936CF651312C0341310C0E2
:10371000E1100EC0F8018583C8010E942219E5E27C
:10372000F6E086E0DF011D928A95E9F7FA2C22CFB8
:103730004D875E878D859E850E946719882309F4D1
:1037400070C0EE2009F46DC080912A06803208F422
:10375000B5CF20912506309126063A8329831B8216
:10376000DD82CC828E83CE010196A6CFC816D90603
:1037700038F1F601E81BF90BCF01F12C883C9105DB
:1037800008F03DC0FE2CEE2009F44BC0651326C0A6
:10379000341324C080912A0680FD17C0982F907F93
:1037A000A1F0D80115968C931597903F09F45CCF42
:1037B000982F907F905F8F70892B15968C9354CFA4
:1037C000809590958C0D9D1DD8CF86E0F801A5E2DF
:1037D000B6E001900D928A95E1F7CCCE4D875E87D9
:1037E0008D859E850E946719811168CF80912A0678
:1037F000816080932A06C8010E942219BBCE7C2DCD
:10380000D98AC88A6E2D89890E94961973CFEE20B5
:1038100041F04D875E878D859E850E9467198111D5
:103820004DCFC8010E94221955CF1F93CF93DF932C
:10383000CDB7DEB72C970FB6F894DEBF0FBECDBF65
:103840004F83588769877A878B879C87CE01079635
:103850000E944F1A882309F442C09F8188852A85D7
:103860003B85232B39F08F3F19F481E09F3F19F0FE
:1038700080E001C081E080FD08C04F8158856985E6
:103880007A858B859C850E94A51916E08091F305A9
:103890009091F405891709F467C0819FC001112434
:1038A0008B509A4F0E944F1A882309F45DC0E09113
:1038B000F3051E9FF0011124EB50FA4F4081518116
:1038C00062817381848195810E94A5198091F3059D
:1038D00090E00196877099278093F305D7CF86E013
:1038E000FE013796DE01119601900D928A95E1F75F
:1038F0009F8188852A853B85232B39F08F3F19F4DA
:1039000081E09F3F19F080E001C081E080FDBDCFE4
:103910002091F40530E0C901019687709927409104
:10392000F3054817190699F096E0929FD001939FEE
:10393000B00D1124AB50BA4FFE01319601900D929B
:103940009A95E1F78093F4050E94B5199ECF0E94E5
:1039500063191092F4051092F30586E0E5E2F6E0B3
:10396000DF011D928A95E9F72C960FB6F894DEBF19
:103970000FBECDBFDF91CF911F910895EF92FF92BF
:103980000F931F93CF93DF938C01892B81F0F12C40
:10399000EE24E394E8012196F8018491843770F4D1
:1039A000843008F05FC08130B1F08230A1F1DF9146
:1039B000CF911F910F91FF90EF900895853709F4F3
:1039C0004CC008F43DC09CE7980F903780F78F7784
:1039D0000E94851649C00E5F1F4FFE01849190E240
:1039E000980F983060F48770FE2D01C0FF0F8A9504
:1039F000EAF78F2F0E94A81F0E94501F02C00E944A
:103A0000AA158F2D815030F2EFE9FFE03197F1F7E1
:103A100000C00000F7CF0E5F1F4FFE01849190E2BF
:103A2000980F983050F48770FE2D01C0FF0F8A95D3
:103A3000EAF78F2F0E94AE1FDFCF0E948516E1CFDD
:103A40000E5F1F4FFE01C491C150D8F28FE99FE075
:103A50000197F1F700C00000F7CF0E5F1F4FFE0186
:103A6000F490CFCF0E94AA158E01CBCF08950E946B
:103A7000361D60934D0670934E0680934F069093CB
:103A800050060C94531908950C94371D0F931F93EF
:103A900000914D0610914E0620914F063091500630
:103AA000602B712B822B932B1F910F910C94371D40
:103AB0000F931F9300914D0610914E0620914F06D3
:103AC0003091500660237123822393231F910F911D
:103AD0000C94371D0F931F9300914D0610914E06C5
:103AE00020914F0630915006602771278227932737
:103AF0001F910F910C94371D0C94361D0C947C1D56
:103B00000E947E1D6093490670934A0680934B067F
:103B100090934C060C94531960E070E0CB010C9428
:103B2000801D0F931F9341E050E060E070E08A0138
:103B30009B0104C0000F111F221F331F8A95D2F76B
:103B4000C901B8011F910F910C94801D0F931F9311
:103B500041E050E060E070E004C0440F551F661F74
:103B6000771F8A95D2F78091490690914A06A091D5
:103B70004B06B0914C068A019B01082B192B2A2B6E
:103B80003B2BC901B8011F910F910C94801D0F931D
:103B90001F9341E050E060E070E004C0440F551F07
:103BA000661F771F8A95D2F7CB01BA016095709591
:103BB000809590950091490610914A0620914B06F8
:103BC00030914C0660237123822393231F910F9120
:103BD0000C94801D0F931F9341E050E060E070E073
:103BE00004C0440F551F661F771F8A95D2F7809136
:103BF000490690914A06A0914B06B0914C068A0165
:103C00009B01082719272A273B27C901B8011F91C3
:103C10000F910C94801D0F931F93009149061091F2
:103C20004A0620914B0630914C06602B712B822B5B
:103C3000932B1F910F910C94801D0F931F93009154
:103C4000490610914A0620914B0630914C0660239C
:103C50007123822393231F910F910C94801D0F9346
:103C60001F930091490610914A0620914B0630910E
:103C70004C0660277127822793271F910F910C9480
:103C8000801D08952CE0929F800D1124982F97702D
:103C900071E001C0770F9A95EAF78695869586952B
:103CA00025E0829FC001112450E040E0A62FB0E043
:103CB000FC01E40FF51FE55DF94F60819D01042EC5
:103CC00002C0369527950A94E2F7217021952627A0
:103CD0002723262720834F5F5F4F4530510541F74B
:103CE00008952CE0929F800D1124982F977086954F
:103CF0008695869525E0829FA001112470E060E002
:103D000080E0FA01E60FF71FE55DF94F208130E012
:103D1000092E02C0369527950A94E2F721703327C1
:103D2000062E01C0220F0A94EAF7822B6F5F7F4FA5
:103D30006530710531F70895BF92CF92DF92EF920F
:103D4000FF920F931F93CF93DF938C01C09049068E
:103D5000D0904A06E0904B06F0904C0680914D06BC
:103D600090914E06A0914F06B0915006C82AD92ACC
:103D7000EA2AFB2ACFE1D0E0BC2ED701C6010C2EE7
:103D800004C0B695A795979587950A94D2F780FDBC
:103D90000EC0219788F7B12C8B2DDF91CF911F9109
:103DA0000F91FF90EF90DF90CF90BF900895B801F2
:103DB0008C2F0E948705019761F3EECFCF93DF939D
:103DC000EC010E949C1EBE01DF91CF910C948705EF
:103DD0001F93CF93DF93EB019091F205992331F07C
:103DE000CB01DF91CF911F910C94DE1E882379F0D7
:103DF000CB010E949C1E182F682FCE010E94421EEC
:103E0000BE01812FDF91CF911F910C948705CB01CB
:103E10000E94711E182FF4CF682F80917F0490911B
:103E200080040C946A20682F80917F049091800414
:103E30000C94752080917F04909180040C948020D4
:103E400080915106859585958595089580915106B7
:103E50008770089598E0899F90011124622B6093E8
:103E600051060C94A61D909151068095892380934C
:103E70005106282F277061F4282F082E000C330BD1
:103E80009217130629F08595859585950C94C71D85
:103E9000089590915106977081E009F480E00895AB
:103EA000E0917F04F0918004809175068083E09119
:103EB0007F04F0918004808190917406892B808327
:103EC000E0917F04F0918004808190917306892BAA
:103ED000808390915206992381F0E0917F04F091C4
:103EE00080048081892B808380917F04909180045D
:103EF0000E940D2081111092520680917F049091B2
:103F000080040C947F148091750608959091750635
:103F1000892B809375060895982F9095809175064A
:103F200089238093750608951092750608959091DF
:103F30007406892B809374060895982F909580912C
:103F40007406892380937406089510927406089568
:103F500090917306892B809373060895982F9095FE
:103F600080917306892380937306089510927306D7
:103F700008958093520608951092520608956DEEAA
:103F80007EEF90E080E00E945B3060E082E090E0B5
:103F90000E94493060E083E090E00E94493060E098
:103FA00084E090E00E94493060E085E090E00E946B
:103FB00049306FEF87E090E00E94493060E08DE08B
:103FC00090E00C94493090E080E00E94433021E082
:103FD0008D3E9E4F09F020E0822F089582E090E010
:103FE0000C943B3083E090E00C943B30682F83E0EE
:103FF00090E00C94493084E090E00C943B30682FC2
:1040000084E090E00C94493087E090E00C943B30E1
:10401000682F87E090E00C944930FC0131969C01B8
:10402000205E3F4F80E0919191118F5FE217F3077F
:10403000D1F708959C01FC0132969FEF80E04191F9
:10404000461751F09F3F19F4411101C0982F8F5F1F
:104050008E31A9F79F3F09F40895290F311D97FD6F
:104060003A95F90162830895FC0132968096219178
:10407000261303C0DF0111971C92E817F907B9F75F
:104080000895E62FE695E695E695EF3169F0E80F9D
:10409000F92FF11D677021E030E001C0220F6A9511
:1040A000EAF78181822B81830895E62FE695E695D4
:1040B000E695EF3171F0E80FF92FF11D677021E0FF
:1040C00030E001C0220F6A95EAF72095818128230C
:1040D000218308952091A604222329F02091A90686
:1040E00027FD0C9441200C941A202091A604222331
:1040F00029F02091A90627FD0C9455200C9434201A
:10410000FC01319680961192E817F907E1F70895BE
:104110008091AF06843039F11092770688E190E003
:1041200020E40FB6F894A895809360000FBE20930A
:10413000600080E00E94810383B7817F846083BF39
:1041400083B7816083BF7894889583B78E7F83BF60
:104150000FB6F894A8958091600088618093600004
:10416000109260000FBE089508950895CF930E94A5
:10417000B4200E9484080E94B520C0E08C2F0E94C9
:104180004509892B31F4CF5FC430C1F780E0CF916E
:10419000089581E0FCCF0E9463190E9473140C946F
:1041A00081031F920F920FB60F9211248F939F934A
:1041B000AF93BF9380917706811113C08091A506BC
:1041C0009091A606A091A706B091A8064196A11DC0
:1041D000B11D8093A5069093A606A093A706B09361
:1041E000A806BF91AF919F918F910F900FBE0F9036
:1041F0001F90189582E084BD93E095BD9AEF97BD1E
:1042000080936E0008952FB7F8948091A506909141
:10421000A606A091A706B091A8062FBF0895CF9239
:10422000DF92EF92FF920F931F932FB7F894409174
:10423000A5065091A6066091A7067091A8062FBF0B
:104240006A017B01EE24FF248C0130E020E0C016DF
:10425000D106E206F30650F0481B590BCA011F9124
:104260000F91FF90EF90DF90CF900895415051094A
:10427000F3CF78941F920F920FB60F9211248F9361
:104280009F93AF93BF938091A5069091A606A091AE
:10429000A706B091A8060196A11DB11D8093A506A1
:1042A0009093A606A093A706B093A806BF91AF91DE
:1042B0009F918F910F900FBE0F901F90189581E0E6
:1042C0008093E00080E28093D8001092C9008FE1D3
:1042D0009EE40197F1F700C0000087E090EBDC015D
:1042E0008093B8069093B906A093BA06B093BB0624
:1042F00088E19CE00FB6F894A895809360000FBE0B
:1043000090936000FFCF0E94E31F811102C00E94C2
:10431000BF1F0E94EE1F809376060E94FB1F90E055
:104320009093AA068093A9060E94F21F682F70E05E
:1043300090E080E00C94441D0F931F9341E050E007
:1043400060E070E08A019B0104C0000F111F221F72
:10435000331F8A95D2F7C901B8010E94441D1F91ED
:104360000F910C946319873208F043C08E3108F026
:1043700086C0803109F478C0C8F4873009F465C07C
:1043800028F4863009F457C080E008958B3009F492
:1043900050C08E30C9F790917606892F8B7F92FF9F
:1043A00084608093760682FD20C043C0863109F484
:1043B00040C068F4813141F70E9463199091A906C9
:1043C000892F97FB87F980588093A90632C08931DD
:1043D00081F18B31C9F690917606892F8D7F91FFFF
:1043E00082608093760681FF24C08091760681608A
:1043F00038C08833F1F050F4893221F0853311F060
:10440000873211F680E00E949C2113C08334D1F3DF
:1044100028F48A3308F4B8CF8953F5CF883409F0EB
:10442000B3CF0E9463190E94930D0E9483030E94E0
:104430005F2181E0089580917606817F8E7F809351
:10444000760681E080937806089590917606892F0C
:104450008E7F90FF81608093760680FDEACF897F12
:10446000877F80937606E5CF90917606892F877FA8
:1044700093FF88608093760683FDB7CFDACF8D51A6
:10448000C2CF80E008950C944122CF93C82F809131
:104490007806882331F08130B1F01092780680E000
:1044A00010C0E0917F04F091800480818232B9F7DE
:1044B0008C2F0E944122811119C08C2F0E94B321A0
:1044C0008170CF910895E0917F04F0918004808104
:1044D000823271F38C2F0E94432281110EC0C431AD
:1044E00071F038F4CB3049F080E0EACF81E090E021
:1044F000E7CFC93221F0C833B9F781E0E1CF10929C
:104500007806F2CF80919906089508950F931F932E
:10451000CF93DF9300D01F92CDB7DEB78C010E94FE
:104520003825823011F0843021F583E089831B83A4
:104530000A8382E08093E9008FEF9091E800815038
:1045400095FD06C095ED9A95F1F700008111F5CF24
:104550008091E80085FF0DC050E040E063E070E02E
:10456000CE0101960E9455258091E8008E778093B8
:10457000E8000F900F900F90DF91CF911F910F9156
:104580000895CF93DF9300D01F92CDB7DEB720916F
:10459000AF06243029F522E02983805891099B83B6
:1045A0008A832093E9008FEF9091E800815095FD78
:1045B00006C095ED9A95F1F700008111F5CF809135
:1045C000E80085FF0DC050E040E063E070E0CE0100
:1045D00001960E9455258091E8008E778093E8002F
:1045E0000F900F900F90DF91CF910895CF93DF93AD
:1045F000EC010E943825823011F08430F9F480916A
:10460000A6048823F1F08091A90687FF1AC083E0F1
:104610008093E9008FEF9091E800815095FD06C0EE
:1046200095E19A95F1F700008111F5CF8091E800AE
:1046300050E040E060E270E085FD1AC0DF91CF916C
:10464000089581E08093E9008FEF9091E800815018
:1046500095FD06C095ED9A95F1F700008111F5CF13
:104660008091E80085FFEACF50E040E068E070E02C
:10467000CE010E9455258091E8008E778093E80056
:1046800080E2FE01A9E7B6E001900D928A95E1F77C
:10469000D5CF8091AE06811109C00E94E5260E9407
:1046A00042278091E20084608093E2000895109296
:1046B000AE060895089508950C94CB2042E061EC75
:1046C00081E00E94632642E061EC82E00E94632662
:1046D00042E261EC83E00E94632642E061EC84E008
:1046E0000E94632642E160E886E00E94632642E180
:1046F00061E885E00C9463268091B106833009F46B
:1047000057C048F4813081F1823009F499C081E8C2
:1047100094E00C94DC2A8A3009F481C08B3009F4CF
:1047200064C08930A1F78091B006813281F7809111
:10473000B4069091B506009711F0029741F7809169
:10474000E800877F8093E8008091E80082FF2BC01B
:104750008091F100809399068091E8008B77809397
:10476000E8000E949726D3CF8091B006813A79F66F
:104770008091E800877F8093E8008091B406909153
:10478000B506892B61F460E289E796E070E00E944B
:10479000A4258091E8008B778093E800B8CF60E093
:1047A00090E080E0F3CF8091AF068111CDCF0895E6
:1047B0008091B006813A09F0AACF8091B406909119
:1047C000B506892B09F0A3CF8091E800877F8093FD
:1047D000E8008091E80080FFFCCF8091A6048093E0
:1047E000F1008091E8008E77BACF8091B0068132D7
:1047F00009F08DCF8091B4069091B506892B09F010
:1048000086CF8091E800877F8093E8000E949726FA
:104810008091B2068093A6040E94631978CF80919C
:10482000B006813209F073CF8091E800877F8093D2
:10483000E8000E9497268091B30680939A0667CF7E
:104840008091B006813A09F062CF8091E800877FBD
:104850008093E8008091E80080FFFCCF80919A0669
:10486000BECF82E090E0909394048093930481E81B
:1048700094E00C94942A089581E894E00E942F2AF1
:10488000892B31F081E894E00E945E2A0C943B244D
:104890000895CF93C091E9009091EC0090FD19C06C
:1048A00090E02091910420FF12C0CF70C92B90910D
:1048B00082049F709093E9009091EB0090FF04C0F8
:1048C0009091EE0097FD07C0CF70C093E900CF91A3
:1048D000089590E8E6CF9FEF2091E800915025FDE4
:1048E00006C025ED2A95F1F700009111F5CF8093D0
:1048F000F10081E894E00E94E7298091E80080FFC0
:10490000E3CF8091E8008E778093E800DDCF84B715
:10491000877F84BF0FB6F894A89580916000886166
:1049200080936000109260000FBE80E88093610069
:10493000109261000E94B7140E94E5260E9442274F
:104940008091E20084608093E20078940E94CB29F9
:104950000E94BB148CE994E00E946E140E943124E2
:104960008091AF06853049F00E94C3140E943C2418
:1049700081E894E00E94182AF3CF0E948820809159
:10498000AD06882369F30E94B620882349F30E946C
:104990003F25E6CF0C94CC24292F33272330310533
:1049A00079F158F421303105F1F02230310519F157
:1049B00090E080E030E020E01AC021323105C9F1FA
:1049C00022323105A9F76330710590F7FB01EE0F34
:1049D000FF1FEB5CFA4F208131816E5C7A4FFB0147
:1049E000808190E004C082E190E025EC33E0FA01A0
:1049F00031832083089581E990E024E333E0F7CF09
:104A000099278130910579F040F08230910571F05D
:104A1000039771F6EEE0F3E002C0E0E3F3E0849187
:104A200090E09F01E4CFE4E2F3E0F9CFE4E1F3E0CA
:104A3000F6CF6330710508F0BBCF660F771FFB011F
:104A4000E55CFA4F2081318189E090E0D0CF089574
:104A5000CF93C82F0E942725C0939B06CF9108951E
:104A60008091AF06843011F081E0089582E00895CE
:104A700080919B06811102C00C943025089580E13D
:104A800089BD82E189BD09B400FEFDCF8091D800C7
:104A90008F7D8093D8008091E00082608093E00059
:104AA0008091E00081FDFCCF0895AF92BF92CF923C
:104AB000DF92FF920F931F93CF93DF936C01EB0173
:104AC0008A010E94B626F82E811123C00115110516
:104AD00039F0F80180819181C81BD90BC80ED91E0D
:104AE000B12CA12C2097A9F08091E80085FD22C06F
:104AF0008091E8008E778093E80001151105A1F000
:104B0000F80180819181A80EB91EB182A08285E052
:104B1000F82E8F2DDF91CF911F910F91FF90DF9095
:104B2000CF90BF90AF9008950E94B6268823D1F20F
:104B3000F82EEFCFF60181916F018093F10021975C
:104B4000FFEFAF1ABF0ACECFFC018091B60690915D
:104B5000B70686179707A0F06115710529F49091A3
:104B6000E8009E779093E80090E06115710551F49C
:104B7000911108C08091E80082FF35C080E008955F
:104B8000BC01F2CF8091AF068823C9F18530C9F10D
:104B90008091E80083FD31C08091E80082FDEACF7A
:104BA0008091E80080FFE1CF2091F3008091F20036
:104BB000322F282F6115710519F02830310558F072
:104BC00091E02830310509F090E02091E8002E773F
:104BD0002093E800CACF81918093F1006150710960
:104BE0002F5F3F4FE7CF8091AF06882341F085309C
:104BF00041F08091E80083FFBDCF81E0089582E01D
:104C0000089583E00895FC018091B6069091B7065F
:104C100086179707A0F06115710529F48091E800C7
:104C20008E778093E80090E06115710551F4911141
:104C300008C08091E80082FF36C080E00895BC0182
:104C4000F2CF8091AF068823D1F18530D1F18091E8
:104C5000E80083FD32C08091E80082FDEACF8091B8
:104C6000E80080FFE1CF2091F3008091F200322F25
:104C7000282F6115710519F02830310558F091E0A1
:104C80002830310509F090E08091E8008E7780931C
:104C9000E800CACF84918093F10031966150710988
:104CA0002F5F3F4FE6CF8091AF06882341F08530DC
:104CB00041F08091E80083FFBCCF81E0089582E05D
:104CC000089583E00895982F973028F08F7080938F
:104CD000E90081E008959093E900242F762F50E0B9
:104CE000981731F07091EC002091ED005091F00098
:104CF00021FD02C09F5FE8CF3091EB003E7F3093F3
:104D0000EB003091ED003D7F3093ED003091EB00F2
:104D100031603093EB007093EC002093ED005093E2
:104D2000F0002091EE0027FDE5CF80E0089580910E
:104D3000B00687FF13C08091E80082FF06C0809113
:104D4000E8008B778093E80004C08091AF06811162
:104D5000F2CF08958091AF068823D9F38091E800BF
:104D600080FFF8CF8091E8008E77ECCF2091E400AF
:104D70003091E50085E69091EC0090FF06C090919F
:104D8000E80090FF06C080E008959091E80092FD51
:104D9000FACF9091AF06992391F0953091F09091D0
:104DA000EB0095FD10C04091E4005091E500241700
:104DB000350709F381509A01F1F684E0089582E005
:104DC000089583E0089581E008950E9453270E948A
:104DD0005B27E0EEF0E0808181608083E8EDF0E029
:104DE00080818F77808319BCA7EDB0E08C918E7F96
:104DF0008C9380818F7E80831092AE0608950F93EE
:104E00001F93CF93DF930E9453270E945B27C8ED27
:104E1000D0E088818F7788838881806888838881C3
:104E20008F7D888319BC1092AF061092AB0610924A
:104E3000AD061092AC0600EE10E0F80180818B7F89
:104E4000808388818160888342E060E080E00E9406
:104E50006326E1EEF0E080818E7F8083E2EEF0E079
:104E6000808181608083808188608083F801808177
:104E70008E7F8083888180618883DF91CF911F91AD
:104E80000F910895E8EDF0E080818F7E8083E7ED5B
:104E9000F0E080818160808384E082BF81E0809344
:104EA000AE060C94FF26E8EDF0E080818E7F8083D3
:104EB0001092E20008951092DA001092E100089535
:104EC0001F920F920FB60F9211242F933F934F937F
:104ED0005F936F937F938F939F93AF93BF93EF9362
:104EE000FF938091E10082FF0BC08091E20082FF7E
:104EF00007C08091E1008B7F8093E1000E94CA2966
:104F00008091DA0080FF19C08091D80080FF15C021
:104F10008091DA008E7F8093DA008091D90080FF43
:104F200094C080E189BD82E189BD09B400FEFDCF56
:104F300081E08093AF060E9449238091E10080FFC9
:104F400019C08091E20080FF15C08091E2008E7F41
:104F50008093E2008091E20080618093E200809182
:104F6000D80080628093D80019BC85E08093AF069A
:104F70000E945B238091E10084FF29C08091E200C0
:104F800084FF25C080E189BD82E189BD09B400FEAE
:104F9000FDCF8091D8008F7D8093D8008091E10073
:104FA0008F7E8093E1008091E2008F7E8093E2000B
:104FB0008091E20081608093E2008091AB068823BB
:104FC00009F449C084E08093AF060E945C2380917D
:104FD000E10083FF29C08091E20083FF25C080911A
:104FE000E100877F8093E10082E08093AF0610921A
:104FF000AB068091E1008E7F8093E1008091E2001A
:105000008E7F8093E2008091E20080618093E200D5
:1050100042E060E080E00E9463268091F0008860BA
:105020008093F0000E945A23FF91EF91BF91AF91BE
:105030009F918F917F916F915F914F913F912F91B0
:105040000F900FBE0F901F90189519BC1092AF06CD
:105050000E94572372CF8091E30087FD02C081E058
:10506000B2CF83E0B0CF1F920F920FB60F921124F0
:105070002F933F934F935F936F937F938F939F9360
:10508000AF93BF93CF93EF93FF93C091E900CF709D
:105090008091EC001092E9008091F000877F80936E
:1050A000F00078940E946F281092E9008091F0003F
:1050B00088608093F000C093E900FF91EF91CF9159
:1050C000BF91AF919F918F917F916F915F914F9120
:1050D0003F912F910F900FBE0F901F9018951F9327
:1050E000CF93DF93CDB7DEB7AA970FB6F894DEBFA4
:1050F0000FBECDBFE0EBF6E08091F100819326E09A
:10510000E83BF207C9F70E947C238091E80083FF07
:1051100044C08091B0069091B1069A3008F03DC02D
:10512000E92FF0E0EA56F74D0C94D92FA028C628B5
:10513000CD28C628CD2824294629CD289D29AA294D
:10514000803889F0823849F58091B4068F708730B5
:1051500020F58093E9008091EB0085FB882780F99A
:105160001092E90006C08091AC069091AD069111B5
:1051700082609091E800977F9093E8008093F1001F
:105180001092F1008091E8008E772DC0282F2D7F9E
:1051900021F48823D1F0823059F18091E80083FF17
:1051A0000AC08091E800877F8093E8008091EB003F
:1051B00080628093EB00AA960FB6F894DEBF0FBE14
:1051C000CDBFDF91CF911F9108958091B2068130BC
:1051D00021F7933009F080E08093AD061092E9004A
:1051E0008091E800877F8093E8000E949726D5CFC2
:1051F0008091B2068111F2CF8091B4068F702FEFAB
:10520000280F263050F68093E9002091EB0020FF14
:10521000E5CF933031F48091EB0080628093EB0016
:10522000DDCF9091EB0090619093EB0021E030E0B6
:1052300001C0220F8A95EAF72093EA001092EA0053
:105240008091EB008860EACF8111A7CF1091B20660
:105250001F778091E3008078812B8093E300809119
:10526000E800877F8093E8000E9497268091E800FD
:1052700080FFFCCF8091E30080688093E30083E0AF
:10528000111101C082E08093AF0687CF8058823031
:1052900008F083CF8091B2069091B3068C3D23E055
:1052A0009207A1F583E08A838AE289834FB7F89455
:1052B000DE01139620E03EE051E2E32FF0E0509350
:1052C0005700E49120FF03C0E295EF703F5FEF705D
:1052D0008E2F90E0EA30C0F0C7968D939D932F5F9C
:1052E000243159F74FBF8091E800877F8093E80011
:1052F0006AE270E0CE0101960E94A4258091E80048
:105300008B778093E80049CFC096E7CF6091B406D1
:105310007091B506AE014F5F5F4F0E94CA24BC0179
:10532000892B09F43ACF9091E800977F9093E80099
:1053300089819A810E940326E1CF803809F02DCF20
:105340008091E800877F8093E8008091AB0680938E
:10535000F10018CF811121CF9091B206923008F060
:105360001CCF8091E800877F8093E8009093AB0684
:105370000E9497268091AB06882331F084E08093C9
:10538000AF060E945E2309CF8091E30087FDF6CF30
:1053900081E0F5CF0895CF938091AF06882399F0EF
:1053A000C091E900CF708091EC0080FD0EC080E0DC
:1053B000C82B1092E9008091E80083FD0E946F28BD
:1053C000CF70C093E900CF91089580E8F1CF20918C
:1053D000AF06243059F5FC014489558966897789DF
:1053E000452B462B472B11F181818F708093E9006B
:1053F0008091F3009091F200892798278927892BC3
:1054000011F480E008959091E8008091E8008E7793
:105410008093E80095FDF5CF0E94B626811107C064
:105420009091E8009E779093E800089582E00895B7
:105430002091AF06243091F4FC0144895589668996
:105440007789452B462B472B49F021812F702093DC
:10545000E9002091E80020FD0C94E72908952091AF
:10546000AF06243019F090E080E00895FC014489F3
:10547000558966897789452B462B472BA1F3868171
:105480008F708093E9008091E80082FFECCF8091DB
:10549000F3009091F200892798278927009731F42B
:1054A0002091E8002B772093E80008958091F30085
:1054B0009091F20089279827892708952091AF06B7
:1054C000243019F08FEF9FEF0895FC01448955892E
:1054D00066897789452B462B472BA1F386818F70F0
:1054E0008093E9008091E80082FFECCF8091F30087
:1054F0009091F200892798278927892B91F0809134
:10550000F10090E02091F3003091F2002327322740
:105510002327232B29F42091E8002B772093E80000
:1055200008958FEF9FEFEECF0F931F93CF93DF93ED
:10553000CDB7DEB728970FB6F894DEBF0FBECDBF4C
:105540008C018091AF06843059F5F80184899589E2
:10555000A689B789892B8A2B8B2B11F183858F70B4
:105560008093E90088E0EAECF4E0DE011196019016
:105570000D928A95E1F750E040E068E070E0CE01DE
:1055800001960E94552550E040E062E070E0C801BD
:1055900042960E9455258091E8008E778093E8001E
:1055A00028960FB6F894DEBF0FBECDBFDF91CF9126
:1055B0001F910F9108950895CF93DF93EC0180918F
:1055C000E80083FF10C028818091B4069091B50651
:1055D0002817190641F48091B1068132F1F030F4B8
:1055E000803209F450C0DF91CF910895823209F4DE
:1055F0007EC08332C1F78091B0068132A1F78091DD
:10560000E800877F8093E8000E9497266091B206A9
:10561000CE01DF91CF910C94DB2A8091B006813AC4
:1056200011F78091E800877F8093E8008091E8007F
:1056300080FFFCCF8C899D89AE89BF898093F10062
:10564000492F5A2F6B2F77274093F100AD01662722
:1056500077274093F1008B2F9927AA27BB278093A8
:10566000F100888D8093F100898D8093F1008A8DFF
:105670008093F1008091E8008E778093E800DF91BD
:10568000CF910C9497268091B006813209F0ABCF70
:105690008091E800877F8093E8008091E80082FF96
:1056A00021C03091F1002091F1009091F1008091A2
:1056B000F1003C8B2D8B9E8B8F8B8091F100888F1E
:1056C0008091F100898F8091F1008A8F8091E800AC
:1056D0008B778093E8000E949726CE01DF91CF91CF
:1056E0000C94DB2A8091AF068111D7CF7CCF8091BB
:1056F000B006813209F077CF8091E800877F8093F0
:10570000E8000E9497268091B2069091B306998B8B
:10571000888BCE01DF91CF910C94DB2A5058BB27A8
:10572000AA270E94A62B0C94822D0E94742D38F07B
:105730000E947B2D20F039F49F3F19F426F40C943D
:10574000712D0EF4E095E7FB0C945D2DE92F0E947E
:10575000932D58F3BA17620773078407950720F053
:1057600079F4A6F50C94B52D0EF4E0950B2EBA2F16
:10577000A02D0B01B90190010C01CA01A001112457
:10578000FF27591B99F0593F50F4503E68F11A1603
:10579000F040A22F232F342F4427585FF3CF469594
:1057A00037952795A795F0405395C9F77EF41F16B6
:1057B000BA0B620B730B840BBAF09150A1F0FF0F80
:1057C000BB1F661F771F881FC2F70EC0BA0F621F6C
:1057D000731F841F48F4879577956795B795F7955C
:1057E0009E3F08F0B0CF9395880F08F09927EE0FF1
:1057F0009795879508950E94392D08F481E00895C2
:105800000E94142C0C94822D0E947B2D58F00E9433
:10581000742D40F029F45F3F29F00C945D2D511157
:105820000C94B62D0C94712D0E94932D68F399233E
:10583000B1F3552391F3951B550BBB27AA2762178C
:105840007307840738F09F5F5F4F220F331F441F99
:10585000AA1FA9F335D00E2E3AF0E0E832D09150CD
:105860005040E695001CCAF72BD0FE2F29D0660FBA
:10587000771F881FBB1F261737074807AB07B0E8FD
:1058800009F0BB0B802DBF01FF2793585F4F3AF003
:105890009E3F510578F00C945D2D0C94B62D5F3F22
:1058A000E4F3983ED4F3869577956795B795F79589
:1058B0009F5FC9F7880F911D9695879597F9089571
:1058C000E1E0660F771F881FBB1F6217730784070D
:1058D000BA0720F0621B730B840BBA0BEE1F88F71C
:1058E000E09508950E94792C6894B1110C94B62D1E
:1058F00008950E949B2D88F09F5798F0B92F992703
:10590000B751B0F0E1F0660F771F881F991F1AF0AA
:10591000BA95C9F714C0B13091F00E94B52DB1E02D
:1059200008950C94B52D672F782F8827B85F39F02C
:10593000B93FCCF3869577956795B395D9F73EF443
:1059400090958095709561957F4F8F4F9F4F0895EB
:10595000E89409C097FB3EF4909580957095619509
:105960007F4F8F4F9F4F9923A9F0F92F96E9BB27BF
:105970009395F695879577956795B795F111F8CF3B
:10598000FAF4BB0F11F460FF1BC06F5F7F4F8F4FA6
:105990009F4F16C0882311F096E911C0772321F09C
:1059A0009EE8872F762F05C0662371F096E8862F34
:1059B00070E060E02AF09A95660F771F881FDAF78B
:1059C000880F9695879597F908950E94742D20F079
:1059D00019F00E947B2D50F40C94712D0C94B62D6F
:1059E000E92F0E94932D88F35523B1F3E7FB62174B
:1059F000730784079507A8F189F3E92FFF27882308
:105A00002AF03197660F771F881FDAF7952F5527F1
:105A1000442332F091505040220F331F441FD2F7DD
:105A2000BB27E91BF50B621B730B840BB109B1F2A9
:105A300022F4620F731F841FB11D31972AF0660F85
:105A4000771F881FBB1FEFCF9150504062F041F08D
:105A5000882332F0660F771F881F91505040C1F79E
:105A600093950C94632D8695779567959F5FD9F7ED
:105A7000F7CF990F0008550FAA0BE0E8FEEF1616B6
:105A80001706E807F907C0F012161306E407F50732
:105A900098F0621B730B840B950B39F40A2661F0A6
:105AA000232B242B252B21F408950A2609F4A14049
:105AB000A6958FEF811D811D089597F99F6780E856
:105AC00070E060E008959F3F31F0915020F4879599
:105AD00077956795B795880F911D9695879597F956
