:100000000C94AB020C94F2020C94F2020C94F202E7
:100010000C94F2020C94F2020C94F2020C94F20290
:100020000C94F2020C94F2020C94E5270C94B8287C
:100030000C94E9210C94F2020C94F2020C94F2025A
:100040000C94F2020C94F2020C94F2020C94F20260
:100050000C94F2020C9451220C94F2020C94F202D1
:100060000C94F2020C94F2020C94F2020C94F20240
:100070000C94F2020C94F2020C94F2020C94F20230
:100080000C94590B0C94F2020C94F2020C94F202B0
:100090000C94F2020C94F2020C94F2020C94F20210
:1000A0000C94F2020C94F2020C94F20207634236B2
:1000B000B79BD8A71A39685618AEBAAB558C1D3CF9
:1000C000B7CC5763BD6DEDFD753EF6177231BF00BD
:1000D0000000803F08000000BE922449123EABAAF7
:1000E000AA2ABECDCCCC4C3E00000080BEABAAAA52
:1000F000AA3E00000000BF000000803F000000009A
:1001000000084178D3BB4387D1133D190E3CC3BDD2
:100110004282AD2B3E68EC8276BED98FE1A93E4C7F
:1001200080EFFFBE01C4FF7F3F00000000004D6F65
:1001300064653A205157455254590A002B00140067
:100140001A000800150017001C0018000C0012000F
:1001500013002A00296104001600070009000A00A4
:100160000B000D000E000F0033003400E1001D00F5
:100170001B000600190005001100100036003700B2
:1001800038002872165CE000E200E300D35C2C002B
:100190002C00D45C5000510052004F0035021E026A
:1001A0001F0220022102220223022402250226022B
:1001B00027024C0001003A003B003C003D003E009D
:1001C0003F002D022E022F023002310201004000BA
:1001D00041004200430044004500010001000100CD
:1001E0000100010001000100010001000100010007
:1001F00001000100AB00AA00A900AE0035001E00FE
:100200001F002000210022002300240025002600DA
:1002100027004C000100680069006A006B006C0058
:100220006D002D002E002F003000310001006E0007
:100230006F00700071007200730001000100010086
:1002400001000100010001000100010001000100A6
:10025000010001004A004E004B004D000100005C0F
:10026000015C01000100010001000100010001002A
:1002700001004C0001000100235C1D5C1E5C135C4E
:100280000A5CD25C01000100010001000100255C54
:10029000245C205C215C265C275C000000000100DF
:1002A0000100010001000100010001000100010046
:1002B0000100010001000100010001004445425518
:1002C000473A20656E61626C65642E0A000A00255B
:1002D00030313662003A200025303258000A722F41
:1002E0006320303132333435363738394142434474
:1002F00045460A00617564696F20706C6179206EF3
:100300006F746520667265713D256420766F6C3D63
:10031000256400617564696F2073746F70206E6F5F
:10032000746520667265713D256400617564696F4E
:100330002073746F7020616C6C206E6F7465730035
:100340000A002530325820006B6579626F61726453
:100350005F7265706F72743A20000A00253032585F
:10036000006B6579626F6172645F7365745F6C6561
:10037000643A200064656C5F6B65795F6269743A0A
:100380002063616E27742064656C3A2025303258F2
:100390000A006164645F6B65795F6269743A206327
:1003A000616E2774206164643A20253032580A0057
:1003B0005B735D004B6579626F6172642073746179
:1003C00072742E0A005B575D005B535D005B525DEB
:1003D000005B445D005B435D000403300000000EE1
:1003E0000350006C0061006E0063006B0000000AA7
:1003F000034F004C004B00420000000403090409B5
:10040000027400040100A0FA0904000001030101C4
:1004100000092111010001224000070581030800A5
:100420000A09040100010300000009211101000173
:100430002236000705820308000A090402000203AD
:100440000000000921110100012222000705830399
:100450002000010705030320000109040300010334
:100460000000000921110100012239000705840361
:100470002000011201100100000008EDFE60600480
:10048000000102030105010906A101050719E02980
:10049000E715002501950875018102050819012954
:1004A00005950575019102950175039101050719DF
:1004B0000029F71500250195F875018102C0063164
:1004C000FF0974A1010975150026FF009520750824
:1004D00081020976150026FF00952075089102C05B
:1004E00005010980A10185021601002603001A8179
:1004F000002A8300751095018100C0050C0901A137
:10050000018503160100269C021A01002A9C02752F
:100510001095018100C005010906A101050719E038
:1005200029E71500250195087501810295017508D7
:1005300081010508190129059505750191029501AB
:10054000750391010507190029FF150026FF009585
:100550000675088100C011241FBECFEFDAE0DEBFB0
:10056000CDBF04B603FE27C08091D7059091D80572
:10057000A091D905B091DA058730904BA740B04BD8
:10058000D1F41092D7051092D8051092D905109287
:10059000DA0514BE84B7877F84BF0FB6F894A89598
:1005A00080916000886180936000109260000FBEAF
:1005B000E0E0F8E3099514E0A0E0B1E0E6E6FFE54D
:1005C00002C005900D92A438B107D9F725E0A4E840
:1005D000B4E001C01D92A73DB207E1F70E940825D3
:1005E0000C94B12F0C940000FF93EF93E0918404DE
:1005F000F0918504309709F00995EF91FF910895E6
:10060000FC018591803011F0EFDFFBCF0895FF27CB
:10061000E0E230E247FF0CC0419597FF09C0EDE2F0
:100620006095709580959095611D711D811D911D3E
:1006300027FF02C0219530E350E2AA27660F771FFB
:10064000881F991FAA1FA41710F0A41B63955A9521
:10065000A9F7AA3008F0A95FA05DAF93F3956115E3
:1006600071058105910541F7ED3211F4EF93F39592
:10067000F21718F43F93F395FBCF8F91B5DFFA95FE
:10068000E1F70895E991F9918591803021F0853263
:1006900019F0AADFF9CF089520E0E894559155327A
:1006A000C1F3503311F4689455915A3348F45053C0
:1006B00090F3220F022E220F220F200D250FF4CFD0
:1006C0000EF4219589919991533619F3533729F1F5
:1006D000533559F1BC0188279927E8945C3621F4F9
:1006E0008991999168945591543639F446EF7EF08A
:1006F00077FF0DC08FEF9FEF0AC055374AE039F002
:10070000583540E121F0523642E009F00895FF9358
:10071000EF937DDFEF91FF91B7CFFF93EF93FC0154
:1007200081918030B9F360DFFBCFFF93EF9368DFF7
:10073000F1CFDF93CF93CDB7DEB72596A3DFCF916F
:10074000DF9108956E9A769A0C946209CF93FB011B
:10075000833D2CE59207B1F0843D2CE59207F1F042
:10076000C1E0823D9C4559F4C281CC2341F08EE228
:1007700091E00E94000380E00E946904C0E08C2F99
:10078000CF910895C28181E0CC2359F00E94F21EDE
:1007900043E062E081E00E948904F0CFC28182E000
:1007A000F3CF0E94131F43E062E081E00E948904BE
:1007B000E6CF80919A04882309F486C0809198043A
:1007C000909199040E942722853F914008F47CC0B3
:1007D00010929A040E94120980918E0490918F04C5
:1007E0004397F1F48091900490919104892BC1F486
:1007F0008091920490919304892B91F480919404B8
:1008000090919504892B61F48091960490919704BE
:10081000892B31F48DE70E94DA168DE70E94D117FB
:1008200080918E0490918F04069721F58091900419
:10083000909191040597F1F4809192049091930422
:10084000892BC1F48091940490919504892B91F4A3
:100850008091960490919704892B61F483EE0E9415
:10086000DA168CE20E94DA168CE20E94D11783EE2F
:100870000E94D11780918E0490918F04409721F5AA
:1008800080919004909191040897F1F480919204E2
:10089000909193044397C1F48091940490919504AE
:1008A000892B91F48091960490919704892B61F49F
:1008B0008CE30E94DA1683E10E94DA1683E10E943B
:1008C000D1178CE30C94D117089581E008950C940E
:1008D000A603CF93DF93C82F20E8829FC001112485
:1008E00040E060E170E08C5F9E4F0E94790E61E015
:1008F00070E0CB0102C0880F991FCA95E2F7EC01A6
:100900000E94EC20BE0190E080E0DF91CF910C943A
:10091000901E8F929F92AF92BF92CF92DF92EF92F2
:10092000FF920F931F93C12CD12C7601C394970192
:10093000860104C0000F111F221F331F6A95D2F7D2
:100940004601570104C0880C991CAA1CBB1C8A953F
:10095000D2F7D501C401802B912BA22BB32B009190
:100960006705109168052091690530916A05082393
:1009700019232A233B2380179107A207B30769F4A1
:10098000842F1F910F91FF90EF90DF90CF90BF9039
:10099000AF909F908F900C94F21E842F1F910F9117
:1009A000FF90EF90DF90CF90BF90AF909F908F908F
:1009B0000C94131F0E94F50E0C94A2030E947E1348
:1009C0000C94630908950C94E2040C94E3040895D4
:1009D000CF93DF930E94AF1A0E944C130E941B22F8
:1009E000EC0140E063E070E084EB91E00E94790E5E
:1009F0000E94E704CE010E9427228A3F910530F031
:100A00000E941E0FDF91CF910C9477228FE99FE017
:100A10000197F1F700C00000EDCF0F931F93CF9324
:100A2000DF938C01FC01C081D181CE010E948E1F19
:100A3000BE010E94B006EC01B8010E946704882341
:100A400009F460C0B801CE010E94DA0A882309F4D3
:100A500059C0B801CE010E94E213882309F452C0A4
:100A6000B801CE010E941309882309F44BC0C53197
:100A7000FCE5DF0709F450C1B0F4C130ECE5DE0756
:100A800009F446C008F05AC0C115DC45B1F181E057
:100A900080938B0480938C04C801DF91CF911F91C8
:100AA0000F910C946504CD3CECE5DE0709F419C107
:100AB000B8F4CB3C8CE5D80709F4D7C0CC3CDC4576
:100AC00031F7F8018281882309F4F6C010928C0472
:100AD0000E941B2290938A048093890480E2D2C0F2
:100AE000C03DFCE5DF0711F1C13DDC4581F6F801B1
:100AF0008281882339F082E01EC0F8018281811151
:100B00000E94E80480E0DF91CF911F910F9108953A
:100B1000F80182818823B1F38091940581608093EC
:100B200094058CEB92E00E940003ECCFF8018281E7
:100B3000882341F380E00E94AD25E4CFF801828153
:100B4000882309F4A9CF0E94D920811102C00E94F4
:100B5000BA200E94F12090E09093C9058093C805C7
:100B6000FE01E350FC45E231F105B0F4E654FA4FE2
:100B70000C94B62ED205D605DA05DE05E205E605AB
:100B8000EA05EE05020606060A060E061206160617
:100B90001A061E0622062E068091C80581608093E3
:100BA000C80529C08091C8058260F9CF8091C80529
:100BB0008460F5CF8091C8058860F1CF8091C80529
:100BC0008061EDCF8091C8058062E9CF8091C80532
:100BD0008064E5CF8091C8058068E1CF8091C80529
:100BE000846088608093C80540E064E070E084E839
:100BF00091E00E94790E8091C8050E94F5200E9424
:100C0000AF1A80CF8091C8058E7FC9CF8091C8056B
:100C10008D7FC5CF8091C8058B7FC1CF8091C805DE
:100C2000877FBDCF8091C8058F7EB9CF8091C805E1
:100C30008F7DB5CF8091C8058F7BB1CF8091C805DE
:100C40008F77ADCF8091C8058B7F877F8093C80554
:100C500040E062E070E084EA91E0CBCF9091C8057B
:100C6000892F97FB87F980589ACFF80182818823D2
:100C700061F010928B040E941B2290938804809351
:100C8000870482E00E9420183DCF80918B0481115F
:100C90000FC080918704909188040E942722883C8D
:100CA000910530F486E20E94DA1686E20E94D1179E
:100CB00082E00E94271826CF80918C0481110FC0FA
:100CC0008091890490918A040E942722883C910592
:100CD00030F487E20E94DA1687E20E94D11780E2A0
:100CE000E8CFF80182818111F1CE80918C048111CD
:100CF000F6CF8091890490918A040E942722883C33
:100D0000910568F780E20E94271888E20E94DA16AF
:100D100088E20E94D117F6CE0E945420F8019281F9
:100D2000992381F08A7A91E009F490E09093860407
:100D3000811106C089E20E94DD1F0E942120E2CEBF
:100D400085E3F9CF80918604811104C089E20E9475
:100D5000E41FF3CF85E3FBCF90E080E00895089592
:100D6000972F70E02CE0929F600D711D1124FB0104
:100D700090E3899FE00DF11D1124EE0FFF1FE45C4D
:100D8000FE4F859194910895FC01EE0FFF1FE353F0
:100D9000FD4F859194910895CF93DF930E94B00603
:100DA0000E946408EC018115904408F094C0C115BC
:100DB00080E3D80708F005C1C03ED10508F071C036
:100DC000C03CD10508F0ECC0C83AD10580F4C53A62
:100DD000D10508F0E9C0C130D10509F46EC020F09A
:100DE000C430D10508F069C0D0E0C0E066C0CD3B9A
:100DF000D105D0F7C83AD10509F427C1C93AD105C0
:100E000009F426C1CA3AD10509F425C1CB3AD10566
:100E100009F424C1CC3AD10509F423C1CB3BD10557
:100E200009F422C1CC3BD10509F421C1CD3AD10549
:100E300009F420C1C03BD10509F41FC1CE3AD10548
:100E400009F41EC1CF3AD10509F41DC1C13BD1053A
:100E500009F41CC1C23BD10509F41BC1C33BD10538
:100E600009F41AC1C43BD10509F419C1C53BD10528
:100E700009F418C1C63BD10509F417C1C73BD10518
:100E800009F416C1C83BD10509F415C1C93BD10508
:100E900009F414C1CA3BD10509F013C1CAE2D6E472
:100EA0000CC0CF3FD10509F060F4C03FD10508F078
:100EB00086C0C83ED10508F097CFCE01DF91CF9113
:100EC0000895CE019F70C11520E2D207B0F30E94B1
:100ED000C406EC01F2CFC11584E5D807A0F5C11511
:100EE00023E5D20708F08EC0C11581E5D80708F5C3
:100EF000C11520E5D20708F46EC0CE0154E09695E6
:100F000087955A95E1F783709C2F937021E030E02C
:100F100002C0220F331F9A95E2F73C68382BC69522
:100F2000C695C37080E2C89FE0011124C22BD32B69
:100F3000C4CFC11582E5D80708F050C0DC2FCC27FC
:100F4000C16FD06ABACFC11526E5D20758F49C2FDD
:100F50008827C115D54508F469C0EC01CC27DF719D
:100F6000D062ABCFC11588E5D80708F43DCFC115D5
:100F700029E5D20708F45EC0CE0190568115904253
:100F800008F032CF8D2F8F710E94E408DD27D062E8
:100F900090E0982F882788279F71C82BD92B8DCF59
:100FA000CE01805C910993CFC53AD10509F447C0C1
:100FB000C63AD10509F446C0C3E8D0E47ECFD06577
:100FC0007CCFCE019927D3FF03C0EC01D86C75CF3D
:100FD000EC01D06C72CFDF70D06A6FCFCE0183701E
:100FE000992721E030E002C0220F331F8A95E2F7F3
:100FF000C695C69580E2C89FE0011124C22BD32B71
:10100000DC685BCFCE018370992721E030E002C01D
:10101000220F331F8A95E2F7C695C69580E2C89FD6
:10102000E0011124C22BD32BDA6847CFEC01C46F47
:10103000D06A43CFDC2FCC27C06FD06A3ECFC1E847
:10104000D0E43BCFC2E8D0E438CFC2EED4E435CF11
:10105000C9EED4E432CFCAEED4E42FCFC5EBD4E44A
:101060002CCFC6EBD4E429CFC3EBD4E426CFC4EB1A
:10107000D4E423CFC7EBD4E420CFCCECD4E41DCF11
:10108000CDECD4E41ACFC3E8D5E417CFCAE8D5E451
:1010900014CFC2E9D5E411CFC4E9D5E40ECFC1E243
:1010A000D6E40BCFC3E2D6E408CFC4E2D6E405CF42
:1010B000C5E2D6E402CFC6E2D6E4FFCEC7E2D6E46C
:1010C000FCCEC0E0D4E4F9CE8238910549F1B0F409
:1010D0008133910509F45CC048F48932910509F423
:1010E00052C08A32910509F458C00895853391059C
:1010F00009F444C08933910599F00895833E910520
:1011000031F138F4803E910591F0823E9105B1F0C5
:101110000895863E910511F1873E910541F10895AC
:101120002091C8052370C9F080EE90E008952091C9
:10113000C80520FF12C089E390E008952091C805FA
:1011400022FF0BC024FF2EC090E080E00895209184
:10115000C80522FD2AC024FDF7CF08952091C805B7
:1011600023FFFBCF24FDF0CF87EE90E00895209180
:10117000C80523FFF0CF86EE90E008952091C805C2
:1011800025FD16C008952091C80525FD14C00895B9
:101190002091C80526FD12C008952091C80526FD9E
:1011A00010C0089583EE90E0089582EE90E00895D7
:1011B00089E290E0089585E390E008958AE290E066
:1011C000089581E390E0C9CFCF93C82F0E94F1200A
:1011D000282F30E03093C9052093C80582FF06C050
:1011E0009C2F9871983079F4C77FC46083FF06C044
:1011F0009C2F9871983171F4C77EC46184FDC77EBD
:101200008C2FCF9108959C2F9471943079F7CB7FD8
:10121000C860ECCF9C2F9471943181F7CB7EC8616C
:10122000EDCF089508950F931F93CF938C01FB0189
:101230008281811106C0C1E08C2FCF911F910F9147
:101240000895C0919A04C11125C006311C4599F733
:101250000E94110981E080939A040E941B229093BE
:1012600099048093980410928D0410928F04109228
:101270008E04109291041092900410929304109294
:101280009204109295041092940410929704109274
:101290009604D2CF80919804909199040E942722BD
:1012A000883C910540F680918D04E82FF0E0EE0F28
:1012B000FF1FE257FB4F118300838F5F80938D04E4
:1012C000C0E0BACF08950C94D903CF93DF9385B7CC
:1012D000806885BF85B7806885BFABE1B4E04FE12A
:1012E00054E0C1E0D0E08D91E82FE295EF70F0E09E
:1012F00061A18F709E0101C0220F8A95EAF7922F9B
:101300009095962391A382A1822B82A34A175B0713
:1013100051F7AFE0B4E04BE154E0C1E0D0E08D9193
:10132000E82FE295EF70F0E061A18F709E0101C09F
:10133000220F8A95EAF7922F9095962391A382A186
:10134000822B82A34A175B0751F71092A4041092D4
:10135000A30410929C0410929B041092A604109275
:10136000A50410929E0410929D041092A80410925D
:10137000A7041092A00410929F041092AA04109245
:10138000A9041092A2041092A104DF91CF910C94B1
:10139000DA044F925F927F928F929F92AF92BF92A8
:1013A000CF92DF92EF92FF920F931F93CF93DF9331
:1013B000CBE9D4E00BE114E09FE1A92E94E0B92E33
:1013C000EE24E394F12C99249394C880D980198257
:1013D0001882D8018D918D01E82FE295EF70F0E031
:1013E00091A18F70970101C0220F8A95EAF7892F8A
:1013F000822B81A382A1822E8094882182A3B0EACD
:10140000BA95F1F78FE0482E84E0582E90E080E006
:10141000D2017D912D01472F42954F7050E0DA01A6
:1014200090967C90488159817F70D70102C0AA0FA5
:10143000BB1F7A95E2F7BD01672109F068C0B701CB
:10144000082E02C0660F771F0A94E2F7462B572B2F
:101450005983488301968C309105D1F681A1882269
:1014600081A282A1282B22A388819981C816D9063E
:1014700041F09092AB040E941B229093AD048093A4
:10148000AC042296A016B10609F09FCF8091AB0460
:10149000882351F18091AC049091AD040E942722E1
:1014A000069710F180919B0490919C049093A40462
:1014B0008093A30480919D0490919E049093A60430
:1014C0008093A50480919F049091A0049093A80418
:1014D0008093A7048091A1049091A2049093AA0400
:1014E0008093A9041092AB040E94DE0481E0DF9196
:1014F000CF911F910F91FF90EF90DF90CF90BF9011
:10150000AF909F908F907F905F904F90089570E084
:1015100060E09CCFE82FF0E0EE0FFF1FED55FB4F92
:10152000808191810895CF92DF92EF92FF920F9385
:101530001F93CF93DF938DED92E00E94000383EA27
:10154000E82E84E0F82ED0E0C0E098EDC92E92E0BD
:10155000D92E0FEC12E0DF93CF93DF92CF920E944F
:10156000990385ED92E00E940003F701819191912A
:101570007F010E94AD209F938F931F930F930E9432
:1015800099038DEC92E00E94000321968DB79EB7DF
:1015900008960FB6F8949EBF0FBE8DBFC430D1051C
:1015A000D1F6DF91CF911F910F91FF90EF90DF90D7
:1015B000CF900895FB018D312CE5920739F482819B
:1015C0008823A1F10E94911080E008958E312CE5CE
:1015D000920731F48281882349F10E94A110F4CF4F
:1015E0008F312CE5920741F482818823F9F00E9423
:1015F0008D108111F2CFE6CF84322CE5920769F489
:101600008281882399F00E94BA1040E064E070E083
:101610008CEC91E00E94790ED7CF85329C4531F455
:101620008281882319F00E94C310EFCF81E00895D2
:101630008554990BBC01990F880B990B0E94872B3D
:1016400020E030E040E451E40E94DD2A9B01AC013F
:1016500060E070E080E090E40E940B2D20E030E03C
:101660004CED53E40E949E2C4FE050E00C9415107A
:101670008554990BBC01990F880B990B0E94872BFD
:1016800020E030E040E451E40E94DD2A9B01AC01FF
:1016900060E070E080E090E40E940B2D20E030E0FC
:1016A0004CED53E40E949E2C0C94650F0C941E0F7D
:1016B00008951F920F920FB60F9211244F925F92CE
:1016C0006F927F928F929F92AF92BF92CF92DF9252
:1016D000EF92FF922F933F934F935F936F937F937C
:1016E0008F939F93AF93BF93EF93FF938091C10428
:1016F000882309F4CAC0E0900305F09004051E1485
:101700001F040CF0C2C04090B1045090B20460902D
:10171000B3047090B40420E030E0A901C301B20129
:101720000E94992C18160CF093C121E0E216F104E6
:1017300009F452C08091010590910205B7010E9401
:10174000A22E6C0190930205809301058090C30442
:101750009090C404A090C504B090C60420E030E08E
:1017600040E85FE3C501B4010E946C2A6093C304A2
:101770007093C4048093C5049093C604F601EE0FE1
:10178000FF1FEE0FFF1FE952FB4FA3019201608183
:101790007181828193810E94DD2A20E030E040E067
:1017A0005EE30E949E2C9B01AC01C501B4010E9426
:1017B000992C18168CF4C6010196B7010E94A22E2E
:1017C00090930205809301051092C3041092C40403
:1017D0001092C5041092C604E0910105F091020533
:1017E000EE0FFF1FEE0FFF1FE952FB4F608171816B
:1017F000828193812091AE043091AF042F3F320754
:1018000031F02F5F3F4F3093AF042093AE040E941E
:10181000CC106B017C0120E034E244EF51E40E94E3
:10182000D82A87FF08C086EFC82E88E2D82E84EF1A
:10183000E82E81E4F82E20E030E040E051E4C701DA
:10184000B6010E949E2C9B01AC0160E074E284E72B
:101850009BE40E94DD2A6B017C010E94562B709351
:1018600097006093960020913502309136024091A6
:10187000370250913802C701B6010E949E2C0E9487
:10188000562B70939900609398008091C20488232E
:1018900009F4B4C1C090BD04D090BE04E090BF0470
:1018A000F090C00420E030E0A901C701B6010E9419
:1018B000992C18160CF091C18091AE049091AF0450
:1018C0008F3F980729F001969093AF048093AE0460
:1018D000C701B6010E94CC1020E030E040E051E4A6
:1018E0000E949E2C9B01AC0160E074E284E79BE4C3
:1018F0000E94DD2A6B017C010E94562B7093970099
:101900006093960020913502309136024091370263
:1019100050913802C701B6010E949E2C0E94562B9E
:1019200070939900609398006091B7047091B80427
:101930006F5F7F4F7093B8046093B704E090960098
:10194000F090970090E080E00E94852B4B015C01B5
:101950004090B9045090BA046090BB047090BC04ED
:10196000EF2809F443C18091B60481113FC1609111
:1019700096007091970090E080E00E94852B9B017B
:10198000AC01C301B2010E94DD2A20E03FEF4FE726
:1019900057E40E949E2C20E030E040E85FE30E9484
:1019A0006B2AA50194010E94D82A18160CF426C1AE
:1019B0008091B5048F5F8093B5042091BC05309170
:1019C000BD058217130638F08091C305882309F4FA
:1019D0001EC11092B504E091BE05F091BF05909133
:1019E000B5048091B604811144C181E08093B604AE
:1019F00091509093B50448E0949F90011124E20F18
:101A0000F31FC080D180E280F3802085318542853C
:101A10005385C701B6010E94D82A811121C11092B5
:101A2000BD041092BE041092BF041092C00480E066
:101A300090E0A0E8BFE38093B9049093BA04A09328
:101A4000BB04B093BC041092B8041092B704D6C083
:101A5000F701EE0FFF1FEE0FFF1FED52FB4F8080CF
:101A60009180A280B38080913402882309F4ACC0B5
:101A7000C090FD04D090FE04E090FF04F0900005BB
:101A800020E030E0A901C701B6010E94D82A8823CE
:101A900009F49AC0A5019401C701B6010E94D82A91
:101AA00087FF5BC0A501940160E070E08CED93ECD2
:101AB0000E94DD2A20E030E040E451E40E94DD2A6B
:101AC00020E030E040E05FE30E949E2C9B01AC01EF
:101AD00060E070E080E090E40E940B2DA50194018D
:101AE0000E949E2C9B01AC01C701B6010E94D82A1E
:101AF00087FF33C0A701960160E070E08CED93E4AE
:101B00000E94DD2A20E030E040E451E40E94DD2A1A
:101B100020E030E040E05FE30E949E2C9B01AC019E
:101B200060E070E080E090E40E940B2D9B01AC012E
:101B3000C701B6010E949E2C6093FD047093FE04C1
:101B40008093FF04909300056091FD047091FE0462
:101B50008091FF04909100054DCEA5019401C7012D
:101B6000B6010E94992C18167CF5A501940160E03D
:101B700070E08CED93E40E94DD2A20E030E040E448
:101B800051E40E94DD2A20E030E040E05FE30E9463
:101B90009E2C9B01AC0160E070E080E090E40E942C
:101BA0000B2DA50194010E949E2C9B01AC01C70145
:101BB000B6010E94992C18163CF4A701960160E02A
:101BC00070E08CED93EC9CCF8092FD049092FE042B
:101BD000A092FF04B0920005B7CF10929700109228
:101BE000960010929900109298009ECEA301920147
:101BF000C501B4010E94992C87FFDACE8091C005FF
:101C000080FD11C01092C2041092C1040CC08091DA
:101C100071008D7F80937100809190008F7380930D
:101C200090001092C204FF91EF91BF91AF919F91EC
:101C30008F917F916F915F914F913F912F91FF9085
:101C4000EF90DF90CF90BF90AF909F908F907F905C
:101C50006F905F904F900F900FBE0F901F90189550
:101C6000C092BD04D092BE04E092BF04F092C004C2
:101C7000DECE1092B6041092AF041092AE0428E0AB
:101C8000929FC0011124E80FF91F80819181A281E8
:101C9000B3818093BD049093BE04A093BF04B0931E
:101CA000C00420E030E040E85EE364817581868115
:101CB00097810E949E2C6B017C016091390270E03B
:101CC00090E080E00E94852B20E030E048EC52E478
:101CD0000E94DD2A9B01AC01C701B6010E949E2C27
:101CE0006093B9047093BA048093BB049093BC04CE
:101CF000AACECF92DF92EF92FF92CF93DF93EC01C7
:101D00006B01F42E8091B004811102C00E94F50E87
:101D10008091C00580FF62C0809171008D7F8093AB
:101D200071008091C10481110E941E0F81E0809397
:101D3000C204D093BF05C093BE05D092BD05C0922A
:101D4000BC05F092C3051092C3041092C404109213
:101D5000C5041092C6041092B50488819981AA81A5
:101D6000BB818093BD049093BE04A093BF04B09345
:101D7000C00420E030E040E85EE36C817D818E812C
:101D80009F810E949E2C6B017C016091390270E062
:101D900090E080E00E94852B20E030E048EC52E4A7
:101DA0000E94DD2A9B01AC01C701B6010E949E2C56
:101DB0006093B9047093BA048093BB049093BC04FD
:101DC0001092B8041092B7048091710082608093E1
:101DD000710080919000806880939000DF91CF9196
:101DE000FF90EF90DF90CF9008950E94D92081114D
:101DF00002C00E94BA200E94FA208093C005809100
:101E0000B00481110FC03E9A809171008D7F809344
:101E1000710082E0809390008AE18093910081E0DC
:101E20008093B0048091C00580FF07C040E065E06A
:101E300070E08CE092E00C94790E08958091940506
:101E400080FF08C08BE293E09F938F930E949903D9
:101E50000F900F908091B004811102C00E94F50E86
:101E60001092040510920305809171008D7F80937C
:101E70007100809190008F73809390001092C20443
:101E80001092C1041092FD041092FE041092FF04FF
:101E9000109200051092F9041092FA041092FB04BB
:101EA0001092FC041092F8041092F704E7EDF4E0AD
:101EB000A7ECB4E011921192119211921D921D9211
:101EC00084E0E73FF807B1F70895CF92DF92EF92F1
:101ED000FF920F931F93CF93DF936B017C0180914F
:101EE000940580FF0FC0C7010E944F2B7F936F9313
:101EF00083E193E09F938F930E9499030F900F903B
:101F00000F900F908091C104882309F467C08091DD
:101F1000B004811102C00E94F50E07ED14E0C7E085
:101F2000D0E0A7019601F801648D758D868D978D9F
:101F30000E94D82A81116CC0FE01EE0FFF1FEE0F28
:101F4000FF1FE952FB4F1082118212821382CC0FC5
:101F5000DD1FC953DB4F1982188284E0E33FF80785
:101F600009F045C08091030590910405019797FD04
:101F700057C09093040580930305809103059091C9
:101F8000040520910105309102052817390724F036
:101F90001092020510920105892B01F580917100C4
:101FA0008D7F80937100809190008F73809390005B
:101FB0001092FD041092FE041092FF04109200058E
:101FC0001092F9041092FA041092FB041092FC048F
:101FD0001092F8041092F7041092C104DF91CF918F
:101FE0001F910F91FF90EF90DF90CF900895848123
:101FF0009581A681B78181939193A193B19310822A
:102000001182128213828A819B8189939993A3CF33
:10201000219704501109CF3FDC0709F082CFA2CFEE
:102020001092040510920305A8CFCF92DF92EF9291
:10203000FF92CF93DF936B017C01D42FC52F80914A
:10204000940580FF13C05F934F93C7010E944F2BED
:102050007F936F9384EF92E09F938F930E949903F5
:102060000F900F900F900F900F900F908091B004F1
:10207000811102C00E94F50E8091C00580FF46C00C
:10208000809103059091040508970CF03FC0809162
:1020900071008D7F809371008091C20481110E9434
:1020A0001E0F81E08093C1041092AF041092AE0421
:1020B00020E030E0A901C701B6010E94992C181652
:1020C000DCF48091030590910405FC01EE0FFF1FE5
:1020D000EE0FFF1FE952FB4FC082D182E282F382F2
:1020E000FC01EE0FFF1FE953FB4FD083C183019624
:1020F0009093040580930305809171008260809322
:10210000710080919000806880939000DF91CF9162
:10211000FF90EF90DF90CF9008958091C00581707F
:1021200008958091C00581608093C0050E94FE20C3
:102130000E94580B40E062E070E08CEF91E00C945C
:10214000790E40E062E070E08CEE91E00E94790E42
:102150002FEF81EE94E0215080409040E1F700C0E5
:1021600000000E941E0F8091C0058E7F8093C005E5
:102170000C94FE208091050590E0019687709927C8
:102180008093050508958091050590E00796877076
:1021900099278093050508958F929F92AF92BF92E1
:1021A000CF92DF92EF92FF92CF93DF936B017C018E
:1021B000C091AE04D091AF04BE0190E080E00E94D7
:1021C000852B4B015C01A701960160E070E08CE576
:1021D00094E40E94DD2A9B01AC01C501B4010E9478
:1021E0009E2C0E94562B9B01E0910505E83018F5C6
:1021F000F0E0E350FF4E0C94B62E0511281141116A
:1022000049121B119112C21200131092340280E085
:1022100090E0A0E0BFE38093350290933602A09354
:102220003702B09338021092B1041092B2041092A7
:10223000B3041092B404C701B601DF91CF91FF90AF
:10224000EF90DF90CF90BF90AF909F908F900895C8
:10225000109234021092B1041092B2041092B3049E
:102260001092B4046A50710980E090E0A0E8BEE3E7
:102270006F3B710508F460C080E090E0A0E0BEE331
:102280005BC0109234021092B1041092B20410920A
:10229000B3041092B40420E030E040EA52E4C701F5
:1022A000B6010E94D82A87FDC6CF20E030E040E288
:1022B00053E4C701B6010E94D82A87FF46C00E9496
:1022C000082F68E270E00E94A22EBC01645C7F4F80
:1022D000072E000C880B990B0E94872B6B017C0149
:1022E0008091AE049091AF048B30910508F1853157
:1022F000910508F052C065E170E0681B790B90E031
:1023000080E00E94852B20E030E040E05FE30E9407
:102310009E2C20E030E040E251E40E94DD2A6093F0
:10232000350270933602809337029093380283CF40
:1023300080E090E0A0E0BFE3809335029093360206
:10234000A0933702B093380276CF20E030E040EA25
:1023500053E4C701B6010E94D82A87FF27C00E9414
:10236000082F68EE73E00E94A22EBC0168517C4FDA
:10237000072E000C880B990B0E94872B6B017C01A8
:102380008091AE049091AF048630910588F265E1AA
:1023900070E08531910508F46BC0109235021092FF
:1023A0003602109237021092380245CF20E030E01A
:1023B00040E254E4C701B6010E94D82A87FF2FC02B
:1023C0000E94082F60ED77E00E94A22EBC016854A5
:1023D000744F072E000C880B990B0E94872B6B0102
:1023E0007C018091AE049091AF048031910508F496
:1023F0009FCF8531910588F665E170E0681B790B08
:1024000090E080E00E94852B20E030E040E05FE338
:102410000E949E2C20E030E040EA50E47ECF20E095
:1024200030E040EA54E4C701B6010E94D82A87FF91
:1024300002CF0E94082F60ED77E00E94A22EBC011F
:102440006854744F072E000C880B990B0E94872B41
:102450006B017C018091AE049091AF0484329105B0
:1024600008F466CF8333910508F097CF63E370E0FB
:10247000681B790B90E080E00E94852B20E030E023
:1024800040E05FE30E949E2C20E030E040E751E412
:1024900044CF41E0409334021092B1041092B20450
:1024A0001092B3041092B4046431710540F46A30A0
:1024B000710560F120E030E040E05FE32BC0693C53
:1024C000710508F06ACF90E080E00E94852B20E043
:1024D00030E040EA51E40E946B2A20E030E044E31F
:1024E00053E40E94DD2A9B01AC010E949E2C20E057
:1024F00030E040E05EE30E949E2C9B01AC0160E076
:1025000070E080E09EE30E946B2A09CF20E030E07B
:1025100040E85EE3C701B6010E949E2C6B017C017E
:10252000ABCE21E0209334021092B1041092B20499
:102530001092B3041092B4044AE0469F9001479F62
:10254000300D1124C90168EB7BE00E948E2EBC0186
:102550006C5D754077FF03C0719561957109072E19
:10256000000C880B990B0E94872B2EE333EC4EE274
:1025700059E30E949E2C20E030E040EC5EE30E9494
:102580006C2ACDCE81E0809334021092B104109277
:10259000B2041092B3041092B404CE018370992750
:1025A000892B09F1BE016170772790E080E00E94DD
:1025B000852B20E030E040E05EE30E949E2C20E08E
:1025C00030E040E45FE30E946C2A60933502709330
:1025D00036028093370290933802C770DD27CD2BE7
:1025E00009F029CEDACE80E090E0A0E0BFE380934E
:1025F000350290933602A0933702B0933802EDCFA4
:1026000041E0409334021092B1041092B20410924F
:10261000B3041092B404812C912CA12C9FE3B92E09
:102620008092350290923602A0923702B092380220
:102630002739310508F4FFCD90E080E00E94852B1A
:1026400020E030E047E153E40E946B2A20E030E0D4
:102650004AE754E40E94DD2A20E030E048E452E4F6
:102660000E949E2C20E030E040EA51E40E94CD2BF5
:102670000E944F2B660F771F660F771F615E7B4F9F
:10268000FB012081318142815381C701B6010E9443
:102690009E2C6B017C01CFCD80911F0581110C9484
:1026A000560B08950E944C1310921F0540E068E0FD
:1026B00070E08AEB92E00C94790E10921E0540E0D7
:1026C00068E070E08AE392E00C94790E0E944C136B
:1026D00020911D0530E02F5F3F4F2370332720935B
:1026E0001D0548E2429FC001439F900D112440E028
:1026F00065E070E0865C9C4F0C94790ECF938091DE
:102700001A058823F1F0809106059091070500973E
:1027100079F40E941B22909307058093060580910F
:102720000805282F30E0882371F0C90101970FC0F8
:102730000E9427222091DA033091DB032817390702
:1027400040F3CF910895809109058150990B265F40
:102750003A4FF901C08120911F05222331F0865F95
:102760009A4FFC0180810E94380B80911F058823BD
:1027700019F08C2F0E94180B8091080590E00196AB
:102780006091090570E00E94A22E80930805D9CFC0
:10279000089581E080931F0540E068E070E08AEFD3
:1027A00092E00E94790E0C94C813089581E0809302
:1027B0001E0540E068E070E08AE792E00E94790E32
:1027C0000C94D513EF92FF921F93CF93DF93CDB765
:1027D000DEB7A3970FB6F894DEBF0FBECDBF7C0166
:1027E00080324CE5940751F4DB0112968C918823DA
:1027F00009F44DC00E94C91380E0ECC08132BCE5F1
:102800009B0741F4FB018281882309F440C00E94A8
:102810005213F2CF8232FCE59F0751F480911F05DD
:10282000DB0112969C91992391F18111F0CFE2CFB7
:102830008632BCE59B0739F4FB018281882339F19C
:102840000E94D613D9CF8732FCE59F0741F4DB0104
:1028500012968C918823D9F00E945D13CDCF8832D7
:10286000BCE59B0749F4FB018281882381F08091BC
:102870001E058111F1CFE4CF83329C4541F4DB0189
:1028800012968C91882319F00E946613B5CF20917F
:102890001F05211105C080911E05882309F4E5C09C
:1028A000FB013281332309F450C0F0EEEF16F1043E
:1028B00061F40E944C1381E080931C0510921B056B
:1028C00010921A051092090597CF42EEE416F10412
:1028D00071F40E944C1380911C05882319F081E04B
:1028E00080931B0510921C0510921A0585CF83EE6C
:1028F000E816F10491F480911B05882331F10E94C0
:102900004C1310921C0581E080931A051092080563
:1029100010920705109206056FCF92E5E916F104B3
:1029200051F48091DA039091DB030A979093DB03D3
:102930008093DA0361CFA1E5EA16F10431F48091C6
:10294000DA039091DB030A96F1CF80911D05109177
:10295000DE03811111C013508091DC03180FFB01BD
:102960008081180F418184E090E0841B9109FCE094
:102970008F9F100D112414C08130C1F5105E80911D
:10298000DC03180FDB018C91180F11964C9184E039
:1029900090E0841B9109982F990F990F890F180FB8
:1029A000332309F45BC0222319F0812F0E94180BF6
:1029B00080911C05882351F080910905E82FF0E0F3
:1029C000E65FFA4F10838F5F8093090581E0EF285F
:1029D00009F012CFA3960FB6F894DEBF0FBECDBF9D
:1029E000DF91CF911F91FF90EF900895823071F4A5
:1029F000105E8091DC03180FFB018081180F41816C
:102A000084E090E0841B9109F7E0B2CF833041F677
:102A100083E2ECEEF3E0DE01119601900D928A95CF
:102A2000E1F7DB01EC9181E090E08C0F9D1F8E0FB0
:102A3000911DFC018091DC039091DD03E80FF91FEB
:102A400013508081180F11964C9184E090E0841B04
:102A50009109ACE08A9F100D1124A2CF222309F422
:102A6000B5CF812F0E94380BB1CF81E0B3CF9093C7
:102A70002505809324050895E0912405F09125050E
:102A8000309721F00190F081E02D099480E00895C5
:102A9000EF92FF920F931F93CF93DF938C01E091FE
:102AA0002405F09125053097C1F10280F381E02DD6
:102AB00009958091940582FF30C080FF04C088E4AE
:102AC00093E00E940003D0E0C0E082E4E82E83E0BF
:102AD000F82E8091940580FF0EC0F801EC0FFD1FC9
:102AE00080811F928F93FF92EF920E9499030F9023
:102AF0000F900F900F902196C032D10551F7809121
:102B0000940580FF0AC080E493E0DF91CF911F918C
:102B10000F91FF90EF900C940003DF91CF911F91E4
:102B20000F91FF90EF900895209122053091230599
:102B30002817390771F09093230580932205E091BF
:102B40002405F0912505309721F00680F781E02DCE
:102B500009940895209120053091210528173907FF
:102B600071F09093210580932005E0912405F09168
:102B70002505309721F00084F185E02D0994089512
:102B800008950C94C01581E008950E9412220E94BD
:102B900065090C949B22CF93C82F8091940582FFE6
:102BA0001EC080FF04C081E693E00E940003809174
:102BB000940580FF0CC01F92CF938CE593E09F9308
:102BC0008F930E9499030F900F900F900F90809118
:102BD000940580FF04C08AE593E00E9400038C2FD7
:102BE000CF910C94E5045F926F927F928F929F92A7
:102BF000AF92BF92CF92DF92EF92FF920F931F930B
:102C0000CF93DF93CDB7DEB72A970FB6F894DEBF28
:102C10000FBECDBF0E94C9090E94C315882309F4C5
:102C200078C097E2A92E95E0B92E10E000E0882444
:102C30008394912C502E802F0E948A0A7C01F501EA
:102C4000C190D1905F01C816D90609F45CC080918B
:102C5000940581FD0E94930A90E080E0CE24DF2459
:102C60003401082E02C0660C771C0A94E2F7960124
:102C700026213721232B09F441C08E835F82E62071
:102C8000F72081E0EF2809F480E088870E941B226A
:102C90008160782F9A8789874E815F8168858A85D0
:102CA0000E94B016000F111FF801E95DFA4F8081F4
:102CB000918168267926718260820E943C159091EC
:102CC00026058917B9F10E943C15809326052A969E
:102CD0000FB6F894DEBF0FBECDBFDF91CF911F912D
:102CE0000F91FF90EF90DF90CF90BF90AF909F90AB
:102CF0008F907F906F905F900C94CB1501968C30E5
:102D0000910509F0ADCF0F5F1F4F0430110509F099
:102D100091CF8FEF89838A831B820E941B2281605F
:102D2000782F9D838C8349815A816B818D810E948C
:102D3000B016C3CF2A960FB6F894DEBF0FBECDBF34
:102D4000DF91CF911F910F91FF90EF90DF90CF9087
:102D5000BF90AF909F908F907F906F905F900895FD
:102D6000CF93DF93CDB7DEB72B970FB6F894DEBFC6
:102D70000FBECDBF4F83588769877A878B871E82A6
:102D80001D8285E0FE013796DE01119601900D92BD
:102D90008A95E1F749815A816B817C818D819E8181
:102DA0002B960FB6F894DEBF0FBECDBFDF91CF914B
:102DB0000C94611D882309F4F3C08238B9F40E9491
:102DC0003C1581FDEDC089E30E94DD1F0E9421209A
:102DD0002FEF81EE94E0215080409040E1F700C059
:102DE000000089E30E94E41F0C9421208338A1F4A1
:102DF0000E943C1580FDD4C083E50E94DD1F0E9427
:102E000021202FEF81EE94E0215080409040E1F7A7
:102E100000C0000083E5E6CF8438A1F40E943C1591
:102E200082FDBEC087E40E94DD1F0E9421202FEF9B
:102E300081EE94E0215080409040E1F700C0000016
:102E400087E4D0CF9CEF980F913A18F40E94DD1FD1
:102E5000CBCF90E2980F983050F4877091E001C08A
:102E6000990F8A95EAF7892F0E945720BDCF9BE5DD
:102E7000980F933070F4853A31F0863A39F083E850
:102E800090E00C94941581E890E0FBCF82E890E00C
:102E9000F8CF98E5980F953108F082C0883A09F488
:102EA00040C0893A09F440C08A3A09F440C08B3ADC
:102EB00009F440C08C3A09F440C08B3B09F440C08F
:102EC0008C3B09F440C08D3A09F440C0803B09F4C2
:102ED00040C08E3A09F440C08F3A09F440C0813BAB
:102EE00009F440C0823B09F440C0833B09F440C070
:102EF000843B09F440C0853B09F440C0863B09F49B
:102F000040C0873B09F440C0883B09F440C0893B7E
:102F100009F440C08A3B09F440C090E080E00C9482
:102F2000AA1582EE90E0FBCF89EE90E0F8CF8AEE12
:102F300090E0F5CF85EB90E0F2CF86EB90E0EFCF1D
:102F400083EB90E0ECCF84EB90E0E9CF87EB90E06F
:102F5000E6CF8CEC90E0E3CF8DEC90E0E0CF83E81F
:102F600091E0DDCF8AE891E0DACF82E991E0D7CF36
:102F700084E991E0D4CF81E292E0D1CF83E292E084
:102F8000CECF84E292E0CBCF85E292E0C8CF86E25A
:102F900092E0C5CF87E292E0C2CF8AE292E0BFCF53
:102FA0000895882309F44BC0823871F40E943C15BF
:102FB00081FF45C089E30E94DD1F0E94212089E333
:102FC0000E94E41F0C942120833859F40E943C1580
:102FD00080FF35C083E50E94DD1F0E94212083E52C
:102FE000EFCF843859F40E943C1582FF28C087E453
:102FF0000E94DD1F0E94212087E4E2CF9CEF980F02
:10300000913AF0F290E2980F983050F4877091E086
:1030100001C0990F8A95EAF7892F0E945D20D2CFCF
:103020009BE5980F933020F490E080E00C94941589
:10303000885A853120F490E080E00C94AA15089518
:10304000882321F00E9457200C9421200895882382
:1030500021F00E945D200C94212008958F929F9270
:10306000AF92BF92DF92EF92FF920F931F93CF9395
:10307000DF937C01D62FC72FFC01058102950F70CD
:10308000128111110E9476200E941A20D82E8823C6
:1030900071F0112331F180E28D0F883010F182E060
:1030A0000E9404200E941A2091E0D82ED926BC2E1E
:1030B000B2949FE0B922EB2DF0E0EF59F74E0C945B
:1030C000B62E73187318C318C31805190C190C19E8
:1030D0000C192D190C19C819C819521A0C190C19E8
:1030E0005B1AD12CE4CF0C2F0F70C07F11F002952A
:1030F000007F1123A9F0002359F080E28D0F883062
:1031000010F0D11109C0802F0E9457200E94212069
:103110008D2F0E94DA1614C0802F0E946820F6CFEF
:103120008D2F0E94D117002359F080E28D0F883037
:1031300010F0D11124C0802F0E945D200E94212018
:10314000DD2009F4BFC10E94F71F80FDBBC1F7015C
:1031500012820E94F11F0E94F21EC7010E946E1A85
:103160000E94F11FDF91CF911F910F91FF90EF907F
:10317000DF90BF90AF909F908F900C94131F802F83
:103180000E946E20DBCFFC2FFF70BF2EC07FC032AD
:1031900019F0B29480EFB822DD2369F0D13021F12B
:1031A000112369F1002329F1F701858180FFB0CF58
:1031B0008F7085831EC0112359F08B2D011103C020
:1031C0000E942018BDCF0130D9F70E948A20B8CFC5
:1031D000011106C00E948D208B2D0E942718B0CFB0
:1031E000013009F4ADCFF6CF112329F0063008F0F5
:1031F000A7CF8B2DE5CF053008F0A2CFEDCF002370
:1032000059F38D2F0E94D1179BCF8C2F86958695D1
:10321000837079F08130B9F098E0B91609F459C09B
:10322000B91608F48DCF86EF8B0D823008F451C0AB
:1032300087CF8D2F9C2F9370111102C090E080E0FA
:103240000E9494157DCF8D2F9C2F9370111102C079
:1032500090E080E00E94AA1573CF8C2F837009F054
:103260004BC0111136C02D2F229526952770220FA5
:10327000220F6D2F6F70862E912CB12CA12C022E57
:1032800004C0880C991CAA1CBB1C0A94D2F760E0ED
:1032900070E0CB01D4FF0FC06FE070E080E090E001
:1032A00004C0660F771F881F991F2A95D2F7609573
:1032B000709580959095C695C695C370C23071F093
:1032C000A0F4682979298A299B29C13091F00E94AC
:1032D000A41E0E943C150E94E50432CF682979297A
:1032E0008A299B290E94B61EF4CF0E94A41EC50104
:1032F000B4010E94921EEDCF8695112311F08C2F00
:103300008170882331F32D2F229526952770220F67
:10331000220F6D2F6F70862E912CB12CA12C022EB6
:1033200004C0880C991CAA1CBB1C0A94D2F760E04C
:1033300070E0CB01D4FF0FC06FE070E080E090E060
:1033400004C0660F771F881F991F2A95D2F76095D2
:10335000709580959095C695C695C370C23051F012
:1033600080F4682979298A299B29C13071F00E944B
:10337000691FAFCF682979298A299B290E947B1F61
:10338000A8CF0E94691FC501B4010E94571FA1CF99
:10339000E0E2ED0FE53108F066C0F0E0EE52F64EE7
:1033A0000C94B62EE719E719E719E719E719E71999
:1033B000E719E719E719E719E719E719E719E7190D
:1033C000E719E719F819061A0D1A141A1E1ADF70F0
:1033D0008C2F8F71112331F00E94F21E8D2F0E94CD
:1033E00020181ACF0E94131F8D2F0E94271814CF68
:1033F000112341F0053008F00FCF8C2F8F710E9400
:10340000361F0ACF063008F007CFF7CF8C2F8F7109
:10341000112339F00E94F21EFFCE8C2F8F711123E1
:10342000C9F30E94131FF8CE112329F08C2F8F713E
:103430000E94DD1EF1CE0E94D81EEECE112349F06F
:10344000CF718C2F0E94F21E63E08C2F0E94FB1F15
:10345000E3CE81E00E940420023008F4DDCE82E059
:103460000E940420D9CE112349F0002321F08D2F92
:103470000E94DA16D1CE8C2F8F71CCCF002379F039
:10348000D93349F4FFEF27EE83E0F150204080402C
:10349000E1F700C000008D2F0E94D117BDCE8C2F08
:1034A0008F71BFCF4C2F4F706D2FC7010E94AC069C
:1034B0000E940A1E45CE4C2F4F706D2FC7010E94EF
:1034C000AF063ECEDF91CF911F910F91FF90EF900D
:1034D000DF90BF90AF909F908F9008950F931F93B0
:1034E000CF93DF93EC01988189812B813C81232B41
:1034F00039F08F3F19F481E09F3F19F080E001C05F
:1035000081E080FD17C0CE010E940D05882391F057
:10351000688179818A810E94DA1F8C010E948D1F47
:103520000E948F1EB801CE01DF91CF911F910F91A4
:103530000C942E18DF91CF911F910F9108950E9446
:1035400076200E9487200E94EB1F0E94212090E09D
:1035500080E00E94941590E080E00C94AA150E94EF
:1035600065200C949F1A0E94D01FE92FE295EF70FE
:10357000E250EE30E0F4F0E0E054F54E0C94B62E5C
:10358000CE1ACE1AD71AD71AD91AD71AD71AD71AC3
:10359000CE1ACE1ADE1AD71AD71ADE1A803F19F0C1
:1035A00020F4803E20F481E00895843FE1F380E040
:1035B0000895803EC0F3813FD1F7F5CF93FB882774
:1035C00080F90895CF93DF9300D000D01F92CDB73C
:1035D000DEB70F900F900F900F900F90DF91CF916B
:1035E0000895CF93DF9300D000D000D0CDB7DEB7E1
:1035F00026960FB6F894DEBF0FBECDBFDF91CF91F8
:1036000008951F93CF93DF93C0912F0516E080910B
:1036100030058C1304C0DF91CF911F910895D0E045
:103620001C9FF0011D9FF00D1124EF5CFA4F4081AB
:10363000518162817381848195810E94F11A219662
:10364000C770E5CF409161055091620560916305B7
:103650007091640580916505909166050C94F11A4E
:103660001F93CF93DF9380916605807FD1F4809183
:1036700063058823B1F080912F05D0913005B0917A
:103680006105C09162054091640550916505A1E016
:10369000BF3F09F0A0E0BA016095709516E0D8131D
:1036A00004C0DF91CF911F91089521E0411551058C
:1036B00021F02A2FCF3F09F020E090E020FD38C014
:1036C000189FF001199FF00D1124EF5CFA4F218132
:1036D0002C132EC020812B132BC02281211128C036
:1036E000238134812417350700F1241B350B283C36
:1036F0003105F0F4209166052F7020612093660556
:1037000026E0289FF001299FF00D1124EA5CFA4F72
:1037100080818F708061808381E695E00E946E1ABF
:10372000DF91CF911F910C94011B260F371FDFCF24
:1037300001968770B4CFAF92BF92CF92DF92EF9293
:10374000FF920F931F93CF93DF93CDB7DEB76197AF
:103750000FB6F894DEBF0FBECDBF8C0185E0F80137
:10376000DE011D9601900D928A95E1F7D8014C91EA
:1037700011965C9111971296EC90309161056091D1
:103780006205809164059091650521E0009731F014
:103790006F3F19F421E03F3F09F020E0B22FB170F4
:1037A000BB2E20FD80C1F801C380D480A0906305AA
:1037B000AA2009F427C1C816D906D0F1D601A81B42
:1037C000B90BCD01FF24F394883C910508F0F12C4E
:1037D00080916605982F907FFF2009F4CAC091114F
:1037E00087C0FE2C651329C0341327C0E11025C003
:1037F0008F708061809366050E94221B81E695E0B0
:103800000E946E1A80916605F80185838F2D61965E
:103810000FB6F894DEBF0FBECDBFDF91CF911F91E1
:103820000F91FF90EF90DF90CF90BF90AF900895F1
:10383000809590958C0D9D1DC5CF81E0CD2831F0F0
:103840005F3F19F481E04F3F09F080E080FD24C024
:1038500081E08E25F82FF170DF2E80FF3FC0809130
:103860002F052091300536E0821318C04D875E8702
:103870008D859E850E94D01F292F22952F70223082
:1038800008F1243030F59F7009F1D80115969C910C
:10389000907FE1F4FB2CBACF80E0DCCF90E0389F42
:1038A000F001399FF00D1124EF5CFA4F618156133E
:1038B00006C06081461303C062816E110FC001967D
:1038C0008770D2CF9F7011F0882321F3805E8830FB
:1038D00008F3C8010E946E1ABD2CDCCFEE2009F45B
:1038E00095CF80916605816080936605F12C8ECF1F
:1038F000651312C0341310C0E1100EC0F8018583A7
:10390000C8010E946E1A86E0F801A1E6B5E00190B8
:103910000D928A95E1F741C04D875E878D859E8522
:103920000E94B31A882309F4C8C0EE2009F4C5C068
:1039300080916605803270F02091610530916205BA
:1039400038872F831986DB86CA868C87CE01079637
:103950000E946E1A86E0F801A1E6B5E001900D9292
:103960008A95E1F70E94301B0E94221BFF24F394EA
:103970004DCF911115C07C2DD98AC88A6E2D8989A9
:103980000E94E21A81E695E00E946E1A86E0E1E666
:10399000F5E0DF011D928A95E9F70E94221B36CFE0
:1039A000651312C0341310C0E1100EC0F8018583F6
:1039B000C8010E946E1AE1E6F5E086E0DF011D9283
:1039C0008A95E9F7FA2C22CF4D875E878D859E85F3
:1039D0000E94B31A882309F470C0EE2009F46DC068
:1039E00080916605803208F4B5CF20916105309151
:1039F00062053A8329831B82DD82CC828E83CE01CD
:103A00000196A6CFC816D90638F1F601E81BF90BC6
:103A1000CF01F12C883C910508F03DC0FE2CEE2032
:103A200009F44BC0651326C0341324C08091660589
:103A300080FD17C0982F907FA1F0D80115968C9328
:103A40001597903F09F45CCF982F907F905F8F700F
:103A5000892B15968C9354CF809590958C0D9D1D38
:103A6000D8CF86E0F801A1E6B5E001900D928A95E5
:103A7000E1F7CCCE4D875E878D859E850E94B31A77
:103A8000811168CF80916605816080936605C801C9
:103A90000E946E1ABBCE7C2DD98AC88A6E2D898968
:103AA0000E94E21A73CFEE2041F04D875E878D852C
:103AB0009E850E94B31A81114DCFC8010E946E1AD3
:103AC00055CF1F93CF93DF93CDB7DEB72C970FB6AB
:103AD000F894DEBF0FBECDBF4F83588769877A87C2
:103AE0008B879C87CE0107960E949B1B882309F435
:103AF00042C09F8188852A853B85232B39F08F3FE3
:103B000019F481E09F3F19F080E001C081E080FD61
:103B100008C04F81588569857A858B859C850E9470
:103B2000F11A16E080912F0590913005891709F45C
:103B300067C0819FC00111248F5C9A4F0E949B1B1C
:103B4000882309F45DC0E0912F051E9FF001112428
:103B5000EF5CFA4F4081518162817381848195814C
:103B60000E94F11A80912F0590E0019687709927A5
:103B700080932F05D7CF86E0FE013796DE011196A0
:103B800001900D928A95E1F79F8188852A853B8572
:103B9000232B39F08F3F19F481E09F3F19F080E02B
:103BA00001C081E080FDBDCF2091300530E0C9012A
:103BB00001968770992740912F054817190699F0AB
:103BC00096E0929FD001939FB00D1124AF5CBA4F45
:103BD000FE01319601900D929A95E1F780933005A0
:103BE0000E94011B9ECF0E94AF1A109230051092C6
:103BF0002F0586E0E1E6F5E0DF011D928A95E9F701
:103C00002C960FB6F894DEBF0FBECDBFDF91CF91DB
:103C10001F910895EF92FF920F931F93CF93DF931D
:103C20008C01892B81F0F12CEE24E394E80121969C
:103C3000F8018491843770F4843008F05FC08130DB
:103C4000B1F08230A1F1DF91CF911F910F91FF90E0
:103C5000EF900895853709F44CC008F43DC09CE707
:103C6000980F903780F78F770E94D11749C00E5F69
:103C70001F4FFE01849190E2980F983060F4877096
:103C8000FE2D01C0FF0F8A95EAF78F2F0E94792041
:103C90000E94212002C00E94DA168F2D815030F23E
:103CA000EFE9FFE03197F1F700C00000F7CF0E5FBA
:103CB0001F4FFE01849190E2980F983050F4877066
:103CC000FE2D01C0FF0F8A95EAF78F2F0E947F20FB
:103CD000DFCF0E94D117E1CF0E5F1F4FFE01C491CD
:103CE000C150D8F28FE99FE00197F1F700C00000C2
:103CF000F7CF0E5F1F4FFE01F490CFCF0E94DA1670
:103D00008E01CBCF08950E94821E60936B05709345
:103D10006C0580936D0590936E050C949F1A089521
:103D20000C94831E0F931F9300916B0510916C05EB
:103D300020916D0530916E05602B712B822B932B9A
:103D40001F910F910C94831E0F931F9300916B058D
:103D500010916C0520916D0530916E0560237123E3
:103D6000822393231F910F910C94831E0F931F9313
:103D700000916B0510916C0520916D0530916E05D9
:103D800060277127822793271F910F910C94831E20
:103D90000C94821E0C94C81E0E94CA1E6093670574
:103DA000709368058093690590936A050C949F1A37
:103DB00060E070E0CB010C94CC1E0F931F9341E0A8
:103DC00050E060E070E08A019B0104C0000F111F09
:103DD000221F331F8A95D2F7C901B8011F910F9195
:103DE0000C94CC1E0F931F9341E050E060E070E014
:103DF00004C0440F551F661F771F8A95D2F7809124
:103E0000670590916805A0916905B0916A058A01DE
:103E10009B01082B192B2A2B3B2BC901B8011F91A1
:103E20000F910C94CC1E0F931F9341E050E060E083
:103E300070E004C0440F551F661F771F8A95D2F7A4
:103E4000CB01BA01609570958095909500916705BA
:103E5000109168052091690530916A0560237123EE
:103E6000822393231F910F910C94CC1E0F931F93C9
:103E700041E050E060E070E004C0440F551F661F51
:103E8000771F8A95D2F78091670590916805A09178
:103E90006905B0916A058A019B01082719272A271D
:103EA0003B27C901B8011F910F910C94CC1E0F93B1
:103EB0001F93009167051091680520916905309165
:103EC0006A05602B712B822B932B1F910F910C9401
:103ED000CC1E0F931F9300916705109168052091E8
:103EE000690530916A0560237123822393231F9112
:103EF0000F910C94CC1E0F931F93009167051091A6
:103F000068052091690530916A056027712782272D
:103F100093271F910F910C94CC1E0895BF92CF92BE
:103F2000DF92EF92FF920F931F93CF93DF938C0159
:103F3000C0906705D0906805E0906905F0906A052B
:103F400080916B0590916C05A0916D05B0916E0507
:103F5000C82AD92AEA2AFB2ACFE1D0E0BC2ED70111
:103F6000C6010C2E04C0B695A795979587950A941F
:103F7000D2F780FD0EC0219788F7B12C8B2DDF91F1
:103F8000CF911F910F91FF90EF90DF90CF90BF9056
:103F90000895B8018C2F0E94CC06019761F3EECFF3
:103FA000CF93DF93EC010E948E1FBE01DF91CF9172
:103FB0000C94CC06CB010C94D01F682F8091DF03AA
:103FC0009091E0030C948221682F8091DF039091FF
:103FD000E0030C948D218091DF039091E0030C9419
:103FE000982180916F058595859585950895809197
:103FF0006F058770089598E0899F90011124622BC6
:1040000060936F050C94F21E90916F058095892343
:1040100080936F05282F277061F4282F082E000C3D
:10402000330B9217130629F08595859585950C9489
:10403000131F089590916F05977081E009F480E057
:104040000895E091DF03F091E00380919305808370
:10405000E091DF03F091E003808190919205892B3C
:104060008083E091DF03F091E003808190919105DE
:10407000892B808390917005992381F0E091DF0373
:10408000F091E0038081892B80838091DF03909100
:10409000E0030E9403218111109270058091DF03DB
:1040A0009091E0030C9448158091930508959091A8
:1040B0009305892B809393050895982F909580916F
:1040C000930589238093930508951092930508958D
:1040D00090919205892B809392050895982F909541
:1040E00080919205892380939205089510929205FC
:1040F000089590919105892B809391050895982FAB
:10410000909580919105892380939105089510924F
:104110009105089580937005089510927005089593
:1041200090938504809384040895829590E09C0187
:10413000220F331F220F331F2C7C95958795959561
:1041400087958373282B30E0C901880F991F8A7ADD
:10415000359527952575822B0895CF93DF93D92F19
:104160000E949520C82F8D2F0E9495209C2FDF91B3
:10417000CF9108956DEE7EEF90E080E00E94382FA1
:1041800060E082E090E00E94262F60E083E090E013
:104190000E94262F60E084E090E00E94262F60E0DD
:1041A00085E090E00E94262F6FEF87E090E00C946E
:1041B000262F90E080E00E94202F21E08D3E9E4F30
:1041C00009F020E0822F089582E090E00C94182FEF
:1041D00083E090E00C94182F682F83E090E00C941B
:1041E000262F84E090E00C94182F682F84E090E054
:1041F0000C94262F87E090E00C94182F682F87E00E
:1042000090E00C94262FFC0131969C01205E3F4FDC
:1042100080E0919191118F5FE217F307D1F7089534
:104220009C01FC0132969FEF80E04191461751F0CE
:104230009F3F19F4411101C0982F8F5F8E31A9F76C
:104240009F3F09F40895290F311D97FD3A95F90113
:1042500062830895FC01329680962191261303C053
:10426000DF0111971C92E817F907B9F70895E62FB7
:10427000E695E695E695EF3171F0E80FF92FF11D1F
:10428000677021E030E001C0220F6A95EAF7818172
:10429000822B818308958091940580FF0CC01F922A
:1042A0006F9382E993E09F938F930E9499030F90FD
:1042B0000F900F900F900895E62FE695E695E695FE
:1042C000EF3179F0E80FF92FF11D677021E030E050
:1042D00001C0220F6A95EAF7209581812823218366
:1042E00008958091940580FF0CC01F926F9384E71E
:1042F00093E09F938F930E9499030F900F900F90DC
:104300000F9008952091EB03222329F02091C805F6
:1043100027FD0C9437210C9410212091EB032223CC
:1043200029F02091C80527FD0C945C210C942A21CA
:10433000FC01319680961192E817F907E1F708958C
:104340008091CE05843039F11092950588E190E096
:1043500020E40FB6F894A895809360000FBE2093D8
:10436000600080E00E94E50483B7817F846083BFA2
:1043700083B7816083BF7894889583B78E7F83BF2E
:104380000FB6F894A89580916000886180936000D2
:10439000109260000FBE089508950895CF930E9473
:1043A000CC210E94C9090E94CD21C0E08C2F0E941F
:1043B0008A0A892B31F4CF5FC430C1F780E0CF91F6
:1043C000089581E0FCCF0E94AF1A0E943C150C9426
:1043D000E5041F920F920FB60F9211248F939F93B3
:1043E000AF93BF9380919505811113C08091C4054F
:1043F0009091C505A091C605B091C7054196A11D34
:10440000B11D8093C4059093C505A093C605B093D4
:10441000C705BF91AF919F918F910F900FBE0F90E5
:104420001F90189582E084BD93E095BD9AEF97BDEB
:1044300080936E0008952FB7F8948091C4059091F1
:10444000C505A091C605B091C7052FBF0895CF92AD
:10445000DF92EF92FF920F931F932FB7F894409142
:10446000C4055091C5056091C6057091C7052FBF61
:104470006A017B01EE24FF248C0130E020E0C016AD
:10448000D106E206F30650F0481B590BCA011F91F2
:104490000F91FF90EF90DF90CF9008954150510918
:1044A000F3CF78941F920F920FB60F9211248F932F
:1044B0009F93AF93BF938091C4059091C505A09140
:1044C000C605B091C7050196A11DB11D8093C40515
:1044D0009093C505A093C605B093C705BF91AF9152
:1044E0009F918F910F900FBE0F901F90189581E0B4
:1044F0008093E00080E28093D8001092C9008FE1A1
:104500009EE40197F1F700C0000087E090EBDC012A
:104510008093D7059093D805A093D905B093DA0579
:1045200088E19CE00FB6F894A895809360000FBED8
:1045300090936000FFCF0E94D920811102C00E9499
:10454000BA200E94E420809394050E94F12090E01C
:104550009093C9058093C8050E94E820682F70E0F9
:1045600090E080E00C94901E8091B9050895089524
:104570009FB7F894109298059FBF9091CE05943004
:1045800009F049C02091E9002F709091EC0090FD56
:1045900030C090E0922B23E02093E9002091EB00C3
:1045A00020FF36C02091EE0027FF32C020919605F3
:1045B000222321F02091E80025FF2AC010929605C1
:1045C00026E03091E80035FF16C08093F10080911D
:1045D000E80085FD29C08091E80080FFFCCF809134
:1045E000E8008E778093E8009F709093E90080E068
:1045F000089590E8CFCF3091CE05343049F4309112
:10460000EB0035FD05C0215041F481E08093960513
:104610009F709093E9008FEF0895EFE9FFE03197E5
:10462000F1F700C00000CDCF8FB7F89421E02093C0
:1046300098058FBFD9CF0F931F93CF93DF9300D0EF
:104640001F92CDB7DEB78C010E94BD25823011F0DC
:10465000843021F583E089831B830A8382E0809381
:10466000E9008FEF9091E800815095FD06C095ED2F
:104670009A95F1F700008111F5CF8091E80085FF50
:104680000DC050E040E063E070E0CE0101960E9472
:10469000DA258091E8008E778093E8000F900F90E4
:1046A0000F90DF91CF911F910F910895CF93DF93DA
:1046B00000D01F92CDB7DEB72091CE05243029F56A
:1046C00022E02983805891099B838A832093E90003
:1046D0008FEF9091E800815095FD06C095ED9A9579
:1046E000F1F700008111F5CF8091E80085FF0DC042
:1046F00050E040E063E070E0CE0101960E94DA25D0
:104700008091E8008E778093E8000F900F900F90D3
:10471000DF91CF910895CF93DF93EC010E94BD25E7
:10472000823011F08430F9F48091EB038823F1F0AA
:104730008091C80587FF1AC084E08093E9008FEF5D
:104740009091E800815095FD06C095E19A95F1F7AA
:1047500000008111F5CF8091E80050E040E060E278
:1047600070E085FD1AC0DF91CF91089581E08093BC
:10477000E9008FEF9091E800815095FD06C095ED1E
:104780009A95F1F700008111F5CF8091E80085FF3F
:10479000EACF50E040E068E070E0CE010E94DA2508
:1047A0008091E8008E778093E80080E2FE01A9E91D
:1047B000B5E001900D928A95E1F7D5CF85ED93E0B4
:1047C0000E9400038091CD05811109C00E946A27D3
:1047D0000E94C7278091E20084608093E2000895E0
:1047E00081ED93E00E9400031092CD0508958DECB9
:1047F00093E00C94000389EC93E00C94000385ECA7
:1048000093E00E9400030C94E321209197052F5F11
:10481000822F62E30E94822E992319F0209397053C
:10482000089510929705809198058823E9F080916A
:10483000CE058430B9F49091E9009F708091EC002E
:1048400080FD13C080E0892B93E09093E900909164
:10485000EB0090FF04C09091EE0097FD0AC08F70AE
:104860008093E90010929805089580E8ECCF1092AB
:10487000F1009091E80095FDFACF9091E80090FF4B
:10488000EECF9091E8009E779093E800E8CF42E069
:1048900061EC81E00E94E82642E061EC82E00E9447
:1048A000E82642E261EC83E00E94E82642E261EC05
:1048B00084E00C94E8268091D005833009F455C03B
:1048C00030F4813071F1823009F491C008958A305A
:1048D00009F47DC08B3009F463C0893009F044C00D
:1048E0008091CF05813209F03FC08091D30590912E
:1048F000D405009711F00397B9F58091E800877F00
:104900008093E8008091E80082FF2AC08091F10046
:104910008093B9058091E8008B778093E8000C9430
:104920001C278091CF05813AF9F48091E800877FB8
:104930008093E8008091D3059091D405892B61F490
:1049400060E289E995E070E00E9429268091E80004
:104950008B778093E800089560E090E080E0F3CFEB
:104960008091CE058111CECF08958091CF05813AF7
:10497000D9F78091D3059091D405892BA9F780911F
:10498000E800877F8093E8008091E80080FFFCCFFB
:104990008091EB038093F1008091E8008E77BDCF8A
:1049A0008091CF05813201F78091D3059091D40594
:1049B000892BD1F68091E800877F8093E8000E94E0
:1049C0001C278091D1058093EB030C94AF1A809142
:1049D000CF05813249F68091E800877F8093E80017
:1049E0000E941C278091D2058093BA05089580917A
:1049F000CF05813A09F0B8CF8091E800877F809396
:104A0000E8008091E80080FFFCCF8091BA05C2CF1A
:104A100084B7877F84BF0FB6F894A8958091600013
:104A2000886180936000109260000FBE80E88093E0
:104A30006100109261000E94C1150E946A270E94C5
:104A4000C7278091E20084608093E20088EB92E2C5
:104A50000E94902078940E944F2A0E94C51581EEF2
:104A600093E00E94371584EB93E00E94000380914D
:104A7000CE05853019F00E94F315F9CF80EB93E055
:104A80000E9400030E94A0218091CC05882379F325
:104A90000E94CE21882359F30E94C425E8CF0C94AC
:104AA0005125292F33272330310579F158F421304E
:104AB0003105F1F02230310519F190E080E030E06D
:104AC00020E01AC021323105C9F122323105A9F79F
:104AD0006430710590F7FB01EE0FFF1FED58FB4F9F
:104AE0002081318161597B4FFB01808190E004C0BE
:104AF00082E190E023E734E0FA01318320830895D6
:104B000084E790E02FEF33E0F7CF992781309105CC
:104B100079F040F08230910571F0039771F6E9ED7C
:104B2000F3E002C0EBEFF3E0849190E09F01E4CF6B
:104B3000EFEEF3E0F9CFEFEDF3E0F6CF643071057F
:104B400008F0BBCF660F771FFB01E558FB4F2081B4
:104B5000318189E090E0D0CF0895CF93C82F0E9493
:104B6000AC25C093BB05CF9108958091CE058430CC
:104B700011F081E0089582E008958091BB058111D4
:104B800002C00C94B525089580E189BD82E189BDFC
:104B900009B400FEFDCF8091D8008F7D8093D800AE
:104BA0008091E00082608093E0008091E00081FDD0
:104BB000FCCF0895AF92BF92CF92DF92FF920F93F6
:104BC0001F93CF93DF936C01EB018A010E943B2777
:104BD000F82E811123C00115110539F0F8018081EB
:104BE0009181C81BD90BC80ED91EB12CA12C2097BE
:104BF000A9F08091E80085FD22C08091E8008E77C1
:104C00008093E80001151105A1F0F80180819181E0
:104C1000A80EB91EB182A08285E0F82E8F2DDF91FB
:104C2000CF911F910F91FF90DF90CF90BF90AF90E9
:104C300008950E943B278823D1F2F82EEFCFF6018A
:104C400081916F018093F1002197FFEFAF1ABF0AA6
:104C5000CECFFC018091D5059091D6058617970798
:104C6000A0F06115710529F49091E8009E7790936A
:104C7000E80090E06115710551F4911108C0809130
:104C8000E80082FF35C080E00895BC01F2CF80913A
:104C9000CE058823C9F18530C9F18091E80083FDF4
:104CA00031C08091E80082FDEACF8091E80080FF6A
:104CB000E1CF2091F3008091F200322F282F61156F
:104CC000710519F02830310558F091E02830310590
:104CD00009F090E02091E8002E772093E800CACFF9
:104CE00081918093F100615071092F5F3F4FE7CFB1
:104CF0008091CE05882341F0853041F08091E80015
:104D000083FFBDCF81E0089582E0089583E0089598
:104D1000FC018091D5059091D60586179707A0F0E4
:104D20006115710529F48091E8008E778093E80081
:104D300090E06115710551F4911108C08091E8006F
:104D400082FF36C080E00895BC01F2CF8091CE058D
:104D50008823D1F18530D1F18091E80083FD32C004
:104D60008091E80082FDEACF8091E80080FFE1CFEA
:104D70002091F3008091F200322F282F61157105E8
:104D800019F02830310558F091E02830310509F04C
:104D900090E08091E8008E778093E800CACF8491FC
:104DA0008093F1003196615071092F5F3F4FE6CF3C
:104DB0008091CE05882341F0853041F08091E80054
:104DC00083FFBCCF81E0089582E0089583E00895D9
:104DD000982F973028F08F708093E90081E0089534
:104DE0009093E900242F762F50E0981731F07091BE
:104DF000EC002091ED005091F00021FD02C09F5F7A
:104E0000E8CF3091EB003E7F3093EB003091ED0026
:104E10003D7F3093ED003091EB0031603093EB003B
:104E20007093EC002093ED005093F0002091EE0081
:104E300027FDE5CF80E008958091CF0587FF13C05F
:104E40008091E80082FF06C08091E8008B77809314
:104E5000E80004C08091CE058111F2CF08958091C1
:104E6000CE058823D9F38091E80080FFF8CF8091A8
:104E7000E8008E77ECCF2091E4003091E50085E6E4
:104E80009091EC0090FF06C09091E80090FF06C062
:104E900080E008959091E80092FDFACF9091CE05C0
:104EA000992391F0953091F09091EB0095FD10C011
:104EB0004091E4005091E5002417350709F3815033
:104EC0009A01F1F684E0089582E0089583E0089560
:104ED00081E008950E94D8270E94E027E0EEF0E0EC
:104EE000808181608083E8EDF0E080818F7780832E
:104EF00019BCA7EDB0E08C918E7F8C9380818F7E62
:104F000080831092CD0508950F931F93CF93DF9365
:104F10000E94D8270E94E027C8EDD0E088818F77D3
:104F2000888388818068888388818F7D888319BC85
:104F30001092CE051092CA051092CC051092CB05A6
:104F400000EE10E0F80180818B7F80838881816092
:104F5000888342E060E080E00E94E826E1EEF0E035
:104F600080818E7F8083E2EEF0E0808181608083AB
:104F7000808188608083F80180818E7F8083888132
:104F800080618883DF91CF911F910F910895E8EDA3
:104F9000F0E080818F7E8083E7EDF0E080818160AA
:104FA000808384E082BF81E08093CD050C948427C8
:104FB000E8EDF0E080818E7F80831092E20008951A
:104FC0001092DA001092E10008951F920F920FB62E
:104FD0000F9211242F933F934F935F936F937F937F
:104FE0008F939F93AF93BF93EF93FF938091E100D3
:104FF00082FF0BC08091E20082FF07C08091E10038
:105000008B7F8093E1000E9405248091DA0080FF6D
:1050100019C08091D80080FF15C08091DA008E7F82
:105020008093DA008091D90080FF94C080E189BD2F
:1050300082E189BD09B400FEFDCF81E08093CE05F9
:105040000E94DE238091E10080FF19C08091E20080
:1050500080FF15C08091E2008E7F8093E2008091F6
:10506000E20080618093E2008091D80080628093AA
:10507000D80019BC85E08093CE050E94FB23809167
:10508000E10084FF29C08091E20084FF25C080E117
:1050900089BD82E189BD09B400FEFDCF8091D800B1
:1050A0008F7D8093D8008091E1008F7E8093E10016
:1050B0008091E2008F7E8093E2008091E200816027
:1050C0008093E2008091CA05882309F449C084E0F6
:1050D0008093CE050E94FF238091E10083FF29C0C9
:1050E0008091E20083FF25C08091E100877F80935B
:1050F000E10082E08093CE051092CA058091E10024
:105100008E7F8093E1008091E2008E7F8093E200A9
:105110008091E20080618093E20042E060E080E004
:105120000E94E8268091F00088608093F0000E9441
:10513000F723FF91EF91BF91AF919F918F917F9155
:105140006F915F914F913F912F910F900FBE0F90F4
:105150001F90189519BC1092CE050E94F02372CFB3
:105160008091E30087FD02C081E0B2CF83E0B0CF41
:105170001F920F920FB60F9211242F933F934F93CC
:105180005F936F937F938F939F93AF93BF93CF93CF
:10519000EF93FF93C091E900CF708091EC001092E3
:1051A000E9008091F000877F8093F00078940E945E
:1051B000F4281092E9008091F00088608093F0005C
:1051C000C093E900FF91EF91CF91BF91AF919F9173
:1051D0008F917F916F915F914F913F912F910F90A0
:1051E0000FBE0F901F9018951F93CF93DF93CDB7ED
:1051F000DEB7AA970FB6F894DEBF0FBECDBFEFECB7
:10520000F5E08091F100819325E0E73DF207C9F7D1
:105210000E945B248091E80083FF44C08091CF0509
:105220009091D0059A3008F03DC0E92FF0E0E55E9E
:10523000F64D0C94B62E25294B2952294B2952297B
:10524000A929CB295229222A2F2A803889F082388D
:1052500049F58091D3058F70873020F58093E90060
:105260008091EB0085FB882780F91092E90006C049
:105270008091CB059091CC05911182609091E800CE
:10528000977F9093E8008093F1001092F100809155
:10529000E8008E772DC0282F2D7F21F48823D1F0B0
:1052A000823059F18091E80083FF0AC08091E800C4
:1052B000877F8093E8008091EB0080628093EB0011
:1052C000AA960FB6F894DEBF0FBECDBFDF91CF9187
:1052D0001F9108958091D105813021F7933009F015
:1052E00080E08093CC051092E9008091E800877FF0
:1052F0008093E8000E941C27D5CF8091D1058111B1
:10530000F2CF8091D3058F702FEF280F263050F603
:105310008093E9002091EB0020FFE5CF933031F43A
:105320008091EB0080628093EB00DDCF9091EB00E9
:1053300090619093EB0021E030E001C0220F8A954C
:10534000EAF72093EA001092EA008091EB0088606F
:10535000EACF8111A7CF1091D1051F778091E3008B
:105360008078812B8093E3008091E800877F809391
:10537000E8000E941C278091E80080FFFCCF80910C
:10538000E30080688093E30083E0111101C082E0B4
:105390008093CE0587CF8058823008F083CF8091EC
:1053A000D1059091D2058C3D23E09207A1F583E0D1
:1053B0008A838AE289834FB7F894DE01139620E04E
:1053C0003EE051E2E32FF0E050935700E49120FFDC
:1053D00003C0E295EF703F5FEF708E2F90E0EA30F0
:1053E000C0F0C7968D939D932F5F243159F74FBF1F
:1053F0008091E800877F8093E8006AE270E0CE0148
:1054000001960E9429268091E8008B778093E8001E
:1054100049CFC096E7CF6091D3057091D405AE0116
:105420004F5F5F4F0E944F25BC01892B09F43ACF93
:105430009091E800977F9093E80089819A810E947B
:105440008826E1CF803809F02DCF8091E800877F52
:105450008093E8008091CA058093F10018CF8111F4
:1054600021CF9091D105923008F01CCF8091E800B7
:10547000877F8093E8009093CA050E941C27809143
:10548000CA05882331F084E08093CE050E9447242A
:1054900009CF8091E30087FDF6CF81E0F5CFCF9370
:1054A0008091CE05882399F0C091E900CF7080915A
:1054B000EC0080FD0EC080E0C82B1092E9008091C6
:1054C000E80083FD0E94F428CF70C093E900CF91DB
:1054D000089580E8F1CF5058BB27AA270E94832A5D
:1054E0000C945F2C0E94512C38F00E94582C20F014
:1054F00039F49F3F19F426F40C944E2C0EF4E095E9
:10550000E7FB0C943A2CE92F0E94702C58F3BA1741
:10551000620773078407950720F079F4A6F50C94C9
:10552000922C0EF4E0950B2EBA2FA02D0B01B90191
:1055300090010C01CA01A0011124FF27591B99F009
:10554000593F50F4503E68F11A16F040A22F232F15
:10555000342F4427585FF3CF469537952795A79565
:10556000F0405395C9F77EF41F16BA0B620B730B0C
:10557000840BBAF09150A1F0FF0FBB1F661F771F7D
:10558000881FC2F70EC0BA0F621F731F841F48F432
:10559000879577956795B795F7959E3F08F0B0CFBB
:1055A0009395880F08F09927EE0F979587950895A2
:1055B0000E94162C08F481E008950E94F12A0C94B0
:1055C0005F2C0E94582C58F00E94512C40F029F476
:1055D0005F3F29F00C943A2C51110C94932C0C94AD
:1055E0004E2C0E94702C68F39923B1F3552391F34C
:1055F000951B550BBB27AA2762177307840738F042
:105600009F5F5F4F220F331F441FAA1FA9F335D09E
:105610000E2E3AF0E0E832D091505040E695001C52
:10562000CAF72BD0FE2F29D0660F771F881FBB1F0C
:10563000261737074807AB07B0E809F0BB0B802DEA
:10564000BF01FF2793585F4F3AF09E3F510578F016
:105650000C943A2C0C94932C5F3FE4F3983ED4F3D3
:10566000869577956795B795F7959F5FC9F7880FEA
:10567000911D9695879597F90895E1E0660F771F3C
:10568000881FBB1F621773078407BA0720F0621BCD
:10569000730B840BBA0BEE1F88F7E09508950E94F8
:1056A000562B6894B1110C94932C08950E94782C79
:1056B00088F09F5798F0B92F9927B751B0F0E1F0D3
:1056C000660F771F881F991F1AF0BA95C9F714C083
:1056D000B13091F00E94922CB1E008950C94922C7C
:1056E000672F782F8827B85F39F0B93FCCF38695BC
:1056F00077956795B395D9F73EF490958095709519
:1057000061957F4F8F4F9F4F0895E89409C097FB95
:105710003EF490958095709561957F4F8F4F9F4F88
:105720009923A9F0F92F96E9BB279395F6958795CC
:1057300077956795B795F111F8CFFAF4BB0F11F48F
:1057400060FF1BC06F5F7F4F8F4F9F4F16C0882336
:1057500011F096E911C0772321F09EE8872F762F6C
:1057600005C0662371F096E8862F70E060E02AF0AD
:105770009A95660F771F881FDAF7880F9695879599
:1057800097F908950E94512C20F019F00E94582C8E
:1057900050F40C944E2C0C94932CE92F0E94702CF6
:1057A00088F35523B1F3E7FB621773078407950766
:1057B000A8F189F3E92FFF2788232AF03197660F94
:1057C000771F881FDAF7952F5527442332F0915021
:1057D0005040220F331F441FD2F7BB27E91BF50BA4
:1057E000621B730B840BB109B1F222F4620F731FB9
:1057F000841FB11D31972AF0660F771F881FBB1FCA
:10580000EFCF9150504062F041F0882332F0660FA4
:10581000771F881F91505040C1F793950C94402CEE
:105820008695779567959F5FD9F7F7CF990F000811
:10583000550FAA0BE0E8FEEF16161706E807F90762
:10584000C0F012161306E407F50798F0621B730BFD
:10585000840B950B39F40A2661F0232B242B252B7E
:1058600021F408950A2609F4A140A6958FEF811D21
:10587000811D089597F99F6780E870E060E00895C2
:105880009F3F31F0915020F4879577956795B795B4
:10589000880F911D9695879597F908959FEF80EC55
:1058A000089500240A941616170618060906089586
:1058B00000240A9412161306140605060895092EEC
:1058C0000394000C11F4882352F0BB0F40F4BF2B5B
:1058D00011F460FF04C06F5F7F4F8F4F9F4F08959B
:1058E00057FD9058440F551F59F05F3F71F0479591
:1058F000880F97FB991F61F09F3F79F08795089576
:10590000121613061406551FF2CF4695F1DF08C094
:10591000161617061806991FF1CF869571056105B1
:1059200008940895E894BB2766277727CB0197F959
:1059300008950E94162C08F48FEF08950E94B12C50
:105940000C945F2C0E94512C38F00E94582C20F0AF
:10595000952311F00C943A2C0C944E2C11240C9499
:10596000932C0E94702C70F3959FC1F3950F50E01B
:10597000551F629FF001729FBB27F00DB11D639F01
:10598000AA27F00DB11DAA1F649F6627B00DA11DA7
:10599000661F829F2227B00DA11D621F739FB00D4D
:1059A000A11D621F839FA00D611D221F749F3327BD
:1059B000A00D611D231F849F600D211D822F762F56
:1059C0006A2F11249F5750409AF0F1F088234AF033
:1059D000EE0FFF1FBB1F661F771F881F915050409F
:1059E000A9F79E3F510580F00C943A2C0C94932C0F
:1059F0005F3FE4F3983ED4F3869577956795B79526
:105A0000F795E7959F5FC1F7FE2B880F911D96953F
:105A1000879597F90895FA01EE0FFF1F309621053B
:105A20003105A1F16115710561F48038BFE39B0771
:105A300049F168949038810561F08038BFEF9B0789
:105A400041F099234AF5FF3FE1053105210519F1A0
:105A5000E8940894E795D901AA2329F4AB2FBE2F27
:105A6000F85FD0F310C0FF5F70F4A695E0F7F73948
:105A700050F019F0FF3A38F49F779F930DD00F90B4
:105A800007FC9058089546F00C944E2C60E070E0AE
:105A900080E89FE308954FE79F775F934F933F938D
:105AA0002F930E94062E2F913F914F915F910E945C
:105AB0009E2C0C94632D29F416F00C943A2C0C9423
:105AC000922C0C944E2C0E94782CA8F39638A0F7B8
:105AD00007F80F92E8942BE33AEA48EB5FE70E945D
